:020000040800F2
:10000000E0100020D19500083D9200083F920008C2
:100010004192000843920008459200080000000049
:1000200000000000000000000000000047920008EF
:1000300049920008000000004B9200084D92000811
:1000400045960008499600084D960008519600080C
:1000500055960008599600085992000869920008C0
:100060007992000889920008999200085D9600082C
:100070006196000865960008699600086D9600086C
:100080007196000875960008799600087D9600081C
:100090008196000885960008899600089B920008C2
:1000A0008D9600089196000895960008999600088C
:1000B000596200089D960008A1960008A5960008C0
:1000C000A9960008AD960008B1960008B5960008FC
:1000D000B9960008BD960008C1960008C5960008AC
:1000E000B5920008C9960008CD960008D196000880
:1000F000D596000800000000D9960008DD9600089B
:10010000E1960008E5960008E9960008ED960008DB
:10011000F1960008F5960008F99600080000000026
:10012000FD960008F0B40200002000250D700025A7
:100130004D700025EDB2042D80F29B80EDB2002DB4
:1001400005D0022D12D007D3032D19D01CE016784C
:10015000F6B2B608330017E01678360116F030060E
:100160005778FFB216EB171633000DE05678B6003D
:1001700016F03C069778FFB216EB9716330003E0B3
:10018000967816F03F063300DBB21E000B2E27D008
:100190000D2E1FD00E2E20D0132E2DD0162E16D0A1
:1001A000192E23D01A2E24D01C2E1CD0232E2FD053
:1001B000252E27D0262E28D0292E35D02C2E1ED005
:1001C000312E2BD0322E2CD0342E24D02FE00026EE
:1001D00034002EE0012634002BE00226340028E013
:1001E0000326340025E00426340022E005263400EE
:1001F0001FE0062634001CE00726340019E008261C
:10020000340016E00926340013E00A26340010E01A
:100210000B2634000DE00C2634000AE00D263400D5
:1002200007E00E26340004E00F26340001E0C0B2DF
:1002300020E0EDB2022695FBF6F706FB1756002EDE
:1002400001D1012600E00026EDB26F10CF5DA4B20F
:10025000F6B2B60014FA06F63E43EDB26F10CE5574
:10026000EDB2012D02D0EDB2032D00D1401C6D1C6A
:1002700060E7C0B2F0BC7047DFF88C0370472DE92F
:10028000F0411C240025DFF884632A00210030009F
:1002900002F082FB03260027DFF874833A00310066
:1002A000404602F079FBDFF86C03DFF86C1308605E
:1002B0006420DFF8681308600020DFF8641308602A
:1002C000BDE8F08110B50400DFF85803E4B2210165
:1002D00000EB01020421082002F0E3FCD148E4B263
:1002E00021010844021D04211A2002F0DAFCCD4845
:1002F000E4B22101084410F1080203213B2002F07E
:10030000D0FCC848E4B22101084410F10D020221DA
:100310006E2002F0C6FCC348E4B22101084410F18B
:100320000F020121312002F0BCFCBF48047010BD57
:1003300010B50400BC4800782100C9B2884200F022
:1003400086800422B748E4B261420901084410F1F2
:100350001001B448E4B22301184402F037FE00282B
:1003600008D0B048E4B2210100EB010204210820CA
:1003700002F031FC0422AB48E4B2614209010844B6
:1003800010F11401A748E4B223011844001D02F043
:100390001DFE002808D0A348E4B221010844021D34
:1003A00004211A2002F017FC03229E48E4B26142A5
:1003B0000901084410F118019A48E4B223011844D5
:1003C000083002F003FE002809D09648E4B221016B
:1003D000084410F1080203213B2002F0FCFB02223A
:1003E0009048E4B261420901084410F11D018D48B2
:1003F000E4B2230118440D3002F0E8FD002809D0D2
:100400008848E4B22101084410F10D0202216E2057
:1004100002F0E1FB01228348E4B261420901084491
:1004200010F11F017F48E4B2230118440F3002F09D
:10043000CDFD002809D07B48E4B22101084410F129
:100440000F020121312002F0C6FB7748047010BD75
:1004500080B5684601F040FE0628FAD0002001F081
:1004600095FE672002F0E4FD70480078042807D06C
:100470006E480078052803D06C4800780C2818D105
:100480006A4890F83400D0F10100684981F83400DE
:1004900001F04AFA002804D0644890F83400FFF7CD
:1004A00011FF624890F83400D0F101005F4981F8F3
:1004B000340001F039FA002804D05C4890F8340088
:1004C000FFF700FF59480078042818D057480078F3
:1004D000052814D0554800780C2810D051485349AD
:1004E00091F8341049420901084410304D494F4AEF
:1004F00092F8342012011144102202F0A9FD9DF857
:10050000000001F043FE01BD30B583B004000D00D2
:1005100002F09CFE702002F08BFD02F0E8FE4448E1
:100520000068019001A802F079FFEDB2012D0BD017
:10053000EDB2002D08D0EDB2022D05D0EDB2032DA5
:1005400002D0EDB2FF2D5DD1E4B2002C26D0E4B292
:10055000012C23D0E4B2022C20D0E4B2032C1DD015
:10056000E4B2042C1AD0E4B2052C17D0E4B2072C64
:1005700014D0E4B2082C11D0E4B20B2C0ED0E4B2AB
:100580000C2C0BD0E4B20A2C08D0E4B2092C05D014
:10059000E4B2062C02D0E4B20D2C33D1DFF8300DDA
:1005A0000470DFF82C0D457001F042F8012003F0D3
:1005B0003FFE022003F0E9FF002003F0F3FE0020DD
:1005C00004F043F8012004F017F822208DF8000011
:1005D0006A460121202002F0FEFA002004F0C4F84F
:1005E000FFF74DFEFFF734FF0120DFF8E81C08702D
:1005F000DFF8DC0C4078012802D0022001F0C6FDB3
:10060000002000E003203EBDF4120020BC160020B4
:100610001417002000007AC41817002020170020AB
:100620001C1700209C1600205B1700208C00002067
:10063000409600082DE9F04385B0DFF89C0C007867
:10064000002806D0022800F08C83C0F0238500F03B
:100650003BBE0024DFF8840C0088DFF8841C08808F
:1006600004F081FC0500DFF8680C0078DFF8741CEA
:10067000DFF8742C128814235A43114408730C2099
:10068000DFF8681C08800020DFF8581CDFF8582CC1
:10069000128814235A438852DFF8340C00780B2850
:1006A00013D0DFF82C0C00780C280ED0DFF8200CCB
:1006B0000078032804D0DFF8180C0078042879D1DA
:1006C000DFF80C0C4078012874D00DF103010120F3
:1006D00002F008FCDFF8140C0088401EDFF80C1C48
:1006E00008809DF80300542834D10B20DFF8F41B58
:1006F000DFF8F42B128814235A43114408730DF1C8
:100700000201012002F0EEFBDFF8E00B0088401E42
:10071000DFF8D81B08809DF80200CD2802D1002008
:10072000050047E09DF802003D2802D101200500A8
:1007300040E005F02CFA00214FF4007005F0CEF9EE
:10074000672002F075FC00F0A7FE022001F01EFDFC
:1007500000F0BABD9DF80300DFF8381DDFF8802BEC
:1007600012888854DFF8780B0088401C4FF4007121
:1007700090FBF1F201FB1200DFF8641B0880DFF848
:10078000640BDFF8641B098814225143405A401C53
:10079000DFF8501BDFF8502B128814235A4388527D
:1007A0000320DFF8401BDFF8402B128814235A4344
:1007B00011440873DFF8180B0078072804D0DFF81D
:1007C000100B007808282DD100208DF801000DF1C4
:1007D0000101012002F086FBDFF8100B0088401EAB
:1007E000DFF8081B08809DF801008D2802D1002049
:1007F000050017E09DF80100722802D101200500D4
:1008000010E005F0C4F900214FF4007005F066F91E
:10081000672002F00DFC00F03FFE022001F0B6FC64
:1008200000F052BDDFF8A80A0078092804D0DFF8EC
:10083000A00A00780A282CD100208DF80000694613
:10084000012002F04FFBDFF8A40A0088401EDFF809
:100850009C1A08809DF800008D2802D10020050018
:1008600017E09DF80000722802D10120050010E079
:1008700005F08DF900214FF4007005F02FF9672085
:1008800002F0D6FB00F008FE022001F07FFC00F031
:100890001BBDDFF8500ADFF8501A098814225143B3
:1008A00008448570DFF8380A0088DFF8401A0988A4
:1008B0000818B0F5007F25DDDFF8D80BDFF8201A27
:1008C00009880144DFF8180A00884042C0B202F0EB
:1008D00009FBDFF8C01BDFF8140A0088DFF8002AE4
:1008E00012881018C0B202F0FDFADFF8F40900888F
:1008F000DFF8F8190988B1F500710818DFF8E01978
:1009000008801BE0DFF88C0BDFF8D419098801445C
:10091000DFF8D8090088C0B202F0E4FADFF8C009B5
:100920000088DFF8C819098808184FF4007190FB97
:10093000F1F201FB1200DFF8A8190880DFF8A40922
:10094000DFF8A419098814225143405ADFF89C1992
:1009500009880818DFF88C19DFF88C29128814230D
:100960005A438852DFF87C09DFF87C190988142281
:1009700051430844007B032823D1DFF85409407811
:1009800001281ED00020C0B2032812DADFF84C196B
:100990000988C0B241184FF4007291FBF2F302FBD8
:1009A0001311DFF8F02A515C02AAC0B21154401CA6
:1009B000E9E701A902A8FFF7B5FB9DF804000600CE
:1009C00006E0DFF8D00ADFF814190988405C060059
:1009D000F6B20A2E0DDA05F0DAF800214FF40070B5
:1009E00005F07CF8672002F023FB00F055FD00F0D5
:1009F0006BBCEDB2002D6FD1F6B20A2E66DBF6B2FB
:100A0000300005F0DDF805F0EBF80022DFF8943B4C
:100A100005F00EF90022DFF8903B05F07DF98046E5
:100A20008946F6B2300005F0CBF805F0D9F800227F
:100A3000DFF8703B05F0FCF80022DFF86C3B05F0B6
:100A40006BF905F095FA80B205F0C8FA02000B00C8
:100A50004046494605F0D0FA0022002305F08CFB01
:100A600018D2F6B2300005F0ABF805F0B9F8002264
:100A7000DFF8303B05F0DCF80022DFF82C3B05F016
:100A80004BF90022DFF8243B05F0D2F805F070FAAC
:100A900080B212E0F6B2300005F092F805F0A0F84E
:100AA0000022DFF8003B05F0C3F80022DFF8F83A37
:100AB00005F032F905F05CFA80B2F6B280B216EBBE
:100AC0004000C01CDFF8E81A08800DE0F6B2F01C08
:100AD000DFF8DC1A088007E0EDB2012D04D1F6B290
:100AE000701CDFF8CC1A0880DFF8F807DFF8F81779
:100AF0000988142251430844007B03282AD1DFF8D7
:100B0000D0074078012825D0DFF8A40A0088032107
:100B10004843DFF89C1A0880DFF8940A0088022115
:100B200090FBF1F201FB1200002809D1DFF8800AE6
:100B30000088022190FBF1F0DFF8741A088009E0C8
:100B4000DFF86C0A0088401C022190FBF1F0DFF80E
:100B5000601A0880DFF8580A0088DFF890170988C3
:100B6000401ADFF8501A0880DFF8480A00885F282A
:100B700006DB302004000120DFF85C17087007E076
:100B8000DFF8300A008804000220DFF84C170870F4
:100B9000D4F16000C0B205F029FBDFF84807DFF8A8
:100BA00048170988142251430844007B032840F069
:100BB000D780DFF81C074078012800F0D180DFF8EB
:100BC0001C070088DFF8F0190880DFF8100700889C
:100BD000DFF8381D08800020DFF8E01908800020C9
:100BE000DFF82C1D0880DFF8FC06DFF8FC1609880A
:100BF00014225143405A032190FBF1F201FB1200F1
:100C0000002809D1DFF8DC06DFF8DC160988142299
:100C10005143405A070034E0DFF8C806DFF8C81631
:100C2000098814225143405A401E032190FBF1F2DF
:100C300001FB120000280AD1DFF8A806DFF8A81689
:100C4000098814225143405A401E070019E0DFF87A
:100C50009406DFF89416098814225143405A801EE6
:100C6000032190FBF1F201FB1200002809D1DFF80B
:100C70007406DFF87416098814225143405A801E06
:100C80000700DFF838090088390089B2884267D246
:100C9000DFF824090088801CB0F5007F1EDB0020EF
:100CA000C0B2032813DADFF810190988C0B241185E
:100CB0004FF4007291FBF2F302FB1311DFF8D4271B
:100CC000515CDFF8502CC0B21154401CE8E7DFF84B
:100CD000481CDFF8400CFFF725FA09E0DFF8381C64
:100CE000DFF8B007DFF8D02812881044FFF71AFAAF
:100CF000DFF8C4080088C01C4FF4007190FBF1F2CB
:100D000001FB1200DFF8B0180880DFF8B008008897
:100D1000C01CDFF8A81808800020C0B20228B0DA92
:100D2000DFF8EC1B0988491CDFF8E42B1180DFF8A1
:100D3000E81BC0B2095CDFF85C27DFF8D03B1B88FA
:100D4000D154DFF8C81B0988491C4FF4007291FB8D
:100D5000F2F302FB1311DFF8B42B1180401CDCE727
:100D6000B2E2672002F064F905F092FADFF8741538
:100D7000DFF87425128814235A431144886003F065
:100D800086FCC0B2143804F011FF5FF0804105F01A
:100D9000B3FA04F025FF0022DFF8803B04F048FF9F
:100DA00005F0E6F8DFF83C15DFF83C25128814233F
:100DB0005A431144486000214FF4007004F08EFE45
:100DC000DFF81C050088DFF8EC1709880818B0F573
:100DD000007F25DDDFF8BC06DFF804150988014433
:100DE000DFF8FC0400884042C0B202F07BF8DFF874
:100DF000A416DFF8C0070088DFF8E4241288101872
:100E0000C0B202F06FF8DFF8D8040088DFF8A4174A
:100E10000988B1F500710818DFF8C41408801BE0D8
:100E2000DFF87006DFF8B81409880144DFF884079A
:100E30000088C0B202F056F8DFF8A4040088DFF89A
:100E40007417098808184FF4007190FBF1F201FB48
:100E50001200DFF88C140880DFF88804DFF88814AB
:100E6000098814225143405ADFF8481709880818A6
:100E7000DFF87014DFF87024128814235A43885264
:100E8000DFF82C070088DFF864140988401ADFF8BF
:100E900024170988401ADFF81C170880712002F017
:100EA000C7F8542005F0A2F9DFF83804DFF8381449
:100EB0000988142251430844007B032840F0C18074
:100EC000DFF80C044078012800F0BB80DFF8140440
:100ED000DFF81414098814225143405A032190FB6F
:100EE000F1F201FB1200002825D00020DFF8A41544
:100EF000DFF8EC2312888854DFF8E4030088401CF4
:100F00004FF4007190FBF1F201FB1200DFF8D013F7
:100F10000880DFF8D003DFF8D0130988142251438A
:100F2000405A401CDFF8BC13DFF8BC23128814239E
:100F30005A438852CAE7DFF8AC03DFF8AC130988DC
:100F400014225143405A0400DFF870060088210043
:100F500089B2884267D2DFF860060088801CB0F54D
:100F6000007F1EDB0020C0B2032813DADFF848162A
:100F70000988C0B241184FF4007291FBF2F302FBF2
:100F80001311DFF81025515CDFF88829C0B2115425
:100F9000401CE8E7DFF88019DFF87809FFF7C2F8AE
:100FA00009E0DFF87419DFF8EC04DFF80C2612888A
:100FB0001044FFF7B7F8DFF800060088C01C4FF4B4
:100FC000007190FBF1F201FB1200DFF8EC150880D4
:100FD000DFF8E8050088C01CDFF8E0150880002075
:100FE000C0B20228B0DADFF828190988491CDFF8F6
:100FF00020291180DFF82019C0B2095CDFF89424A1
:10100000DFF808391B88D154DFF800190988491C1A
:101010004FF4007291FBF2F302FB1311DFF8EC289E
:101020001180401CDCE7DFF8E8080088AD49AE4AD3
:10103000128814235A438852DFF8D0080088A84940
:101040000880A6480088A749A74A128814235A4353
:1010500011440861A2480088A0490880A24800887D
:10106000401C0A2190FBF1F201FB12009E4908800E
:10107000DFF8AC080088401CDFF8A41808800020C6
:101080009549087092484078012802D0022001F06A
:101090007DF819E1924800882F30B0F5007F1ADD05
:1010A000DFF8F0038E49098801448D4800884042EA
:1010B000C0B201F017FFDFF8DC13894800882F3039
:1010C000C0B201F00FFF8648008840F2D111401AEB
:1010D0008349088012E0DFF8BC0381490988014494
:1010E0002F2001F0FFFE7E4800882F304FF4007162
:1010F00090FBF1F201FB12007949088079487A49A6
:10110000098814225143405A2F307649764A128872
:1011100014235A438852754800882F307349088039
:10112000DFF88C04008871490988401ADFF88414BC
:101130000880DFF8800400885A280ADADFF874048F
:101140000088D0F16000C0B205F050F8022062497A
:10115000087003A804F0FFFC624863490988142260
:1011600051430844007B032840F0AE805848407843
:10117000012800F0A9805B485B490988142251438B
:10118000405A032190FBF1F201FB1200002807D125
:1011900054485549098814225143405A04002CE010
:1011A00050485149098814225143405A401E032196
:1011B00090FBF1F201FB1200002808D149484A498E
:1011C000098814225143405A401E040015E0454846
:1011D0004549098814225143405A801E032190FB3F
:1011E000F1F201FB1200002807D13E483E49098870
:1011F00014225143405A801E0400DFF8C0030088C7
:10120000210089B288425FD2DFF8AC030088801CDD
:10121000B0F5007F1DDB0020C0B2032812DADFF832
:1012200098130988C0B241184FF4007291FBF2F391
:1012300002FB1311974A515CDFF8D826C0B2115453
:10124000401CE9E7DFF8D016DFF8C806FEF76AFFB2
:1012500007E0DFF8C4168F48D74A12881044FEF71B
:1012600061FFD5480088C01C4FF4007190FBF1F27B
:1012700001FB1200D0490880D0480088C01CCF492B
:1012800008800020C0B20228B7DADFF88416098887
:10129000491CDFF87C261180DFF87C16C0B2095C9F
:1012A0007C4ADFF868361B88D154DFF8601609885D
:1012B000491C4FF4007291FBF2F302FB1311DFF8AB
:1012C0004C261180401CDDE705B0BDE8F08300002E
:1012D0008C0000205C1700205717002034170020D6
:1012E0003617002034150020381700204C17002036
:1012F00010B582B0684604F02EFC9DF80000C0F3E3
:101300008000C0B200280CD1DFF8C80D90F83C0076
:10131000002844D09DF80100C0F3C000C0B20028EE
:101320003DD0DFF8B00D90F83C00002831D000200F
:1013300003F01AFA9DF80100C0F3C000C0B2002803
:1013400002D0672001F074FE012002F071FFDFF887
:10135000840D406A03F0AAF99DF80100C0F3C000B3
:10136000C0B200280FD0DFF86C0D90F844000028C0
:1013700003D0602001F05CFE78E00120DFF8A415C6
:101380000968884772E00020DFF8981509688847E7
:101390006CE00020DFF88C150968884766E09DF84E
:1013A000010010F0010000284DD000214FF48070A2
:1013B00004F094FB602004F02AFF04F006FF040010
:1013C000DFF8740DC088E4B22018612827DBDFF84D
:1013D000680D0068DFF8601D89880144D4F15F0062
:1013E000C0B201F020FD302004F011FFDFF8480DFD
:1013F000C088E4B2B4F15F010818DFF83C1DC88072
:10140000DFF8340D80885F30E4B2001BDFF8281D60
:10141000888001214FF4807004F060FB10E0DFF859
:10142000180D0068DFF8101D89880144DFF8080DE9
:10143000C088C0B201F0F7FC0020DFF8FC1CC880B7
:1014400004F0D8FF12E09DF80100C0F34000C0B2E4
:10145000002802D0FFF7EEF808E09DF80300C0F383
:101460004010C0B2002801D003F010FB9DF800002E
:10147000C0F38010C0B200280BD004F088FB00211C
:101480004FF4007004F02AFB672001F0D1FD00F05A
:1014900003F813BDE010002080B50020DFF89C1C8D
:1014A0000870712001F0C4FD542004F09FFE01215A
:1014B0004FF4007004F012FB05F05CF9612001F0BC
:1014C000B7FD01BD10B50400DFF8080C4078012815
:1014D00015D0DFF8000C4078002810D0DFF8F40BAE
:1014E000407802280BD0DFF8EC0B4078032806D0B8
:1014F000DFF8E00B4078FF2801D0032050E0DFF850
:10150000D40B407801280ED1E4B2012C05D1002083
:10151000DFF8C01B81F8340013E00120DFF8B41BB2
:1015200081F834000DE0E4B2012C05D10120DFF890
:10153000A41B81F8340004E00020DFF8981B81F838
:101540003400DFF8900B90F83400FEF7F1FEDFF87E
:10155000840B0078072818D0DFF8780B007808286B
:1015600013D0DFF8700B00780B280ED0DFF8640B77
:1015700000780C2809D0DFF85C0B0078092804D02B
:10158000DFF8500B00780A2809D1E4B2012C03D10E
:10159000042005F02DF902E0002005F029F90020D3
:1015A00010BD0000000022C0000030400000F03FED
:1015B000481700204A1700203E170020421700203D
:1015C0000200107B0B7B98421DD190698B69984279
:1015D00019D110690B69984215D150694B6998422D
:1015E00011D150684B6898420DD190688B68984231
:1015F00009D1B2F90000B1F90030984203D1507B13
:101600004B7B984201D0012000E00020704702008F
:1016100090788B78984207D150784B78984203D1D4
:1016200010780B78984201D0012000E0002070472C
:101630004FF46160DFF89C1A8862DFF8980A4078FE
:10164000002805D10020DFF88C1A81F8340004E06E
:101650000120DFF8801A81F83400DFF8780A00787A
:10166000002814D0801E34D0401E012840F2EA80A9
:10167000801E00F08480801E012855D9801E01281C
:1016800040F20781801E012840F2B5803CE10A202B
:10169000DFF8401A8862DFF8A80ADFF8381A4860D5
:1016A000DFF8A00ADFF82C1A8860DFF89C0ADFF860
:1016B000241AC860DFF8940ADFF8181A88614FF41A
:1016C000AC70DFF8101A88830420DFF8081A8877D6
:1016D0001AE10A20DFF8FC198862DFF8640ADFF8F3
:1016E000F4194860DFF85C0ADFF8E8198860DFF871
:1016F000580ADFF8E019C860DFF8540ADFF8D41997
:101700000861DFF8500ADFF8CC194861DFF83C0ABD
:10171000DFF8C01988612D20DFF8B8198883082008
:10172000DFF8B0198877EFE00020DFF8A81988709B
:10173000DFF8240ADFF89C194860DFF8200ADFF898
:1017400094198860DFF8180ADFF88819C860DFF894
:10175000140ADFF880190861DFF8F809DFF8741956
:101760004861DFF8040ADFF86C1988610820DFF8A7
:10177000641988830020DFF85C198877C4E0DFF8FB
:101780005409407801280FD1DFF8E009DFF8441947
:101790004860DFF8DC09DFF83C198860DFF8D4091D
:1017A000DFF83019C8600EE0DFF89409DFF824197B
:1017B0004860DFF89009DFF81C198860DFF88809B5
:1017C000DFF81019C860DFF89C09DFF80819086114
:1017D000DFF88009DFF8FC184861DFF88C09DFF8D2
:1017E000F41888616020DFF8EC1888830820DFF89F
:1017F000E418887788E0DFF88009DFF8D8184860B7
:10180000DFF87809DFF8CC188860DFF87409DFF8B2
:10181000C418C860DFF83809DFF8B8180861DFF8C5
:101820003409DFF8B0184861DFF85809DFF8A41868
:1018300088611820DFF89C1888830020DFF894184E
:10184000887761E05FF08040DFF888184860DFF853
:10185000F008DFF880188860DFF82C09DFF87418CA
:10186000C860DFF8EC08DFF86C180861DFF8E408FE
:10187000DFF860184861DFF80C09DFF85818886154
:101880002D20DFF8501888830420DFF84818887767
:101890003AE0DFF84008407801280FD1DFF8A008CF
:1018A000DFF830184860DFF8280CDFF82818886067
:1018B000DFF89008DFF81C18C8600EE0DFF8A00819
:1018C000DFF810184860DFF89008DFF80818886023
:1018D000DFF88808DFF8FC17C860DFF87408DFF865
:1018E000F4170861DFF86C08DFF8E8174861DFF8E3
:1018F0007808DFF8E01788614820DFF8D817888378
:101900000020DFF8D01788777047000040170020CC
:1019100044170020281700204617002000005EC052
:101920003C17002024170020F0B599B0DFF8A40779
:101930004078012815D0DFF89C074078002810D0A7
:10194000DFF89007407802280BD0DFF8880740784E
:10195000032806D0DFF87C074078FF2801D000205C
:10196000B6E3012600270020ADF8040044F620600D
:10197000039000208DF81000DFF858070078002849
:1019800020D0012850D0022800F07F80032800F0EA
:10199000EE80042800F01C81052800F07E810728D5
:1019A00000F0C681082800F0C381092800F0658294
:1019B0000A2800F062820B2800F02A820C2800F02E
:1019C000378269E200208DF81100DFF8080B0290E1
:1019D0004FF4004005904CF250300690DFF8F80AC2
:1019E000079000208DF80000DFF8E806808BB0F546
:1019F000907F04DBDFF8DC06808B173800E04120A5
:101A00008DF80100DFF8CC06807F022808DBDFF8C4
:101A1000C406807F092803DADFF8B806807F00E07B
:101A200004208DF8020037E200208DF81100DFF865
:101A3000A40A02904FF4004005904CF250300690FA
:101A4000DFF8940A079002208DF80000DFF8840682
:101A5000808B182804DBDFF87C06808B0F3800E0D1
:101A60001E208DF80100DFF86C06807F022808DB5D
:101A7000DFF86006807F092803DADFF85806807FE8
:101A800000E008208DF8020006E200208DF8110029
:101A9000DFF84006808BB0F58B7F34DDDFF8340A49
:101AA00002904FF4004005904CF250300690DFF861
:101AB000280A079000208DF80000DFF81806808BB8
:101AC000B0F58B7F01DC412003E0DFF80806808B56
:101AD00017388DF80100DFF8FC05807F002804D05E
:101AE000DFF8F005807F092801DB012000E00020FD
:101AF000C0B2002801D0082002E0DFF8D805807FBE
:101B00008DF8020032E0DFF8CC0902904FF400407B
:101B100005904CF250300690DFF8BC090790DFF8D2
:101B2000B405808B0F388DF8010002208DF800007D
:101B3000DFF8A005808B182804DBDFF89805808B80
:101B40000F3800E01E208DF80100DFF88805807F47
:101B5000022808DBDFF87C05807F092803DADFF83C
:101B60007405807F00E008208DF8020094E10020D9
:101B70008DF81100DFF81C0B0290DFF81C0B0590AC
:101B80004CF250300690DFF8140B079006208DF8C9
:101B90000000DFF84005808B182804DBDFF83405EF
:101BA000808B133800E01A208DF80100DFF824053F
:101BB000807F022808DBDFF81C05807F092803DA14
:101BC000DFF81005807F00E004208DF8020063E15B
:101BD00000208DF81100DFF8FC0490F83400002894
:101BE0002DD0DFF8F00802904FF4004005904CF241
:101BF00050300690DFF8E008079002208DF80000D2
:101C0000DFF8D004808B182804DBDFF8C804808B51
:101C10000F3800E01E208DF80100DFF8B804807F47
:101C2000022808DBDFF8AC04807F092803DADFF83C
:101C3000A404807F00E004208DF802002CE0DFF88F
:101C4000540A0290DFF8500A05904CF2503006908A
:101C5000DFF8480A079006208DF80000DFF87404CA
:101C6000808B182804DBDFF86C04808B133800E0CD
:101C70001A208DF80100DFF85C04807F022808DB61
:101C8000DFF85004807F092803DADFF84804807FFA
:101C900000E004208DF80200FEE0DFF8380490F840
:101CA0003400002803D0DFF82C08029012E0DFF89F
:101CB0002404807804F092F90022DFF8E43904F07B
:101CC000B7FD5FF0C052DFF8DC3903F0B1FF04F07C
:101CD00065F9029000208DF811004FF496500590A0
:101CE00041F27070069044F62060079002208DF853
:101CF0000000DFF8E003808B302804DBDFF8D4033A
:101D0000808B273800E039208DF80100DFF8C4030C
:101D1000807F022808DBDFF8BC03807F092803DA14
:101D2000DFF8B003807F00E008208DF80200B3E008
:101D3000DFF8A0038078002808D0022826D015D329
:101D4000042843D032D3052850D05EE050208DF8CF
:101D50001100DFF8540902904FF4166006904FF41A
:101D6000FA5007904FF4965005904EE050208DF8B1
:101D70001100DFF8380902904FF4166006904FF416
:101D8000FA5007904FF4965005903EE050208DF8A1
:101D90001100DFF81C0902904FF4166006904FF412
:101DA000FA5007904FF4166005902EE050208DF801
:101DB0001100DFF8000902904FF4166006904FF40E
:101DC000FA5007904FF4166005901EE050208DF8F1
:101DD0001100DFF8E40802904FF4166006904FF40B
:101DE000FA5007904FF4965005900EE050208DF871
:101DF0001100DFF8080A02904FF4166006904FF4C5
:101E0000FA5007904FF4965005900220060043E0E8
:101E100000208DF81100DFF87C0802904AF6C870A7
:101E20000690DFF874080590DFF8080A079033E0A1
:101E3000A84890F8340000280FD050208DF81100E9
:101E4000DFF8F409029046F2A81006904CF25030E8
:101E50000590DFF8F80907900EE000208DF81100DA
:101E6000DFF8300802904AF6C8700690DFF82808BC
:101E70000590DFF8C00907900EE000208DF81100F2
:101E8000DFF8EC09029041F27C5006904FF41660A6
:101E9000059044F6206007908E48806B002802D0A1
:101EA0008C48806B059002988A49C96A081802908C
:101EB00001A9DFF8C809FFF783FB002809D001A8B2
:101EC00001F0C4FADFF8B40901A91C2201F0D0F82E
:101ED0007F1C8048006ADFF8A819096804F07AFDC1
:101EE0000CD07C48016A002002F004F97948006AAD
:101EF000DFF88C190860002002F03CF97548406A50
:101F0000DFF8C0190968884209D07248406A02F0B7
:101F1000CDFB7048406ADFF8AC1908607F1C6D4843
:101F20000078072803D06B480078082817D10025CF
:101F3000002004005FF0764005000CA8DFF8B81917
:101F4000102201F095F88DF831400D950CA804F0A1
:101F50004FFD4FF6F07004F010FE7F1C6DE05D4801
:101F600000780B2803D05B4800780C280ED114A809
:101F7000DFF89819102201F07BF814A804F038FD5E
:101F80004FF6F07004F0F9FD7F1C56E051480078E0
:101F9000032803D04F48007804281BD14D4890F8FF
:101FA0003400002816D14B484078012812D010A8E0
:101FB000DFF89419102201F05BF810A804F018FD66
:101FC0004FF6F07004F0D9FD0098DFF88019086032
:101FD0007F1C32E03F480078092803D03D48007854
:101FE0000A2817D10025002004005FF07640050084
:101FF00008A8DFF85C19102201F03AF88DF82140AA
:10200000099508A804F0F4FC4FF6F07004F0B5FD53
:102010007F1C12E0DFF834196846FFF7F8FA002851
:102020000BD0684604F0CEFD4FF6F07004F03FFE92
:102030000098DFF8181908607F1C264840780128AE
:1020400044D1DFF81009006803F0CAFD04000D0058
:10205000204880681F49496804F040FE03F0C0FD35
:102060000022DFF8F43803F0E3FD22002B0004F037
:10207000A9FE2BD0174880681649496804F02EFE47
:1020800003F0AEFD0022DFF8D03803F0D1FD0400EC
:102090000D00300003F0A2FF22002B0004F0C8FB6B
:1020A00004F0A0FE02F06AF90A488068094949680C
:1020B00004F014FE03F094FD0022DFF89C3803F0D6
:1020C000B7FD04F08FFEDFF88C1808603800C0B24E
:1020D00019B0F0BD8C00002038B50400002501F0D7
:1020E000C5F80500EDB2012D02D10320207020E0DB
:1020F00004F080F9DFF864080078C0B24008C0B28C
:10210000032809D033280AD0402802D05F2809D0FC
:102110000BE0042020700CE00020207009E0022079
:10212000207006E00120207003E0052020700620CA
:1021300000E0002032BD0000E0160020571700200C
:1021400000004040000048420000A04000C82F4965
:102150000000FA440060EA460000C7420000C9429D
:102160000000C84200409C4580CBA44C00002041A8
:1021700000401C460000704100E0794400207A4491
:1021800000007A4400C8AF47000020407FB504003B
:10219000002501F06BF80500EDB2002D01D104F02F
:1021A00029F9E4B2002C12D0022C00F0F8802ED3D2
:1021B000042C00F0678180F08781EDB2002D01D101
:1021C00001F03EF80020DFF89C1708707CE1EDB2CA
:1021D000012D04D101F03AF801F089F816E0DFF89A
:1021E0007C070078C0B24008C0B2402803D162200A
:1021F00000F01EFF0AE0DFF864070078C0B2400874
:10220000C0B2332802D1672000F012FF5CE1EDB2CA
:10221000012D04D101F01AF801F069F820E0DFF88F
:102220004007007800280BD0DFF830070078C0B2F4
:102230004008C0B2402803D1622000F0F9FE0FE050
:10224000DFF81C07007800280AD0DFF810070078B4
:10225000C0B24008C0B2332802D1672000F0E8FEC7
:102260000020DFF8041708700120FFF72BF99B48C6
:1022700090F83C0000282CD0002001F0D9FFDFF8B6
:10228000EC06D0E90023CDE90223944890F84500FC
:102290008DF80900914890F8460000018DF80A0079
:1022A0008E4890F847008DF80B008C48B0F8480035
:1022B000ADF80C00894890F84A008DF80E0002A88D
:1022C00002F00AFA012002F04FFA8448006C02F092
:1022D000EDF982480078072818D08048007808284F
:1022E00014D07E4800780B2810D07C4800780C2849
:1022F0000CD07A480078092808D0784800780A2855
:1023000004D0DFF86C06808804F0D1FC722000F065
:102310008FFE03F03CFC002601969DF8040050F06F
:1023200004008DF804009DF8050050F008008DF8B9
:10233000050001A803F0B6FBDFF8340680886128A9
:1023400019DB302003F063FF01214FF4807003F0AC
:10235000C5FBDFF81C060168602000F064FDDFF8B3
:10236000100680886038DFF80816C8806020DFF823
:102370000016888008E0DFF8F8050168DFF8F0054E
:102380008088C0B200F04FFDDFF8D4050078002847
:1023900004D004F0C5F9602000F04AFE94E0EDB2EC
:1023A000012D04D100F052FF00F0A1FF1FE0DFF883
:1023B000B005007800280BD0DFF8A0050078C0B287
:1023C0004008C0B2402803D1622000F031FE0EE088
:1023D000DFF88C050078002809D0DFF88005007848
:1023E000C0B24008C0B2332801D100206DE0002007
:1023F000DFF8801508700020DFF87C1508700020D9
:10240000FFF760F84FF6F07004F051FC542003F031
:10241000EDFE712000F00CFE002600969DF80100F4
:1024200050F002008DF801009DF8000050F04000CF
:102430008DF80000012002F0DFF8284840780128DC
:1024400009D1042002F0A1F89DF8030050F020000B
:102450008DF8030002E0022002F097F8684603F0CE
:1024600021FB03F094FB0020DFF810150870DFF863
:10247000F0040078002804D004F07CF9612000F01A
:10248000D7FD21E0EDB2012D04D100F0DFFE00F018
:102490002EFF16E0DFF8C4040078C0B24008C0B2D6
:1024A000402803D1622000F0C3FD0AE0DFF8AC044D
:1024B0000078C0B24008C0B2332802D1672000F0D3
:1024C000B7FD632000F0B4FD002004B070BD000033
:1024D00000007A45E034C133F04902008C0000204E
:1024E0002DE9F04104000D001600A046DFF890042D
:1024F0000660DFF890040078072804D0DFF8840431
:102500000078082832D102F02EFD002805D1B8F15C
:1025100001088D2088F8000008E002F024FD012861
:1025200004D1B8F10108722088F80000B8F1010860
:10253000F62088F8000000200700BFB2022F0ADA58
:10254000B4EB0800142804DAB8F10108552088F823
:1025500000007F1CF1E7DFF81804C0F80080B4EB3E
:1025600008004019DFF80814888089E0DFF81404B7
:1025700000780B2804D0DFF80C0400780C283CD13C
:1025800002F0F1FC002805D1B8F10108CD2088F84F
:10259000000008E002F0E7FC012804D1B8F10108CE
:1025A0003D2088F80000B8F10108542088F80000A8
:1025B000B8F101083D2088F80000B8F10108542066
:1025C00088F8000000200700BFB2042F0ADAB4EB3D
:1025D0000800142804DAB8F10108552088F8000032
:1025E0007F1CF1E7DFF88803C0F80080B4EB080037
:1025F0004019DFF87C13888042E0DFF88803007818
:10260000092804D0DFF87C0300780A2832D102F0D0
:10261000AAFC002805D1B8F101088D2088F8000037
:1026200008E002F0A0FC012804D1B8F101087220F2
:1026300088F80000B8F10108F62088F800000020B2
:102640000700BFB20A2F0ADAB4EB0800142804DA34
:10265000B8F10108552088F800007F1CF1E7DFF889
:102660001003C0F80080B4EB08004019DFF8001335
:10267000888005E0DFF8F8020460DFF8F402858066
:102680000120FFF783FD002801D1002000E00B208E
:10269000BDE8F081F01FCB33A086010090D003008D
:1026A0000088C3408BDEC9412AEF180AFE1F190AB1
:1026B000D250190AA681190A7AB2190A38B504004B
:1026C0000D00E4B22000022824D0062800F0868005
:1026D000072800F08980092825D00A282CD00B284B
:1026E00036D00C2840D00D282FD0102845D01128E6
:1026F0004CD0122853D0132855D0142856D0152862
:1027000058D016285AD017285CD018285ED019281F
:1027100060D06FE09B48857092480078002801D017
:10272000FDF796FE68E0974885838E48007800287C
:1027300001D0FDF78DFE5FE09248857789480078EB
:10274000002801D0FDF784FE56E08E48856253E0F4
:10275000280003F02BFA8B49086282480078002891
:1027600001D0FDF775FE47E0864845627D48007858
:10277000002801D0FDF76CFE3EE08248C562794832
:102780000078002801D0FDF763FE35E07D488563C1
:1027900074480078002801D0FDF75AFE2CE07948F3
:1027A00080F83C5028E07748056425E0754880F8BB
:1027B000445021E0734880F845501DE0714880F88E
:1027C000465019E06F4880F8475015E06D48A0F872
:1027D000485011E06B4880F84A500DE0280003F0A3
:1027E000EFF96849086107E0280003F0E9F9654955
:1027F000486101E00F2000E0002032BD4EE3190ADD
:1028000060480078801E07D0801E012804D9001F70
:10281000022801D9001F01D1012000E000207047EB
:1028200080B55848406804F025FB0A21484302BDA2
:1028300000000000400D030008E6D33380B5514886
:10284000806804F017FB0A21484302BDC0D4010090
:1028500080B54C48006904F00DFB0A21484302BDD5
:1028600080B54848406904F005FB0A21484302BD91
:102870006091DB1944480088C0B27047BC16002044
:102880001817002010B400204049414A414B1B88D2
:10289000142463431A441269895C08003C493D4A88
:1028A000128814235A4311440969491CC905C90DEA
:1028B000374A384B1B88142463431A441161C0B251
:1028C00010BC704720170020314832490988142273
:1028D0005143405A70472E482E49098814225143CB
:1028E0000844406870472A482A49098814225143FD
:1028F0000844807870470000B095000824482549B6
:102900000988142251430844007B704790950008C1
:102910001F482049098814225143084480687047A1
:102920001948008800280ED01A480088401C0A2147
:1029300090FBF1F201FB1200164908801248008852
:10294000401E114908807047A09500081417002008
:10295000C09500081C1700200000E03FF81600207A
:10296000DB0000205C170020581700200C960008A0
:10297000E0160020591700205A1700205717002092
:10298000241700208C0000203C170020E0100020BD
:10299000341500203A17002062F30F2262F31F4221
:1029A000401810F0030308D0C91A1FD3DB0748BF33
:1029B00000F8012D28BF20F8022D130030B4144672
:1029C0001546103928BF20E93C00FAD8490728BF2E
:1029D00020E90C0048BF40F8042D890028BF20F8EA
:1029E000022D48BF00F8012D30BC7047C91818BF30
:1029F00000F8012DCB0728BF00F8012D70478D4E40
:102A000080B5DFF8AC0504F0FAFC00283AD1DFF815
:102A1000A405DFF89C1508600820DFF89415C8614C
:102A20000020DFF88C1588600020DFF884154861ED
:102A30000020DFF87C1508610020DFF8741588623B
:102A40000720DFF86C15C8620020DFF86415C86045
:102A50000020DFF85C1508624FF40070DFF85015B5
:102A600088610020DFF8481548624FF48270DFF873
:102A700040154860DFF8380500F005F8DFF830054C
:102A800004F03DFD01BD10B586B004002068DFF8FC
:102A9000241588427CD1DFF82005006850F0020040
:102AA000DFF814150860DFF81005006810F0020068
:102AB00000900098DFF80005006850F00100DFF892
:102AC000F8140860DFF8F004006810F001000090CE
:102AD0000098DFF8E404006850F00100DFF8D81433
:102AE0000860DFF8D404006810F00100009000983E
:102AF00002200290012003900320049005200590FD
:102B00000820019001A9DFF8B40404F03FFD022081
:102B1000029002200390032004900520059040209D
:102B2000019001A9DFF8980404F030FD80200190A5
:102B300001A9DFF88C0404F029FDDFF87C040068AB
:102B400050F00200DFF870140860DFF86C040068D1
:102B500010F00200009000984020019001200290A7
:102B6000012003900320049001A9DFF8500404F031
:102B70000DFDDFF85004006850F48050DFF8441475
:102B80000860DFF84004006810F48050009000985E
:102B900006B010BD11B581B00024DFF81404006840
:102BA00080688007F9D5DFF820040368012201A9B5
:102BB000DFF8FC0304F08BF90400E4B2002C01D030
:102BC00000F001F813BD80B5DFF8E40304F064F908
:102BD000FFF716FF01BD2DE9FC4104000D001600B2
:102BE0000020ADF806000020ADF8040001AF002081
:102BF0008DF806008DF807400023042204210320ED
:102C000000F0C8FA00224021DFF8B00304F0B3FD61
:102C10000020ADF80000BDF80000FF2805DCBDF87D
:102C20000000401CADF80000F5E7DFF89C030068E9
:102C30000090012301AA0DF10601DD4804F02DFAF0
:102C4000BDF804000002ADF80400DFF87C03006862
:102C50000090012301AA0DF10701D54804F01DFAE7
:102C60005FF00008EDB2A84506DA16F80800FFF795
:102C700091FF18F10108F5E7CD48006880688007EA
:102C8000FAD501224021CD4804F075FD012304222C
:102C90000421032000F07EFA388800900098BDE8F7
:102CA000F6812DE9F04184B004000D0016000020EB
:102CB000ADF8040001AF0020ADF80800FF208DF84A
:102CC000060001208DF808008DF809400023042239
:102CD0000421032000F05EFA00224021B74804F0EE
:102CE0004AFD0020ADF80000BDF80000FF2805DC1B
:102CF000BDF80000401CADF80000F5E7B2480068E0
:102D00000090012301AA02A9A94804F0C6F9BDF860
:102D100004000002ADF80400AB48006800900123F5
:102D200001AA0DF10901A24804F0B7F95FF000080B
:102D3000EDB2A8450DDAA44800680090012306EB27
:102D400008020DF106019A4804F0A7F918F10108EC
:102D5000EEE79748006880688007FAD50122402195
:102D6000964804F008FD012304220421032000F00A
:102D700011FA38880090009804B0BDE8F08130B5B1
:102D800083B004000020ADF806000020ADF8040078
:102D900001AD80208DF806008DF807400023042245
:102DA0000421032000F0F6F900224021834804F0BA
:102DB000E2FC0020ADF80000BDF80000FF2805DCB3
:102DC000BDF80000401CADF80000F5E77E48006843
:102DD0000090012301AA0DF10601754804F05DF988
:102DE000BDF804000002ADF80400774800680090C8
:102DF000012301AA0DF107016D4804F04EF96C485A
:102E0000006880688007FAD5012240216B4804F0F1
:102E1000B2FC012304220421032000F0BBF928881E
:102E2000009000983EBDF0B583B004000D00002076
:102E3000ADF8040001AE0020ADF8060000208DF8CA
:102E40000600FF208DF80700002304220421032040
:102E500000F0A0F900224021584804F08CFC00202A
:102E6000ADF80000BDF80000FF2805DCBDF800004B
:102E7000401CADF80000F5E75348006800900123BE
:102E800001AA0DF106014A4804F007F9BDF8040053
:102E90000002ADF804004C4800680090012301AA2C
:102EA0000DF10701424804F0F8F80027E4B2A74208
:102EB00004DAE85DFFF76EFE7F1CF7E73C48006828
:102EC00080688007FAD5012240213C4804F053FC79
:102ED000012304220421032000F05CF930880090D3
:102EE0000098FEBDFEB504000D000020ADF8040002
:102EF00001AEFF208DF8060001208DF80800FF20AC
:102F00008DF80900002304220421032000F042F977
:102F100000224021294804F02EFC0020ADF80000DA
:102F2000BDF80000FF2805DCBDF80000401CADF82E
:102F30000000F5E7244800680090012301AA02A9D7
:102F40001B4804F0AAF8BDF804000002ADF8040024
:102F50001D4800680090012301AA0DF109011448E1
:102F600004F09BF80027E4B2A7420CDA1648006888
:102F70000090012305EB07020DF106010C4804F057
:102F80008CF87F1CEFE70A48006880688007FAD554
:102F900001224021094804F0EEFB01230422042110
:102FA000032000F0F7F8308800900098FEBD000084
:102FB000FC150020003001401C3802400004024093
:102FC00000000240203802402800002003000020BA
:102FD00013F0030F09D0521E22BF13F8010B11F892
:102FE00001CBB0EB0C00F3D07047121F22BF53F897
:102FF000040B51F804CB6045F7D0121D0AD200BA79
:103000009CFA8CFCB0EB0C0038BF6FF0000088BF5E
:1030100001207047521E22BF13F8010B11F801CB9B
:10302000B0EB0C00F6D0521C08BF104670471000E1
:1030300010B582B004002000C0B2FFF7A0FE0090DF
:103040000248BDF80010018013BD00BFF816002033
:1030500062B38B0708D0521E11F8013B00F8013B08
:1030600000F024808B07F6D1830740F0208000BF5A
:10307000103A07D330B4B1E83810103AA0E838104D
:10308000F9D230BC530724BFB1E80810A0E80810FB
:1030900044BF51F8043B40F8043BD20724BF31F849
:1030A000022B20F8022B44BF0B7803707047083ABC
:1030B00007D3B1E80810083A40F8043B40F804CBC5
:1030C000F7D25307E4E7200030B587B004000D00C5
:1030D0005448006850F001005249086051480068A7
:1030E00010F00100009000984E48006850F0040075
:1030F0004C4908604B48006810F0040000900098AC
:103100004848006850F00200464908604548006899
:1031100010F0020000900098EDB2022D02D10120C3
:10312000029001E0002002903F48E4B230F8140021
:1031300001903E48E4B250F8240003903C48E4B2C9
:1031400050F82400049001A93A48E4B250F8240051
:1031500004F01CFAEDB2012D1AD13348E4B230F874
:10316000140001903148E4B250F824000390304834
:10317000E4B250F8240004902F48E4B250F8240040
:10318000029001A92B48E4B250F8240004F0FEF9A3
:1031900007B030BDF8B504000D0016001F00F6B2F0
:1031A0003200EDB229002548E4B2005740B204F0E5
:1031B0008FFBFFB2002F06D12048E4B2005740B287
:1031C00004F0A0FB05E01D48E4B2005740B204F053
:1031D00092FBF1BD10B504001348E4B230F81410AE
:1031E0001448E4B250F8240004F0B9FA01000E4883
:1031F000E4B230F81400014201D0012000E00020C8
:1032000010BD38B504000D002A00D2B20648E4B261
:1032100030F814100748E4B250F8240004F0ABFA78
:1032200031BD00001C380240E09500085C950008A4
:1032300048950008000000207095000814960008CA
:1032400080B501210420FFF7DCFF01BD80B500211E
:103250000420FFF7D6FF002000900098B0F5F05F43
:1032600003D20098401C0090F7E701BD80B5042010
:10327000FFF7B0FF02BD002080B502210420FFF758
:1032800023FFFFF7BDFBFFF7DBFFFFF7DFFF00F0DA
:1032900013F800F02CF801210320FFF715FF00239D
:1032A000042204210320FFF775FF012304220421D7
:1032B0000320FFF76FFF01BD80B500208DF80000EF
:1032C0009DF80000FF2805D09DF80000401C8DF8F7
:1032D0000000F5E703F08EF846480078C0B24008D9
:1032E000C0B20328E9D1444801F040F801BD10B54F
:1032F00088B000F039F80400E4B2012C1DD101209F
:1033000004F026FB01208DF800006A460121B6205A
:10331000FFF761FC39480068069006A800F07EF8C7
:1033200037480068059005A800F078F8354800682F
:10333000049004A800F072F814E0E4B2022C11D159
:1033400031480068039003A800F068F82F4800682F
:10335000029002A800F062F82D480068019001A8D0
:1033600000F05CF808B010BD2A480078704780B5BE
:1033700020480078C0B24008C0B2332802D167208C
:10338000FFF756FE03F0F6F96120FFF751FE01BD8D
:1033900070B504000D00002602F006FF28702878A2
:1033A000060021003000C0B2FFF79CFD7120FFF73E
:1033B0003FFE70BD38B504000D000E480078C0B265
:1033C0004008C0B2332802D16720FFF731FE7220D7
:1033D000FFF72EFE21002800C0B2FFF724FD03F006
:1033E0009FF96020FFF724FE31BD0B48006870474D
:1033F00000000000F816002080F0FA02189600087D
:103400001C960008209600082496000828960008BC
:103410002C96000850170020EC1600201CB5040064
:1034200000208DF800006078A17808438DF8000036
:103430006A4601212078FFF7CEFB01900248BDF8D3
:103440000410018013BD0000F8160020F0B587B00D
:103450000400A0208DF803000DF1030201219F203C
:10346000FFF7B9FBB4F9000002F0A0FB07006068A9
:1034700002F0A6FB390004F08FFADFF8441702F0DF
:103480003BFF04F0F5FA05006320FFF778FC00200D
:103490008DF800009DF80000FF2805D09DF8000081
:1034A000401C8DF80000F5E702F0A4FFDFF84808A3
:1034B0000078C0B24008C0B24028E8D1DFF83C082C
:1034C0000068DFF80017884203D2002000F010FFE8
:1034D00002E0012000F00CFF6220FFF750FC00200A
:1034E0008DF800009DF80000FF2805D09DF8000031
:1034F000401C8DF80000F5E702F07CFFDFF8F807CC
:103500000078C0B24008C0B20328E8D1280002F019
:103510004DFB5FF0914104F03FFA0700DFF8DC0754
:10352000006802F04DFB0100380002F0E5FE04F0F7
:103530009FFA060036B2301210F00F008DF8160018
:1035400030008DF81700A0684002DFF8B017096856
:103550008909B0FBF1F0401C8DF81400606803F09D
:103560001DF90DF101020121A320FFF79AFB9DF83F
:10357000010010F0FD008DF801000DF101020121A4
:10358000A320FFF728FB03AA0DF10D01206900F02D
:103590001BFB9DF80D008DF81000607B9DF80C1052
:1035A00008438DF811000DF1010201211C20FFF7E5
:1035B00078FB0DF106020DF10701606900F048FC8F
:1035C0009DF806009DF8011011F0080151EA001065
:1035D0009DF8071008438DF8120001AA0DF10501AE
:1035E000A06900F093FB9DF805009DF8041051EAD6
:1035F00000108DF81300DFF804070068000B02F0DC
:10360000DFFA0100DFF8F80602F076FEDFF8F416C4
:1036100004F050FA0700380003F02CFC02F0D0FA56
:103620000100380003F05AFBDFF8DC1604F084FADE
:1036300006D8380004F01CFA401C8DF8020004E0A3
:10364000380003F017FC8DF80200DFF8B0060068C0
:10365000DFF87015884204D29DF802008DF815003D
:1036600027E0DFF898060068400B02F0A9FA010095
:10367000DFF88C0602F040FEDFF8881604F01AFA34
:103680000700380003F0F6FB02F09AFA0100380058
:1036900003F024FBDFF8701604F04EFA04D838006B
:1036A00004F0E6F9401C02E0380003F0E3FB8DF87B
:1036B00015000DF1020201210720FFF78CFA02909C
:1036C000DFF83406BDF808100180DFF83006006826
:1036D000DFF8741788420ED3DFF820060068400830
:1036E000DFF86817884201D3012000E00020C0B253
:1036F00000F045F80CE0DFF804060068DFF84C172E
:10370000884201D3012000E00020C0B200F037F869
:1037100014F10C0201216C20FFF75DFA05AA0421C7
:103720000C20FFF758FA04AA04211A20FFF753FAD5
:103730000290DFF8C405BDF808100180012000F0F8
:1037400039FD80208DF81400E3208DF8150005AABE
:1037500002219920FFF73FFA0290DFF89C05BDF89F
:103760000810018022208DF8140005AA0121BC2038
:10377000FFF731FA606800F01DF907B0F0BD1CB525
:10378000040000208DF800006A4601210120FFF7A7
:1037900088FA0190DFF86005BDF804100180E4B2FA
:1037A000012C06D19DF8000050F040008DF800007B
:1037B00005E09DF8000010F0BF008DF800006A469B
:1037C00001210120FFF707FA0190DFF82C05BDF871
:1037D0000410018013BD30B401000020002200233A
:1037E000DFF85047A14206D3DFF84C47A14202D28E
:1037F000062423001FE0DFF84447A14206D3DFF888
:103800004047A14202D20C24230014E0DFF83447E1
:10381000A14206D3DFF83047A14202D21024230090
:1038200009E0DFF82847A14205D3DFF82447A14289
:1038300001D2202423004FF47A74B1FBF4F4DBB2FC
:103840005C432200DFF80C47E48B4FF47A756C433D
:10385000A24202D30F24200014E00024200040B232
:103860000F280BDADFF8EC4640B234F810404FF482
:103870007A756C43944201D2401CF0E740B20028B4
:1038800000D0401E40B2082490FBF4F504FB150064
:10389000C0B230BC704700B583B06A46042108202E
:1038A000FFF7FFF90190DFF85004BDF80410018024
:1038B0009DF8000010F01F009DF80110490311EB66
:1038C00040509DF8021010EB41109DF8031010EBD2
:1038D000D1000EBD00B583B06A4601210B20FFF771
:1038E000E0F90190DFF81004BDF8041001809DF8A4
:1038F000000010F00700012801D1002010E09DF821
:10390000000010F00700032801D1012008E09DF815
:10391000000010F00700042801D1022000E003207D
:103920000EBD00B583B06A4601216C20FFF7B9F9DE
:103930000190DFF8C403BDF8041001809DF8000079
:103940000EBD00B583B06A4601210C20FFF7A9F92E
:103950000190DFF8A403BDF8041001809DF8000079
:10396000DFF8981309684843C00B0EBD1CB56A46C2
:1039700002210E20FFF795F90190DFF87C03BDF8D6
:10398000041001809DF800009DF8011011EB00214A
:10399000080502D551F4704101E00905090D0C003C
:1039A00024B2D648006800FB04F05FF4802290FB4C
:1039B000F2F016BD2DE9F04F87B004000025DFF8C6
:1039C0007405844206D3DFF87005844202D20020D9
:1039D00005001FE0DFF86405844206D3DFF86005C8
:1039E000844202D20120050014E0DFF85805844229
:1039F00006D3DFF85405844202D20220050009E014
:103A0000DFF84805844205D3DFF84405844201D23B
:103A100003200500FFF7AAFF8146FFF792FF8046CB
:103A2000FFF77FFF060019EB0400F6B206FB080063
:103A3000824600F043FC471CEDB2002D28D0022D39
:103A40000ED019D3032D2ED1DFF8DC06824503D228
:103A5000002004F001F902E0012004F0FDF822E06A
:103A6000DFF8C806824503D2002004F0F5F802E032
:103A7000012004F0F1F816E0DFF8B406824503D225
:103A8000002004F0E9F802E0012004F0E5F80AE083
:103A9000DFF8A006824503D2002004F0DDF802E042
:103AA000012004F0D9F85046FFF795FE8DF810007C
:103AB000DFF87004EDB2405D00FB04F002F08EFA16
:103AC000CDE90201FFB25FF4802000FB07F002F0B5
:103AD0007BFACDE900018948006802F07FFA020014
:103AE0000B00DDE9000102F017F9DDE9022302F025
:103AF0009FFE02F053FA83465FEA5B5010F01F000E
:103B00009DF81010490108438DF814005FEA5B30FE
:103B10008DF815005FEA5B108DF81600DFF83804A9
:103B2000EDB2405D50EACB008DF8170005AA0421E4
:103B30000820FFF750F800906F48BDF80010018092
:103B4000DFF86C060078012802D102F030FD00E0B9
:103B5000002007B0BDE8F08F2DE9F047FFF79BFE8E
:103B60008246FFF7B7FE070000F0A8FB461C504650
:103B700002F034FA804689466048006802F02EFA66
:103B800004000D00F6B2DFF89C03FFB2C05D00FB3D
:103B900006F05FF48021484302F016FA02000B00A1
:103BA0002000290002F0B8F842464B4602F040FEE1
:103BB00004F076F802F0F2F9BDE8F08700000000AA
:103BC0000024744980C3C9012DE9FE4305000E009D
:103BD000170000208DF808000F245FF0000900F0A6
:103BE000A9FB81469DF80800002812D164B2002C80
:103BF0000FD4DFF834030068D4F1140119EB01018C
:103C0000C840854203D301208DF80800EAE7641E0E
:103C1000E8E764B2002C02D5002464B200E064B28C
:103C20003C700120D4F11701884000FB05F0DFF85B
:103C3000F812096819F10502D140B0FBF1F0804695
:103C40000020C0B2032825DA5FFA88F8C0B210EB72
:103C50000801491E002915D05FFA88F8C0B210EBA0
:103C60000801FF31DFF8C022126819F10503DA40BC
:103C70005143D4F11702D140691A6A46C0B222F802
:103C8000101005E047F6FF716A46C0B222F8101026
:103C9000401CD6E74FF6FF700021C9B2032928DA8D
:103CA0006A46C9B232F91120012A04DB6A46C9B258
:103CB00032F9112004E06A46C9B232F911205242A9
:103CC00080B2824213DA6A46C9B232F91120012A5F
:103CD00004DB6846C9B230F8110004E06846C9B296
:103CE00030F91100404211EB0802521E3270491C9B
:103CF000D3E7BDE8F7830000F8160020F416002093
:103D000020D5AF49000080C20100003F2DE9F043FB
:103D100083B005000E0017005FF0010900F00AFBF8
:103D2000002802D00220814601E0012081467E4821
:103D300000685FFA89F9B0FBF9F06421B0FBF1F09B
:103D400000210C0064B25A2C0CDA794964B231F8C3
:103D50001410414340F62822B1FBF2F18D4201D20A
:103D6000641CEFE764B2002C60D0A0460021C9B209
:103D700003292CDA4FFA88F8C9B211EB0802521E57
:103D8000002A07D54FFA88F8C9B211EB0802521E73
:103D90005A2A14DA664A4FFA88F8C9B211EB0803B6
:103DA00002EB430232F8022C424340F62823B2FBD6
:103DB000F3F2AA1A6B46C9B223F8112005E047F6C0
:103DC000FF726B46C9B223F81120491CCFE74FF6AA
:103DD000FF710022D2B2032A28DA6B46D2B233F93D
:103DE0001230012B04DB6B46D2B233F9123004E0FF
:103DF0006B46D2B233F912305B4289B28B4213DA8E
:103E00006B46D2B233F91230012B04DB6946D2B2D1
:103E100031F8121004E06946D2B231F91210494269
:103E200012EB08035B1E1C00521CD3E764B209218D
:103E300094FBF1F1397064B2092194FBF1F201FBBA
:103E400012413170BDE8F78381C3C90140787D011B
:103E50002DE9F04F83B004008B469246002532488E
:103E6000006801F0ADFE5FF0914102F045FA0600F6
:103E700000200700FFB20A2F17DA0120B84002F035
:103E8000A3F80022DFF8783302F0D2FC02F086F8C3
:103E900001F096FE310003F07FFD02F0EBFF019090
:103EA0000198844201D37F1CE4E78AF80070002067
:103EB0000700FFB2082F27DA0095FFB2380002F0A2
:103EC0008DF80022194B01F0B3FE00225FF0804311
:103ED00001F022FF8046894601209AF900108840AF
:103EE00002F072F842464B4602F0A2FC02F056F88D
:103EF00001F066FE310003F04FFD02F0BBFF05004C
:103F0000AC4201D37F1CD4E78BF800700098201AD4
:103F1000291B884204D29BF80000401E8BF8000049
:103F2000BDE8F78F38960008F41600200000204006
:103F3000B490000880565F2EE12F0C3980E4011701
:103F4000616A141CC060D211E1D7CE14408FE10821
:103F500061D06F0AE49400083C9600082DE9F8430C
:103F600004000D000027DFF89C0284420CD3DFF828
:103F70009802844208D200200600DFF890028442B2
:103F800022D2012006001FE0DFF88402844206D31B
:103F9000DFF88002844202D20220060014E0DFF83B
:103FA0007802844206D3DFF87402844202D20320EE
:103FB000060009E0DFF86802844205D3DFF86402F6
:103FC000844201D2042006000120070028000021BD
:103FD00003F0B2FD29D2DFF85002DFF85012F6B23A
:103FE000182202FB06F21144896802F085F9814625
:103FF000DFF83802F6B2182101FB06F10844C06868
:10400000DFF82812F6B2182202FB06F21144896882
:1040100002F072F90100484602F060FE290003F048
:1040200061FE02D2002007002EE02800002103F0EC
:1040300059FE29D8DFF83C02DFF8F011F6B2182259
:1040400002FB06F21144896802F056F98146DFF856
:10405000DC01F6B2182101FB06F10844C068DFF864
:10406000CC11F6B2182202FB06F21144896802F064
:1040700043F90100484602F031FE0100280003F038
:1040800031FE01D202200700DFF8A001F6B21821AC
:1040900001FB06F10844FFB250F83700290003F095
:1040A0007BFCDFF88811F6B2182202FB06F21144FD
:1040B000FFB27A0001EB8201496803F0FBFC804605
:1040C00040465FF07E5103F00DFE03D25FF07E505C
:1040D000804608E04046DFF8141203F02DFD02D8B8
:1040E000DFF884028046404603F0C2FCC0B2BDE85F
:1040F000F28300007CB504000D00FFF72DFD2900C0
:10410000FFF72CFF8DF80000D4F1170006006A4677
:1041100001213000C0B2FEF75EFD0190DFF85402CD
:10412000BDF80410018073BDE2F49C09C4E93913A1
:10413000068DA2190B1A45331CB504006A460121ED
:104140001820FEF7AEFD9DF8000010F03F008DF83E
:1041500000009DF8000020438DF800006A46012110
:104160001820FEF738FD0190DFF80802BDF80410B2
:10417000018013BD1CB504006A4601211820FEF71A
:1041800090FD9DF8000010F0F8008DF800009DF8FB
:10419000000020438DF800006A4601211820FEF738
:1041A0001AFD0190DFF8CC01BDF80410018013BDA9
:1041B000D90000201CB5040000208DF800006A46DC
:1041C00001211E20FEF76DFDE4B2012C06D19DF801
:1041D000000050F080008DF8000005E09DF8000020
:1041E00010F07F008DF800006A4601211E20FEF7C6
:1041F000F2FC0190DFF87C01BDF80410018013BDD2
:1042000000001E4080565F2EE12F0C3900E9A435D6
:1042100080E40117616A141CC060D211E1D7CE148A
:10422000408FE10861D06F0A00005041C092000841
:104230001CB504006A4601212720FEF732FDE4B2D6
:10424000012C06D19DF8000050F010008DF8000000
:1042500005E09DF8000010F0EF008DF800006A46C0
:1042600001212720FEF7B7FC01904248BDF8041059
:10427000018013BD000020421CB504006A460121E4
:104280009E20FEF70EFDE4B2012C06D19DF8000041
:1042900050F080008DF8000005E09DF8000010F05F
:1042A0007F008DF800006A4601219E20FEF793FCF6
:1042B00001903048BDF80410018013BD00B583B0F3
:1042C0006A4601219E20FEF7ECFC01902948BDF8CA
:1042D000041001809DF80000C0B2C009C0B20028DF
:1042E00001D0012000E000200EBD00000100B4421A
:1042F0001CB504006A460121B420FEF7D2FCE4B2EA
:10430000012C06D19DF8000010F0F7008DF8000098
:1043100005E09DF8000050F008008DF800006A46A6
:104320000121B420FEF757FC01901248BDF804109B
:10433000018013BD00B583B06A460121B420FEF7A9
:10434000B0FC01900B48BDF8041001809DF80000FE
:10435000C0F3C000C0B2002801D0002000E001205E
:104360000EBD0548006870470000B442024908606D
:1043700070470000F8160020F41600201CB5040059
:104380006A460DF10101200000F01AF86A46022188
:104390005320FEF720FC0190DFF85002BDF8041016
:1043A000018013BD01B582B002AA01215420FEF79D
:1043B00012FC0090DFF83402BDF80010018007BD48
:1043C0002DE9F04704000D001600FFF7CAFF8146F3
:1043D0008748814501D35FEA5909484601F0F0FB5F
:1043E000210003F0D9FA834901F086FF02F042FD73
:1043F0000700FF20B7FBF0F0FE2804D3FF20287051
:10440000FF203070BFE0FF20B7FBF0F0801C307061
:104410003078B7FBF0F02870287801F0D1FB8246A5
:10442000307801F0CDFB514603F0B6FA714903F044
:10443000B3FA8246484601F0C3FB0100504601F042
:104440005BFF210002F04AFC002103F075FB19D24A
:10445000287801F0B5FB8046307801F0B1FB414689
:1044600003F09AFA634903F097FA8046484601F050
:10447000A7FB0100404601F03FFF210002F02EFCA7
:10448000804619E0287801F09BFB8046307801F0E7
:1044900097FB414603F080FA564903F07DFA8046C7
:1044A000484601F08DFB0100404601F025FF010068
:1044B000200002F013FC80462878FF2857D0287887
:1044C000401C01F073FB8246307801F079FB5146C5
:1044D00003F062FA474903F05FFA8246484601F06A
:1044E0006FFB0100504601F007FF210002F0F6FBD0
:1044F000002103F021FB19D22878401C01F056FB63
:104500008246307801F05CFB514603F045FA3949A8
:1045100003F042FA8246484601F052FB0100504641
:1045200001F0EAFE210002F0D9FB19E02878401CD6
:1045300001F03CFB8246307801F042FB514603F02B
:104540002BFA2C4903F028FA8246484601F038FB42
:104550000100504601F0D0FE0100200002F0BEFB39
:10456000414603F0BFFB02D22878401C2870307807
:10457000401E30702878022803DB2878401E2870FF
:1045800001E001202870BDE8F0871CB504006A46F0
:1045900002214F20FEF785FB01901448BDF804105E
:1045A00001809DF8000010F0BF008DF800009DF81C
:1045B0000000E10011F0400108438DF800009DF873
:1045C000010010F01F008DF801009DF8010050EA75
:1045D00044108DF801006A4602214F20FEF7FBFAD5
:1045E00001900248BDF80410018013BDF8160020A8
:1045F00081C3C90180B493491CB504006A460121F6
:104600003A20FEF74EFB0190DFF8C800BDF8041019
:104610000180E4B2012C06D19DF8000050F00200A8
:104620008DF8000005E09DF8000010F0FD008DF809
:1046300000006A4601213A20FEF7CDFA0190DFF82A
:104640009400BDF80410018013BD1CB504006A4637
:1046500001213A20FEF725FB01901E48BDF8041009
:1046600001809DF8000010F03F008DF800009DF8DB
:10467000000020438DF800006A4601213A20FEF731
:10468000AAFA01901348BDF80410018013BD00B5CB
:1046900083B06A460121C820FEF703FB01900D4854
:1046A000BDF8041001809DF800000EBD1CB504008B
:1046B00020007E38C0B240008DF800006A4601211B
:1046C0002220FEF788FA01900248BDF8041001800C
:1046D00013BD0000F816002010B584B00400A088B7
:1046E00080B2000A8DF80400A0888DF80500A0793A
:1046F000617851EA80008DF80600A078E1780843DF
:104700008DF8070002AA01215120FEF7CAFA009095
:10471000DFF8A400BDF8001001802078012806D140
:104720009DF8080050F002008DF8080005E09DF8A3
:10473000080010F0FD008DF8080002AA01215120A8
:10474000FEF749FA0090DFF87000BDF80010018014
:1047500001AA04216420FEF73EFA0090DFF8580019
:10476000BDF8001001801FBD1CB504006A46012180
:104770005120FEF796FA01900F48BDF80410018011
:10478000E4B2012C06D19DF8000050F004008DF831
:10479000000005E09DF8000010F0FB008DF800001F
:1047A0006A4601215120FEF716FA01900248BDF831
:1047B0000410018013BD0000F81600202DE9F04719
:1047C00004000D0016001F00DFF86C0B06705FF090
:1047D0000208DFF8749B424621004846FEF738FC89
:1047E0005FF00609DFF864AB4A4629005046FEF741
:1047F0002FFCDFF8440B47724FF47A70DFF8381B58
:10480000C8600020DFF8301B0874DFF8440BDFF8C5
:10481000441B4860DFF8400BDFF8381B8860DFF886
:10482000280BDFF8381B4860DFF8200BDFF82C1B63
:104830008860FBF721FDDFF8F81A086001F01CFD25
:104840000020DFF81C1B08700020BDE8F0872DE970
:10485000FE4F0500DFF8D80A006882466869804686
:10486000287C81460020DFF8FC1A08805646DFF8D5
:10487000C80A407A012871D1287C0A300700FFB2AB
:104880007E2F01DB042000E00220C7198AF80070A7
:104890001AF1010A28788AF800001AF1010A0220A8
:1048A0000090DFF8A40A0190009A01995046FEF7A3
:1048B000CFFB1AF1020A06200290DFF890BA029AA2
:1048C00059465046FEF7C4FB1AF1060A287B8AF8BF
:1048D00000001AF1010A5FFA89F9B9F1740F01DBDE
:1048E000732400E04C46E4B2002C0AD0E4B2C34684
:1048F000220059465046FEF7ABFBE4B2A244E4B2B4
:10490000A0445146300003F0FFF91AF1020AB9EB56
:1049100004095FFA89F9B9F1000F16D056465FFA1B
:1049200089F9B9F17F0F01DB7E2400E04C46E4B247
:10493000220041465046FEF78BFBE4B2A2445146AA
:10494000300003F0E1F91AF1020ADFF8E409006827
:10495000BAEB0000DFF80C1A088076E0287C0A30F9
:1049600007008AF800701AF1010A28788AF8000016
:104970001AF1010A02200290DFF8CC090190029A94
:1049800001995046FEF764FB1AF1020A06200090D6
:10499000DFF8B8B9009A59465046FEF759FB1AF1AC
:1049A000060A5146300003F0AFF91AF1020A5646E2
:1049B000287B8AF800001AF1010A5FFA89F9B9F137
:1049C000100F01DB0F2400E04C46E4B2002C0AD0AB
:1049D000E4B2C346220059465046FEF739FBE4B222
:1049E000A244E4B2A0445146300003F08DF91AF11C
:1049F000020AB9EB04095FFA89F9B9F1000F1CD07A
:104A000056465FFA89F9B9F1110F01DB102400E075
:104A10004C46E4B2C346220059465046FEF718FB06
:104A2000E4B2A244E4B2A044B9EB04095146300018
:104A300003F06AF91AF1020ADDE7DFF8F40800680A
:104A4000BAEB0000DFF81C1908800020BDE8FE8FDB
:104A500038B50400FF250FF21D02DFF808090188B0
:104A6000DFF8CC080068FDF73BFD05002800C0B268
:104A700032BD000010B5040001F00AFCDFF8C418D4
:104A800008600120DFF8B418087010BD0120DFF8BD
:104A9000B018087070472DE9F84F040060690500F0
:104AA00094F82000012840F004815FF0000A0A20F9
:104AB0000600DFF8B40800883100C9B289B2884224
:104AC00001D245201AE2FDF7DDFE81464846C0B21C
:104AD00003F04DF95FFA89F9B9F1800F02DB5FF05D
:104AE000040A01E05FF0020A5FFA89F9B9F10A0FDE
:104AF00001DA0E2002E2DFF870080088B0F5807F4E
:104B000001DD0E20FAE1FDF7BDFE2070207803F0F4
:104B10002EF95FF0000B5FFA8BFBBBF1020F10DA8E
:104B2000FDF7B0FE61685FFA8BFB01F80B0060686F
:104B30005FFA8BFB10F80B0003F019F91BF1010B66
:104B4000E9E75FF0000B5FFA8BFBBBF1060F10DAB1
:104B5000FDF798FEA1685FFA8BFB01F80B00A068D7
:104B60005FFA8BFB10F80B0003F001F91BF1010B4E
:104B7000E9E7FDF787FE2073207B03F0F8F8B9F131
:104B80000A00B0EB0A002074207C80465FFA88F8A7
:104B9000B8F1740F01DB732700E0474617F10B00F3
:104BA00006005FF0000B58463900C9B280B289B2E6
:104BB00088420ED2FDF766FE1FFA8BFB05F80B004C
:104BC0001FFA8BFB15F80B0003F0D1F81BF1010B5A
:104BD000E9E75FF0000B1FFA8BFBBBF1020F09DA6C
:104BE000FDF750FE69461FFA8BFB01F80B001BF125
:104BF000010BF0E7FFB23D44B8EB0708684603F04D
:104C0000C1F8002801D1442078E15FFA88F8B8F1B2
:104C1000000F38D05FFA88F8B8F17F0F01DB7E27EC
:104C200000E047463E005FF0000B58463900C9B22D
:104C300080B289B288420ED2FDF724FE1FFA8BFBA8
:104C400005F80B001FFA8BFB15F80B0003F08FF82B
:104C50001BF1010BE9E75FF0000B1FFA8BFBBBF1C7
:104C6000020F09DAFDF70EFE69461FFA8BFB01F809
:104C70000B001BF1010BF0E7684603F083F80028F6
:104C800001D144203AE15FF0000B0FFA8BFBDFF813
:104C9000D8060088217C401A5FFA8AFAB0EB0A0035
:104CA0000B38834580F22981FDF7ECFD1BF1010BE8
:104CB000EBE70C200600DFF8B00600883100C9B22F
:104CC00089B2884201D2452018E1FDF7DBFD81461B
:104CD0004846C0B203F04BF8FDF7D4FD20702078B1
:104CE00003F045F85FF0000A5FFA8AFABAF1020FA2
:104CF00010DAFDF7C7FD61685FFA8AFA01F80A0069
:104D000060685FFA8AFA10F80A0003F030F81AF1C6
:104D1000010AE9E75FF0000A5FFA8AFABAF1060FC2
:104D200010DAFDF7AFFDA1685FFA8AFA01F80A0010
:104D3000A0685FFA8AFA10F80A0003F018F81AF16E
:104D4000010AE9E75FF0000A1FFA8AFABAF1020FD6
:104D500009DAFDF797FD69461FFA8AFA01F80A0099
:104D60001AF1010AF0E7684603F00CF8002801D1B7
:104D70004420C3E05FFA89F9B9F10A0F01DA0E2085
:104D8000BCE05FFA89F95FFA89F919F11600102180
:104D900090FBF1F019EB4000401CDFF8CC150988BE
:104DA000814201DA4520A9E0FDF76CFD2073207BEC
:104DB00002F0DDFFB9F10A002074207C80465FFA22
:104DC00088F8B8F1100F01DB0F2700E04746F81C08
:104DD00006005FF0000A50463900C9B280B289B2BD
:104DE00088420ED2FDF74EFD1FFA8AFA05F80A0036
:104DF0001FFA8AFA15F80A0002F0B9FF1AF1010A3F
:104E0000E9E75FF0000A1FFA8AFABAF1020F09DA3D
:104E1000FDF738FD69461FFA8AFA01F80A001AF10F
:104E2000010AF0E7684602F0ADFF002801D14420F6
:104E300064E0FFB23D44B8EB07085FFA88F8B8F1C8
:104E4000000F3ED05FFA88F8B8F1110F01DB102790
:104E500000E04746B81C06005FF0000A50463900E3
:104E6000C9B280B289B288420ED2FDF70BFD1FFA9B
:104E70008AFA05F80A001FFA8AFA15F80A0002F001
:104E800076FF1AF1010AE9E75FF0000A1FFA8AFAD1
:104E9000BAF1020F09DAFDF7F5FC69461FFA8AFA42
:104EA00001F80A001AF1010AF0E7684602F06AFF09
:104EB000002801D1442021E0FFB23D44B8EB0708AF
:104EC000BBE75FF0000ADFF8A00400885FFA89F909
:104ED000B0EB09005FFA89F919F11601102291FB74
:104EE000F2F1B0EB4100401E0FFA8AFA824504DA73
:104EF000FDF7C8FC1AF1010AE5E70020BDE8F28FD2
:104F000010B5DFF8D40ADFF8D41A4861FDF7EBFCDE
:104F1000DFF8C81A81F82000FDF7F0FCDFF8BC1AB2
:104F200081F82100FDF7D0FCDFF83C140880FDF784
:104F3000EFFCDFF8A81AC861FDF7CDFC00F036FEE3
:104F4000DFF8981A8861DFF8940AC069DFF8901AD0
:104F50000860DFF8880AFFF79EFD0400FDF7E0FC1B
:104F60002000C0B210BDDFF87C0A407A704710B54F
:104F70000400207810F04F00C0B200282AD0082882
:104F80001CD0442806D046280CD0472806D04828F4
:104F900010D027E0200000F043FD23E0200000F0C7
:104FA00045FD1FE0FDF72CFC002802D0200000F09A
:104FB00031FD17E0200000F046FD13E0FDF720FC76
:104FC000002806D00020DFF898130870200000F0B9
:104FD00033FD07E00020DFF888130870200000F0A0
:104FE00057FDFFE710BD80B5DFF874030078002897
:104FF00018D0012854D0032823D0052800F0AC8015
:10500000062800F0D680072800F00081082800F06C
:105010002C810A2871D00D2800F056810E2800F04E
:105020006D8184E1FDF726FC002809D0FFF768FFB9
:10503000002802D1C748FFF79AFF0220FDF7A6F823
:1050400075E1DFF8A4090078002813D1FDF7E8FB2B
:10505000B8490968411ADFF88809006801F03EF98B
:1050600000281CD0BD48FFF7F3FC0120DFF87819B9
:10507000087014E0B1480078002810D00020AF4933
:1050800008700020DFF8601908700220FDF77EF834
:105090000020B3490870B149002000F001FD46E14D
:1050A000DFF844090078002811D1FDF7B9FB0100B1
:1050B000DFF82C09006801F011F900281CD0A7487E
:1050C000FFF7C6FC0120DFF82019087014E09B48A8
:1050D0000078002810D00020984908700020DFF8E0
:1050E000081908700220FDF751F800209C4908704B
:1050F0009A49002000F0D4FC19E1DFF8EC080078B0
:10510000002813D1FDF78CFB8A490968411ADFF8A2
:10511000D008006801F0E2F800281CD08F48FFF7A3
:1051200097FC0120DFF8C018087014E0834800786D
:10513000002810D00020814908700020DFF8A8184E
:1051400008708649002000F0ABFC0220FDF71EF835
:10515000002083490870EAE0DFF88C080078002816
:1051600011D1FDF75DFB0100DFF87408006801F064
:10517000B5F800281CD07948FFF76AFC0120DFF859
:105180006818087014E06D480078002810D00020DE
:105190006A4908700020DFF8501808706F49002035
:1051A00000F07EFC0220FCF7F1FF0D206C49087036
:1051B000BDE0DFF834080078002811D1FDF730FB9E
:1051C0000100DFF81C08006801F088F800281CD0F6
:1051D0006248FFF73DFC0120DFF80C18087014E06E
:1051E00056480078002810D000205449087000204C
:1051F000DFF8F41708705949002000F051FC022034
:10520000FCF7C4FF0E205649087090E0DFF8D8077D
:105210000078002813D1FDF703FB46490968411ABD
:10522000DFF8BC07006801F059F800281CD04B4893
:10523000FFF70EFC0120DFF8B017087014E03F48BC
:105240000078002810D000203C4908700020DFF8CA
:10525000981708704149002000F022FC0220FCF75A
:1052600095FF0E203E49087061E0DFF87C0700786A
:10527000002813D1FDF7D4FA2E490968411ADFF846
:105280006007006801F02AF800281CD03348FFF7B7
:10529000DFFB0120DFF85017087014E02748007882
:1052A000002810D00020254908700020DFF83817AA
:1052B00008702A49002000F0F3FB0220FCF766FF8B
:1052C0000E202749087032E01E48006800F0EAFF0F
:1052D0001949C96888420BD2FDF7CCFA00280CD0D6
:1052E000FFF70EFE002808D11A48FFF740FE04E041
:1052F00000201B49087000F0D1FB18E0114800683D
:1053000000F0D0FF0C49C96888420BD2FDF7B2FA11
:1053100000280CD0FFF7F4FD002808D10D48FFF756
:1053200026FE04E000200E49087000F08BFB01BD52
:105330000417002070000020780000205117002082
:105340005217002008170020790000207B00002061
:105350003217002054160020D8160020781600209E
:10536000531700202E1700203017002010B504001E
:10537000207810F04F00C0B2402812D0432804D04B
:105380004A280AD04B2804D00FE0200000F068FB28
:105390000BE0200000F06AFB07E0200000F06CFB4F
:1053A00003E0200000F06EFBFFE710BD38B50024DD
:1053B000DFF83806007800281AD002283DD00428EB
:1053C00000F09480092800F0F5810A2800F0AE81F1
:1053D0000B2800F0EE800C2800F04E810D2800F024
:1053E00019820F2800F04682102800F08282A9E27C
:1053F000DFF8F005007C00281ED0FDF731FA05002B
:10540000DFF8EC05006800F04DFF854210D3FDF792
:105410001FFA0100DFF8DC05006800F05FFF0028DC
:105420000AD0DFF8D4050078DFF8C015087003E073
:105430000020DFF8B015087484E2DFF8C0050078BA
:1054400000281DD1DFF8B805007801280FD1DFF85A
:10545000B0050078401CDFF8A8150870DFF8A40537
:10546000FFF7F6FA0120DFF8941508703DE0DFF849
:105470009405FFF7EDFA0120DFF88015087034E09D
:10548000DFF88405007800282FD0FDF7C9F9DFF890
:105490007C150968411ADFF85C05006800F01EFF02
:1054A000002822D0DFF83C05007C002805D0DFF87A
:1054B0003C050078DFF8401508700020DFF848153B
:1054C00008700020DFF834150870FDF799F90028FE
:1054D00007D00220FCF75AFE0F20DFF810150870E5
:1054E00003E00020DFF8041508702BE2DFF80C055C
:1054F0000078002827D1DFF80805007801280FD1AF
:10550000DFF8FC040078401CDFF8F4140870DFF8C2
:10551000F404FFF79DFA0120DFF8E014087047E07B
:10552000FDF796F90100DFF8CC04006800F0D6FE24
:1055300000283DD0DFF8CC04FFF78AFA0120DFF81D
:10554000BC14087034E0DFF8C004007800282FD0C5
:10555000FDF766F9DFF8B4140968411ADFF894041E
:10556000006800F0BBFE002822D0DFF87804007C41
:10557000002805D0DFF874040078DFF87C14087088
:105580000020DFF8841408700020DFF87014087021
:10559000FDF736F9002807D00220FCF7F7FD1020B0
:1055A000DFF84814087003E00020DFF840140870AA
:1055B000C8E1DFF848040078002827D1DFF840046C
:1055C000007801280FD1DFF838040078401CDFF89C
:1055D00030140870DFF82C04FFF73AFA0120DFF8E6
:1055E0001C14087047E0FDF733F90100DFF80404EC
:1055F000006800F073FE00283DD0DFF80804FFF7D4
:1056000027FA0120DFF8F413087034E0DFF8F8031C
:10561000007800282FD0FDF703F9DFF8F0130968B0
:10562000411ADFF8D003006800F058FE002822D0AD
:10563000DFF8B003007C002805D0DFF8B003007865
:10564000DFF8B41308700020DFF8BC1308700020E6
:10565000DFF8A8130870FDF7D3F8002807D0022060
:10566000FCF794FD0D20DFF88413087003E00020A0
:10567000DFF87813087065E1DFF880030078002810
:1056800027D1DFF87C03007801280FD1DFF8700301
:105690000078401CDFF868130870DFF86803FFF734
:1056A000D7F90120DFF8541308703EE0FDF7D0F879
:1056B0000100DFF84003006800F010FE002834D03D
:1056C000DFF84003FFF7C4F90120DFF8301308705A
:1056D0002BE0DFF834030078002826D0FDF7A0F88F
:1056E000DFF828130968411ADFF80803006800F0A2
:1056F000F5FD002819D0DFF8EC02007C002805D069
:10570000DFF8E8020078DFF8F01208700020DFF818
:10571000F81208700020DFF8E41208700220FCF78D
:1057200035FD1020DFF8C41208700BE1DFF8CC0261
:105730000078002812D1FDF78BF80100DFF8B402E1
:10574000006800F0CBFD002833D0DFF8B802FFF787
:105750007FF90120DFF8A41208702AE0DFF8A80220
:105760000078002825D0FDF75BF8DFF8A012096863
:10577000411ADFF88002006800F0B0FD002818D060
:10578000DFF86002007C002805D0DFF860020078B6
:10579000DFF8641208700020DFF86C120870002037
:1057A000DFF8581208700220FCF7F0FC10208F4937
:1057B0000870C7E09148007800280FD1FDF748F83D
:1057C00001008C48006800F089FD002821D08D4838
:1057D000FFF73EF90120894908701AE08A480078ED
:1057E000002816D0FDF71CF888490968411A81483D
:1057F000006800F073FD00280BD00020824908707B
:1058000000207E4908700220FCF7C0FC1020774978
:10581000087097E07748006800F044FD04007C4879
:10582000007800281DD1FDF709F86E49C9680818ED
:10583000A04216D3FDF71EF800281AD0FFF760FB30
:10584000002816D16748007C002803D000F020FD16
:1058500067490860002065490870604800F018F941
:1058600007E000206A49087000206049087000F0D5
:1058700015F967E05F48006800F014FD0400644813
:10588000007800282CD1FCF7D9FF5649C9680818C0
:10589000A04225D3FCF7EEFF002829D0FFF730FB0C
:1058A000002825D14F48007C002803D000F0F0FCF0
:1058B0004F49086049480078062806D100204B4926
:1058C0000870464800F0C5F812E0444800784028C7
:1058D0000ED1002045490870404800F0D3F807E099
:1058E00000204B49087000204049087000F0B7F8CC
:1058F00028E04048006800F0D5FC040044480078E7
:10590000002816D1FCF7B6FF00281AD0FFF7F8FAE6
:10591000002816D13348007C002803D000F0B8FCE2
:10592000334908600020314908702C48FFF71EFDFC
:1059300007E000203649087000202C49087000F06C
:10594000AEF8FFE731BD80B526480078002802D1C7
:10595000FFF749FB05E023480078012801D1FFF754
:1059600025FD01BD38B504000D00E4B2652C30DB27
:10597000E4B26B2C2DDAE4B22000652808D066284A
:1059800009D068280DD0692813D06A2814D01CE0EB
:10599000144805701BE013484570280A11498870A7
:1059A00015E0012D01D1012000E000200D494872D1
:1059B0000DE00C48C5600AE00A48057400200E4955
:1059C000087000F065FC0A490860412002E00020F0
:1059D00000E0412032BD00003414002054160020A5
:1059E0000C170020780000205517002053170020C6
:1059F0001017002008170020541700205617002009
:105A0000DA000020781600205117002074000020D2
:105A10005217002010B50400200000F042F810BD1D
:105A200010B50400200000F03CF810BD10B50400D3
:105A3000200000F036F810BD10B50400200000F082
:105A400030F810BD704710B50400200000F029F8B0
:105A500010BD10B50400200000F023F810BD704701
:105A600010B50400200000F01CF810BD10B50400B3
:105A7000200000F016F810BD10B50400200000F062
:105A800010F810BD10B50400200000F00AF810BD99
:105A900010B50400200000F004F810BD70477047F6
:105AA0007047704730B583B0040025000020C0B2B5
:105AB000042808DAC0B2295C6A46C0B243421A44DC
:105AC000D170401CF3E76A4604219020FDF783F86B
:105AD00001903548BDF80410018037BD7CB5040045
