:020000040800F2
:10000000703E0020390100083731000841300008F7
:10001000353100084D0D00083D600008000000006B
:10002000000000000000000000000000F13800089F
:10003000C70D00080000000059310008555900089C
:100040003F600008530100085301000853010008F5
:100050005301000853010008C90D0008E50D000810
:10006000F90D00081D0E000853010008910D00084D
:100070005301000853010008530100085301000810
:100080005301000853010008530100085301000800
:10009000530100085301000853010008310E000805
:1000A00053010008530100085301000853010008E0
:1000B000415A000853010008530100085301000889
:1000C00053010008530100085301000853010008C0
:1000D0005301000853010008315F00085301000874
:1000E000DD0D00085301000853010008530100080A
:1000F00053010008000000005301000853010008EC
:10010000530100085301000853010008530100087F
:1001100053010008530100085301000800000000CB
:1001200053010008DFF80CD000F0D6FC004800476F
:10013000658D0008703E002006488047064800474D
:10014000FEE7FEE7FEE7FEE7FEE7FEE7FEE7FEE787
:10015000FEE7FEE7F1590008250100082DE9F05FF0
:100160000546002092469B46884606468146402426
:100170001BE0284641464746224600F082FB534694
:100180005A46C01A914110D311461846224600F033
:1001900069FB2D1A67EB01084F462246012000211A
:1001A00000F060FB17EB00094E41201EA4F1010492
:1001B000DFDC484631462A464346BDE8F09F000052
:1001C0000649074A0868504343F239021044086060
:1001D000400870470149086070470000B0030020E4
:1001E0006D4EC64110B5431A934209D28318881840
:1001F00003E010F8011D03F8011D521EF9D210BDD5
:1002000040EA01039B0703D009E008C9121F08C098
:10021000042AFAD203E011F8013B00F8013B521E18
:10022000F9D210BDD2B201E000F8012B491EFBD279
:1002300070470022F6E710B513460A4604461946F1
:10024000FFF7F0FF204610BD421C10F8011B0029EB
:10025000FBD1801A704730B504460020034600E009
:100260005B1C934203D2E05CCD5C401BF8D030BDF8
:10027000F0B480EA0102D40F4200B2EB410F02D287
:100280000246084611464A0042D0C30DDDB2C1F312
:10029000C752AD1A202D35DAC1F3160141F4000220
:1002A00004B15242C5F1200602FA06F12A41104477
:1002B000B3EBD05F23D0C4B1012DA0EBC35009DC58
:1002C000F0BC4FF0004202EAC352DBB200F500007E
:1002D00000F002BB400000F1807000EBC350A0F1C1
:1002E000807040EAD170490009E0490841EAC071D4
:1002F000A0EBC35000F50000400800EBC350F0BC79
:1003000000F0E1BA6142012202EB4101001BF6E775
:10031000F0BC704781F00041AAE780F00040A7E7F9
:1003200080EA010210B502F00043400022D04A00EA
:100330001FD0010E01EB1261C0F35600C2F356024A
:1003400040F4000042F40002A0FB022000047F39C8
:10035000140400D0401C50EA124001D44000491E51
:10036000C2B20C0604EBD010401C4008802A02D018
:1003700003E0002010BD20F00100002900DA002079
:10038000184310BD30B480EA010202F0004530F09D
:10039000004221F0004013D090B1C30DD40DC2F340
:1003A0001601C0F31600E41A41F4000140F4000203
:1003B0007D34914201D3641C00E04900002C02DA34
:1003C00030BC002070474FF400000023914201D35D
:1003D000891A034340084FEA4101F7D151B19142D4
:1003E00002D14FF0004105E002D24FF0010101E0DF
:1003F0006FF0010103EBC450284430BC00F063BA35
:10040000420005D0C0F3C7525242914201DC0020A5
:10041000704700EBC15070472DE9FE4F804681EADE
:100420000300C00F0C46009021F0004123F000456E
:10043000B8EB0200A94105D24046214690461C4631
:100440000B46024623F00040104347D0270DC7F368
:100450000A00C3F30A510290401A019040286BDA57
:10046000C3F3130040F4801B0098924620B1002390
:10047000D2EB030A63EB0B0B01985946C0F1400223
:10048000504600F0EFF906460D4650465946019A8F
:1004900000F007FA10EB08006141002487EA1152CE
:1004A00084EAE7731A4340D0009A62B3019A012AA2
:1004B0004FEA075215DC001B61EB02014FF00042CE
:1004C00002EA0752CDE90042001C41F58011324694
:1004D0002B4600F03EFA03B0BDE8F08F40462146BF
:1004E000F9E7001B61EB0201001C41F580130018C5
:1004F0005B412018A2F5001747EB030140EAD570D5
:10050000B6196D4111E06D084FEA360645EAC0752F
:100510004FEA0752001B61EB0201001C41F58011FC
:1005200049084FEA30000019514132462B4603B0CA
:10053000BDE8F04F00F0FEB9009801224000002312
:10054000D0EB020263EBE073009821464FEAE074BF
:10055000B8EB000061EB0401E9E783F000435BE7DF
:1005600081F0004158E72DE9FE4F81EA030404F0D1
:10057000004421F0004100944FF0000B23F00043B1
:1005800050EA01045ED052EA03045BD0C3F30A547C
:10059000C1F30A552C44A4F2F3340194A0FB025495
:1005A000C1F3130141F48011C3F3130343F4801327
:1005B00001FB024400FB034E840A970A44EA81547B
:1005C00047EA8357A4FB076802958D0A05FB078558
:1005D0004FEA932C04FB0C542705029D4FEA065862
:1005E00047EA1637B5EB08056EEB070C870E920E3F
:1005F00047EA811742EA8312A7FB0201B6EB0B011F
:1006000064EB00042B0D43EA0C335E1844EB1C50E2
:10061000DA465146E7FB0201C5F313044FEA0B33F8
:1006200043EA14534FEA0432019C43EA0603A4F15F
:100630000C040294009CCDE900B400F08AF903B0E8
:10064000BDE8F08F00200146F9E72DE9F04D81EA81
:10065000030404F0004B21F0004514464FF0000A5B
:1006600023F0004150EA050220D054EA01021DD0D7
:10067000C5F30A570246C5F31303C1F31300C1F3D0
:100680000A5640F4801543F48013A7EB0608101BAC
:10069000D64608F2FD3873EB050002D308F10108D5
:1006A00001E092185B41B8F1000F03DA0020014627
:1006B000BDE8F08D00204FF48011064684460EE020
:1006C000171B73EB050705D3121B63EB05030643EA
:1006D0004CEA010C49084FEA300092185B4150EA9D
:1006E0000107EDD152EA030012D082EA040083EA46
:1006F0000501084305D0101BAB4106D2012200239F
:1007000006E000224FF0004302E06FF001025310B8
:100710001AEB06004CEB085110EB0A0041EB0B0101
:10072000BDE8F04D00F006B970B521F00043034379
:100730000CD0C1F30A550024D5EB040564EB040387
:10074000D617AD1AB34102DB0020014670BD201858
:1007500041EB025170BDC10F80EAE0700844CA0746
:100760009623002100F0B8B896230022114600F02D
:10077000B3B80EB5C10F80EAE0700844CA07002183
:1007800040F233438DE80E000A460B4600F0E1F8D4
:1007900003B000BD0EB540F2334102910021CDE916
:1007A00000110A460B4600F0D4F803B000BD00F07B
:1007B000004220F00040C10DC0F3160040F40000DC
:1007C0007F2901DA00207047962903DCC1F19601E8
:1007D000C84001E096398840002AF4D04042704772
:1007E00020F00040C10DC0F3160040F400007F2946
:1007F00001DA00207047962903DCC1F19601C84058
:100800007047963988407047C1F30A5210B5C1F35A
:10081000130140F2FF3341F480119A4201DA0020C3
:1008200010BD40F233439A42A2F2334203DC5242FB
:1008300000F027F810BD904010BD0000002801DB3B
:10084000C0F10040002901DBC1F100418142704745
:10085000002801DBC0F10040002901DBC1F10041AB
:1008600088427047202A04DB203A00FA02F1002077
:1008700070479140C2F1200320FA03F319439040DE
:100880007047202A04DB203A21FA02F00021704749
:1008900021FA02F3D040C2F12002914008431946E8
:1008A0007047202A06DBCB17203A41FA02F043EAD0
:1008B000E07306E041FA02F3D040C2F12002914019
:1008C0000843194670470029A8BF7047401C4900DB
:1008D00008BF20F00100704710B4B0FA80FC00FAA5
:1008E0000CF050EA010404BF10BC704749B1CCF1D0
:1008F000200421FA04F411FA0CF118BF012121435C
:100900000843A3EB0C01CB1D4FEA00614FEA102016
:1009100042BF002010BC704700EBC35010440029B8
:10092000A4BF10BC7047401C490008BF20F0010064
:1009300010BC704710B5141E73F1000408DA401C97
:1009400041F1000192185B411A4301D120F00100EE
:1009500010BD2DE9F04D92469B4611B1B1FA81F2DE
:1009600002E0B0FA80F220329046FFF77BFF0446A7
:100970000F4640EA0A0041EA0B0153465A46084333
:1009800013D0114653EA010019D0C8F14002504675
:10099000FFF777FF05460E46504659464246FFF799
:1009A00061FF084305D0012004E020463946BDE838
:1009B000F08D0020054346EAE0762C4337430A9841
:1009C0006305E40AA0EB08000022FD0A44EA47544C
:1009D0000A3002D500200146E9E7010510196941F6
:1009E000DDE9084500196941BDE8F04DA2E70000C6
:1009F0002DE9F041054621F000400C46284309D07E
:100A0000C4F30A5040F23341884205DD28462146AE
:100A1000BDE8F0812846FBE740F2FE31884210DC59
:100A20000CDB4FEA043040EA155050EA053105D09E
:100A3000104804F0004101430020E9E7002001468E
:100A4000E6E7A0F233404642C6F14002284621467E
:100A5000FFF708FF07468846284621463246FFF73B
:100A600010FF43463A46FFF765FF3246BDE8F041C6
:100A7000FFF7F8BE0000F03F30B5041E71F100042E
:100A800004DB4FF00044404264EB0101141E73F19B
:100A9000000405DB1C464FF00043524263EB0403A5
:100AA0008B4208BF824230BD30B5041E71F1000494
:100AB00004DB4FF00044404264EB0101141E73F16B
:100AC000000405DB1C464FF00043524263EB040375
:100AD000994208BF904230BD064C074D06E0E068E1
:100AE00040F0010394E8070098471034AC42F6D375
:100AF000FFF71CFB90EF0008B0EF000870B58C18F2
:100B000010F8015B15F0070301D110F8013B2A1121
:100B100006D110F8012B03E010F8016B01F8016B0E
:100B20005B1EF9D12B0705D40023521E0DD401F80A
:100B3000013BFAE710F8013BCB1A921C03E013F8D3
:100B4000015B01F8015B521EF9D5A142D8D3002008
:100B500070BD10B50146406AC26C12F0500F05D04E
:100B6000406C026BBDE8104008461047C16C41F470
:100B70000071C16401688A6812F0405F17D1426A4F
:100B8000AAB90A6B12F0F87F02D08A6852050ED417
:100B90004A6822F020024A60C16C21F48071C1646D
:100BA000C16CC90403D4C16C41F00101C16400F0FF
:100BB00017FA10BD10B5406AC16C41F04001C16424
:100BC000016D41F00401016500F01BFA10BD10B584
:100BD000406A00F015FA10BDF8B5002604460096EC
:100BE00000680168C94349062AD5816841F00101BE
:100BF0008160144814490068B0FBF1F000EB40003C
:100C000000E0401E00900028FBD100F045FD0546A5
:100C100011E000BF00F040FD401B02280BD9E06C42
:100C200040F01000E064206D40F00100206584F881
:100C300048600120F8BD20680068C0434006E9D440
:100C40000020F8BD3C00002040420F0070B586B087
:100C5000040008D11048016841F0010101600068FA
:100C600000F0010005900D4E0D4D694636F8140058
:100C7000009001200190002002900220039055F87E
:100C8000240000F01FFC36F8141055F82400002250
:100C900000F0F9FC06B070BD1C380240BAEC000848
:100CA000140000200349044A31F8101052F82000C3
:100CB00000F0E5BCBAEC0008140000200349044A27
:100CC00031F8101052F8200000F0D4BCBCEC000841
:100CD0001800002030B587B0040008D1174802681A
:100CE00042F004020260006800F00400059014481D
:100CF00030F81400009000200122CDE90202114AD0
:100D0000A1B1012910D11048019052F82400694680
:100D100000F0D8FB0A4D00222D1F0F21285700F0AC
:100D200027FD285700F019FD07B030BD019052F89B
:100D30002400694600F0C6FBF6E700001C380240BC
:100D4000BCEC00081800002000002110FEE70000A5
:100D50000D4810B50168491C016000684FF47A71B4
:100D6000B0FBF1F201FB120028B908480168491CE8
:100D7000016006F009FF06F013FF002803D0BDE86C
:100D8000104006F015BF10BD640300206003002072
:100D9000014800F0A9BA00006404002030B590F8C2
:100DA00040500124AC40C56B6C60046863604368CC
:100DB000102B036803D099600068C26030BD9A6050
:100DC0000068C16030BD704703480168C90701D0A1
:100DD00001210160FEE70000140401404FF40050BF
:100DE00000F064BB03480168890701D50221016056
:100DF000FEE700001404014010B5042000F056FB8B
:100E000005480168490701D504210160BDE810408B
:100E1000042000F043BB00001404014003480168B3
:100E2000090701D508210160FEE700001404014014
:100E300070B50F4C20684FF08005000605D5256081
:100E4000802000F02BFB0BF093F920684FF48076A4
:100E5000C00502D5304600F029FB4FF40070206039
:100E600026602560402020602020206070BD0000AA
:100E7000140401400020FFF715FFFA2000F002FBE8
:100E8000F8E70000F8B50024009490F848202546C3
:100E9000012A12D0012280F848204A681F23072A1D
:100EA0000DD207683E6C521E02EB820293409E43B5
:100EB0000B6893401E433E6435E00220F8BD0D2AC6
:100EC0000BD20668F76BD21F02EB820293409F435E
:100ED0000B6893401F43F76325E0132A0BD2066883
:100EE000B76B0D3A02EB820293409F430B6893402D
:100EF0001F43B76317E00668192A0AD2776B133AC3
:100F000002EB820293409F430B6893401F43776339
:100F100009E0376B193A02EB820293409F430B685A
:100F200093401F4337630A6807230A2A0AD20668D8
:100F3000776902EB420293409F438B6893401F43C3
:100F4000776125E0142A0BD207683E690A3A02EB62
:100F5000420293409E438B6893401E433E6117E0DC
:100F600007681D2A0AD8FE68143A02EB4202934031
:100F70009E438B6893401E43FE6009E0FE6D1E3A5F
:100F800002EB420293409E438B6893401E43FE65F2
:100F90000A68102A01D0112A17D10E4A13681B02C1
:100FA00013D4136843F400031360096810290CD1AB
:100FB00009490A4A0968B1FBF2F101EB81014900D4
:100FC00000E0491E00910029FBD180F848502046DE
:100FD000F8BD0000042701403C00002040420F0003
:100FE000054801680548B1F5006F01D8002100E00F
:100FF0000121017070470000440000205D000020C6
:1010000070477047F8B504004FF0000503D0E06C5E
:10101000002610B110E00120F8BD26655B4884F879
:101020004860016841F001010160006800F00100C2
:101030000090204600F0B4F8E06CC00678D4E06C74
:1010400020F4885040F00200E06451480168626872
:1010500021F44031114301606169E0684FF400738D
:10106000084393FAA3F3E26BB3FA83F3216A9A403D
:1010700011430843022191FAA1F1626AB1FA81F1A8
:1010800002FA01F10843616B102902D0A36B1943E6
:101090000843236819684FF48077C943490629D566
:1010A000A169D4F81CC00843A168D4F810E041EA53
:1010B0000C01BE450CD0BEF1010F09D04FF0000C61
:1010C00041EA0C01D4F82CC0BCF1010F02D00AE0B7
:1010D000BC46F5E76AB3E26C42F02002E264226D9E
:1010E00042F0010222655A68DFF8A8C002EA0C0249
:1010F0000A435A6021688A68274B1A4002438A6073
:101100002169B94224D0012922D021680A6B22F03A
:10111000F8720A6321688968204A1140814227D108
:101120002665E06C20F0020040F00100E0642AE057
:1011300028E0FFE74FF4604C226B9CFAACFCBCFA51
:101140008CFC521E02FA0CF20A4342F40061CAE718
:1011500021680A6B4FF0F87722F0F873A26A97FAC9
:10116000A7F7B7FA87F7521EBA4013430B63D1E7CC
:10117000E06C20F0020040F01000E064206D40F0D0
:101180000100206501252846F8BD000020380240F6
:1011900004270140FF16FCFC89F1FFC0FEFF80BF61
:1011A00070B505460068164986B0884225D11548B5
:1011B000016841F4007101600068002600F40070CD
:1011C0000590082000900320CDE9010669460E48ED
:1011D00000F078F90E4C0D48C4E900068020C4E9FF
:1011E000026040002061800060612020C4E90606A2
:1011F000204600F0CDF86C64656206B070BD00005A
:1012000000240140203802400008024008600240EB
:10121000640400202DE9F041044690F84800164689
:101220000F46012808D0012084F848002046FFF727
:10123000D3FC050003D047E00220BDE8F081E06C5C
:1012400040F20161884340F48070E06420684068A7
:10125000400505D5E06C20F4005040F48050E06477
:10126000E06CC1044FF0000004D5216D21F00601AF
:10127000216500E0206584F84800616C13488862AD
:10128000616C1348C862616C1248086321686FF092
:10129000220008602068416841F080614160206858
:1012A000816841F480718160216833463A46583143
:1012B000606C00F0AFF82068816811F0405F03D1E6
:1012C000816841F0804181602846B6E7530B0008F1
:1012D000CF0B0008B50B00080248416841F002013D
:1012E00041607047002004E0F0B4C16B0D680168F4
:1012F0000C68066C042202FA06F32B420FD0630737
:101300000DD50B689B0603D40B6823F004030B6018
:1013100090F840108A40C16B4A60C16A1BE002230A
:1013200003FA06F72F424FF0000C4FF0010216D0DF
:10133000A70714D50C68A40605D40C6824F00A0489
:101340000C6080F8212090F840108B40C16B4B60FE
:1013500080F820C0816A002918D0F0BC0847082313
:10136000B3402B4212D0230710D50B6823F00E0395
:101370000B6090F84010C36B02FA01F15960826370
:1013800080F8212080F820C0016BE4E7F0BC7047B2
:1013900030B560B11C4A03681421934209D21B4A3C
:1013A0001A44B2FBF1F18900016419490AE00120F5
:1013B00030BD154A52421A44B2FBF1F18900016472
:1013C00011490839C163022180F821101A6843F6D7
:1013D000F0718A43F0E901142143D0E902452C431E
:1013E0002143046921434469214384692143114312
:1013F0001960002141628162C1620163416301227F
:1014000042770177084630BD08640240F89FFDBF6F
:101410000060024070B5044690F8200000250128C5
:101420000CD0012084F8200094F821600020012EC7
:1014300006D084F820000225284670BD022070BD29
:10144000022684F82160A0632068066826F0010661
:1014500006602046FFF7A2FCE06A002820680168C9
:1014600002D041F00E0106E021F004010160206885
:10147000016841F00A0101602068016841F0010142
:101480000160D9E731B500F007F9044600F004F92E
:101490000099001B8842F9D338BD0000042802D10E
:1014A00001480AF0B5BC7047B8ED0008044910B512
:1014B0000A68024202D00860FFF7F0FF10BD00008A
:1014C000140401402DE9F84FDFF880B100234FF0FC
:1014D000010C4FF0030A4FF00F090BF1040EAEE0C0
:1014E0000CFA03F614EA060270D04C68022C01D004
:1014F000122C11D1DC0800EB84073C6A5D07ED0E6D
:1015000009FA05F824EA0804D1F8108008FA05F869
:1015100048EA0408C7F8208007685D0091F8048055
:101520000AFA05F408F00308A74308FA05F848EAA0
:101530000708C0F800804F68012F05D0022F03D0A4
:10154000112F01D0122F11D18768D1F80C80A74339
:1015500008FA05F848EA0708C0F808804768B74362
:101560000E79C6F300169E403E434660C668A64309
:101570008C68AC403443C4604C68E4005ED5344CA5
:10158000256845F001052560246823F0030504F073
:10159000010400942F4C2E19B4689D072F0F09FAEF
:1015A00007F5AC432C4DA84201D100251FE02B4D7F
:1015B000A84201D101251AE0294DA84201D10225F6
:1015C00015E0284DA84202D1032510E036E0264D53
:1015D000A84201D104250AE0244DA84201D10525E5
:1015E00005E0234DA84201D1062500E00725BD40B6
:1015F0002543B560DBF800405D464E689443F60332
:1016000000D514432C60DEF8004075464E689443C4
:10161000B60300D514432C600C4D08352C684E6879
:101620009443F60200D514432C60084D0C352C6809
:101630004E689443B60200D514432C605B1C0A68C4
:101640001446DA407FF44CAFBDE8F88F0004014047
:101650002038024000000140000002400004024027
:1016600000080240000C024000100240001402403A
:10167000001802400069084000D00120704742690C
:101680004A40426170470AB1816170470904FBE733
:1016900000487047000003010148006870470000DF
:1016A0004000002002480168491C016070470000AA
:1016B00040000020094810B5016841F004010160B4
:1016C000016841F002010160032000F071F80F2071
:1016D00000F006F800F018F8002010BD003C0240B1
:1016E00010B5044607484FF47A710068B0FBF1F07A
:1016F00001F080FA00222146501E00F039F8002047
:1017000010BD00003C0000200D4808B5016841F004
:1017100001010160016801F001010091016841F0DF
:1017200004010160016801F004010091016841F0C9
:1017300008010160006800F00800009008BD00008A
:101740001C38024000F01F02012191404009800036
:1017500000F1E020C0F88011704700F01F02012165
:1017600091404009800000F1E020C0F8001170476E
:10177000F0B40E4B1B680C46C3F30223C3F10705FC
:10178000042D00D90425191D072901D2002300E0EA
:10179000DB1E012606FA05F1491E214099409E40B4
:1017A000761E16403143F0BC01F0C6BC0CED00E0E3
:1017B000064900F0070208684FF6FF03184040EAA8
:1017C0000220034A10430860704700000CED00E05F
:1017D0000000FA052DE9F84F04460068C10701D161
:1017E000800778D5DFF868810027D8F80000C000AE
:1017F0000BD4D8F8001041F08051C8F80010D8F888
:101800000000012700F080500090524D2868C0056C
:1018100010D4286840F480702860FFF73DFF06462A
:1018200005E000BFFFF738FF801B64285CD82868FC
:10183000C005F7D5464E243E3068616800F0C040D0
:1018400001F0C042824204D1A26802F0C04282424A
:1018500009D0C1F30140032805D13068800302D5C7
:101860000120BDE8F88F3A4D1035286810F440305B
:1018700052D001F44031814202D02178C90707D10A
:10188000A16801F44031814246D02078800743D5D9
:1018900028684FF4000292FAA2F1B1FA81F14FEAFE
:1018A000810C2D494FF0010A8C4420F44030CCF8D3
:1018B00080A692FAA2F2B2FA82F201EB8201002330
:1018C000C1F880362860C00526D5FFF7E5FE8146C1
:1018D0004FF4007B0AE038E0FFF7DEFEA0EB0901E1
:1018E00041F28830814201D90320BAE79BFAABF07C
:1018F000B0FA80F040F04001BAEB511F01D13168DD
:1019000000E029689BFAABF2B2FA82F202F01F0201
:101910000AFA02F00142DFD06068C0F301410329F6
:1019200006D1316800F0C04021F0C0410143316070
:101930002868616801F44031084328602FB1D8F865
:10194000001021F08051C8F80010002089E7000045
:101950002438024000700040000047422DE9F04763
:10196000DFF8BC8105460E46D8F8000000F0010003
:10197000B04214D2012E05D1D8F8001041F0040174
:10198000C8F80010D8F8001021F001013143C8F860
:101990000010D8F8000000F00100B04271D12878A2
:1019A000604C800705D52068A96820F0F000084346
:1019B00020602878C00771D05A4A5A4B69680120C4
:1019C000083A2C33022910D003292ED001292FD018
:1019D0005FEA402797FAA7FCBCFA8CFC4CF0200C7D
:1019E0005FEA5C1C04D0126803E04FF40037F1E7B3
:1019F0001A6897FAA7F3B3FA83F303F01F0398402A
:101A0000024262D0206820F0030008432060FFF704
:101A100043FE6968074641F28830022910D0032945
:101A20001CD00129814626D034E04FF00077D1E761
:101A30000227CFE7FFF730FEC11B494501D926E059
:101A400081462068C0F381000228F3D126E000BF60
:101A5000FFF722FEC11B494501D918E081462068E5
:101A6000C0F381000328F3D118E000BFFFF714FE94
:101A7000C11B49450BD82068C0F381000128F5D16E
:101A80000CE022E0FFF708FEC11B494502D9032004
:101A9000BDE8F087206810F00C0FF3D1D8F80010E3
:101AA000404601F00101B14211D9012E03D1016874
:101AB00041F004010160016821F00101314301603E
:101AC000006800F00100B04201D00120E0E7287872
:101AD000400705D52068E96820F4E06008432060ED
:101AE0002878000706D52068296920F4605040EA6C
:101AF000C100206000F052F82168F02292FAA2F2B0
:101B000001F0F001B2FA82F2D140074A515CC840BC
:101B1000064908600F20FFF7E3FD0020B8E700004A
:101B2000003C02400838024013ED00083C00002051
:101B300001480068704700003C000020084809493F
:101B4000006809684FF4E06292FAA2F201F4E061E1
:101B5000B2FA82F2D140044A515CC840704700009A
:101B60003C0000200838024023ED000808480949DD
:101B7000006809684FF4605292FAA2F201F46051D1
:101B8000B2FA82F2D140044A515CC840704700006A
:101B90003C0000200838024023ED00081E4A11686E
:101BA00001F00C00042813D0082813D00C2813D0FF
:101BB000101F006800F460414FF4604090FAA0F0FC
:101BC000B0FA80F0C1404FF40040491C8840704793
:101BD00012487047124870474FF4701393FAA3F3FA
:101BE00001F47010B3FA83F3D8400E4B01F44001B6
:101BF0001268185C4FF4400393FAA3F3B3FA83F32B
:101C0000D940491CD20301D5054A00E0034A50439C
:101C1000B0FBF1F070470000083802400024F400E7
:101C20000048E8010AED00082DE9F84F0746007862
:101C3000FE4EFF4DC0074FF0010428D0FB4808308E
:101C400001684FF40038C1F38101022907D001680F
:101C5000C1F3810103291BD10068C00318D598FA8C
:101C6000A8F0B0FA80F040F02000400901D03068C0
:101C700000E0286898FAA8F1B1FA81F101F01F019B
:101C800004FA01F1084260D0786800287ED05CE058
:101C9000786801280AD008B1052813D0306820F4EC
:101CA00080303060306820F4802002E0306840F4FA
:101CB00080303060786838B3FFF7EEFC814641F23F
:101CC000883A0BE0306840F480203060EEE700BFD7
:101CD000FFF7E2FCA0EB0901514575D898FAA8F08E
:101CE000B0FA80F040F02000400901D0306800E0F8
:101CF000286898FAA8F1B1FA81F101F01F0104FAFD
:101D000001F10842E4D020E0FFF7C6FC814641F231
:101D1000883A05E0FFF7C0FCA0EB09015145DCD88B
:101D200098FAA8F0B0FA80F040F02000400901D005
:101D3000306800E0286898FAA8F1B1FA81F101F062
:101D40001F0104FA01F10842E4D13878DFF8E48297
:101D500080074FF0000B4FF0020961D5B3480830FF
:101D60000168C1F38101012907D00168C1F3810134
:101D700003291DD10068C0031AD499FAA9F0B0FA5A
:101D800080F040F02000400903D000E089E0306896
:101D900000E0286899FAA9F1B1FA81F101F01F0178
:101DA00004FA01F108422CD0F868012879D128E022
:101DB000F868B0B394FAA4F0B0FA80F048F8204084
:101DC000FFF76AFC824607E067E100BFFFF764FCAB
:101DD000A0EB0A000228A2D899FAA9F0B0FA80F084
:101DE00040F02000400901D0306800E0286899FAEE
:101DF000A9F1B1FA81F101F01F0104FA01F10842E1
:101E0000E4D08A48001D01684FF4F85393FAA3F315
:101E10003A69B3FA83F321F4F8519A40114301600F
:101E200025E0FFE794FAA4F1B1FA81F148F821B076
:101E3000FFF732FC824605E0FFF72EFCA0EB0A001C
:101E40000228C8D899FAA9F0B0FA80F040F0200032
:101E5000400901D0306800E0286899FAA9F1B1FA88
:101E600081F101F01F0104FA01F10842E4D1387850
:101E70004FF4007AC0067CD56C480830006810F03A
:101E80000C0F0FD0B9694FF48070002972D090FA0E
:101E9000A0F0B0FA80F048F82040FFF7FDFB00907A
:101EA0007EE087E09AFAAAF0B0FA80F040F02000D5
:101EB000400901D0306800E028689AFAAAF1B1FA26
:101EC00081F101F01F0104FA01F1084202D0B86962
:101ED00000286FD05548396A001D006800F4604042
:101EE00081421AD9084601F039F9002862D14F48D9
:101EF000001D01683A6A21F46041114301600168E4
:101F00004FF07F4393FAA3F3FA69B3FA83F321F016
:101F10007F419A401143016018E04448001D026867
:101F200022F460420A43026001684FF07F4393FA53
:101F3000A3F3FA69B3FA83F321F07F419A40114386
:101F40000160386A01F00AF90028CFD14FF46041EE
:101F500091FAA1F1386AB1FA81F1C8404FF4004119
:101F6000401C8140314808300068F02200F0F00049
:101F700001E070E040E092FAA2F2B2FA82F2D040C0
:101F80002D4A105CC1402D4801600F20FFF7A8FBCF
:101F900061E000BFFFF780FB0099401A02287CD85F
:101FA0009AFAAAF0B0FA80F040F02000400902D07E
:101FB000306801E0BCE128689AFAAAF1B1FA81F12F
:101FC00001F01F0104FA01F10842E3D01748001D97
:101FD00001683A6A21F460411143016001684FF0E1
:101FE0007F4393FAA3F3FA69B3FA83F321F07F41B5
:101FF0009A40114301602EE090FAA0F0B0FA80F010
:1020000048F820B0FFF748FB009005E0FFF744FBDD
:102010000099401A0228C2D89AFAAAF1B1FA81F1BD
:1020200041F0200149090BD031680AE00038024034
:10203000343802400000474213ED00083C00002005
:1020400029689AFAAAF0B0FA80F000F01F0004FAAA
:1020500000F00142DAD13878000753D5786948B3E7
:1020600094FAA4F0B0FA80F008EB8000C0F8804643
:10207000FFF712FB009005E0FFF70EFB0099401AF6
:1020800002288CD899FAA9F0B0FA80F040F040000C
:10209000B4EB501F02D1306801E08EE0286899FA55
:1020A000A9F1B1FA81F101F01F0104FA01F2104225
:1020B000E2D027E094FAA4F1B1FA81F108EB8101B2
:1020C000C1F880B6FFF7E8FA009005E0FFF7E4FA00
:1020D0000099401A022870D899FAA9F0B0FA80F055
:1020E00040F04000B4EB501F01D1306800E0286898
:1020F00099FAA9F1B1FA81F101F01F0104FA01F294
:102100001042E3D1387840077BD59B484FF0000957
:102110000068C0000AD49848016841F0805101600D
:1021200000684FF0010900F080500090934801686A
:10213000C90511D4016841F480710160FFF7ACFA60
:10214000009005E0FFF7A8FA0099401A642834D8F7
:102150008A480068C005F5D5B86801280AD008B1DA
:10216000052811D0286820F480702860286820F4A1
:10217000806002E0286840F480702860B86848B346
:10218000FFF78AFA00900DE0286840F4806028602C
:10219000F0E700BFFFF780FA0099411A41F288305A
:1021A00081420AD89AFAAAF0B0FA80F040F04000D2
:1021B000B4EB501F02D1306801E094E028689AFA2D
:1021C000AAF1B1FA81F101F01F0104FA01F2104203
:1021D000E0D022E0FFF760FA009007E0FFF75CFA3A
:1021E0000099411A41F2883081427CD89AFAAAF0CB
:1021F000B0FA80F040F04000B4EB501F02D13068DC
:1022000001E012E028689AFAAAF1B1FA81F101F02E
:102210001F0104FA01F21042E0D1B9F1000F04D01D
:102220005548016821F080510160786AE0B3DFF819
:102230004891A9F11C09D9F80010C1F381010329C3
:1022400076D002284FF0807158460CD091FAA1F157
:10225000B1FA81F148F82100FFF71EFAB0460746AF
:102260004FF000766EE08A4691FAA1F1B1FA81F161
:10227000C34648F82100FFF70FFA80464FF000767A
:1022800006E000BFFFF708FAA0EB0800022856D8C6
:1022900096FAA6F0B0FA80F040F02000400904D091
:1022A00035482438006801E062E0286896FAA6F113
:1022B000B1FA81F101F01F0104FA01F10842E1D104
:1022C000D7E90A103A6BD9F80030014323F47D03B3
:1022D0001A431143C9F800109AFAAAF0B0FA80F034
:1022E0004BF8204000E02AE0FFF7D6F9DFF88880BD
:1022F0000746A8F1240804E0FFF7CEF9C01B022826
:102300001DD896FAA6F0B0FA80F040F020004009FF
:1023100002D0D8F8000000E0286896FAA6F1B1FAD9
:1023200081F101F01F0104FA01F10842E4D01FE03D
:1023300020E000BFFFF7B0F9C01B022802D903203C
:10234000BDE8F88F96FAA6F0B0FA80F040F02000D1
:10235000400902D0D8F8000000E0286896FAA6F1FB
:10236000B1FA81F101F01F0104FA01F10842E1D153
:102370000020E5E70120E3E7243802400070004038
:1023800070B5040002D0607F10B106E0012070BD7E
:1023900000202077204600F041F802206077216875
:1023A000CA204862216853204862204600F044FF5A
:1023B000FF210028206803D0416204206077E5E710
:1023C0008268154B1A4082602268906863681843DF
:1023D000D4E904352B43184390602268E06810610B
:1023E00020680269238942EA034202612068C268C8
:1023F00022F08002C2602068026C22F48022026413
:102400002068026CA3691A430264206841620120BB
:102410006077002070BD0000BFFF8FFF10B590B047
:102420000C20009000200124099002900594684639
:10243000FFF7FAFB08B1FEF71DFD4FF40030CDE9C0
:102440000D400DA8FFF7C6F908B1FEF713FD4FF4D4
:10245000800090FAA0F00849B0FA80F001EB80000B
:10246000C0F8804600220F210220FFF781F90220E8
:10247000FFF773F910B010BD000047422DE9F04797
:102480000446007F0B46012825D04FF0010984F84F
:102490001C9002206077587802B300F09FFE987875
:1024A00000F09CFE9878D97840EA01455878197870
:1024B000000240EA413005432168CA204862216891
:1024C00053204862204600F0B7FE0026FF274FF059
:1024D000040838BB19E00220BDE8F087C10603D527
:1024E00000F0EF000A305870D87800F080FE020447
:1024F000587800F07CFE42EA0022987800F077FEDF
:102500000243187842EA4035D6E70D480540206876
:1025100045602068C16821F08001C160204600F05C
:1025200085F830B12068476284F81D802677012045
:10253000D2E72068476284F81D9026770020CBE719
:102540003FFFFF002DE9F0470446007F0D460128BC
:1025500011D04FF0010A84F81CA002206077206897
:10256000002680684FEA406042B100281ADA2878D5
:1025700000F034FE17E00220BDE8F087002800DB01
:10258000EE70287800F033FE0204687800F02FFE29
:1025900042EA0022A87800F02AFE0243E87842EAE4
:1025A00000470AE0EE70A878297840EA0147687889
:1025B000E978000240EA014007432168CA204862E6
:1025C000216853204862204600F036FE4FF0FF0895
:1025D0004FF00409C0B9144807402068076020681C
:1025E000816821F480218160D5E9030108432168D5
:1025F0008A68104388602068C16821F08001C1604A
:10260000204600F013F838B12168C1F8248084F81E
:102610001D9026770120AFE72168C1F8248084F857
:102620001DA026770020A7E77F7F7F0070B50446B6
:1026300000688168890614D4C16821F0A001C160D6
:10264000FFF72AF805464FF47A7606E0FFF724F8FC
:10265000401BB04201D9032070BD2068C0688006CD
:10266000F4D5002070BD10B504000ED020680168BC
:1026700021F040010160204600F04EF80020606526
:1026800084F8510084F8500010BD012010BD90F86E
:102690005100704770B5040004D094F85100002533
:1026A00010B106E0012070BD84F85050204600F0C3
:1026B00035F8022084F851002068016821F04001BB
:1026C0000160D4E901010843D4E90312114308432E
:1026D00061690843218B01F400710843E1690843F3
:1026E000216A0843A16A084321680860A06904219F
:1026F00001EA1040616A0843216848602168E06A85
:1027000008612068C16921F40061C161656501202B
:1027100084F85100002070BD704700002DE9F0439F
:1027200000682D4987B0884252D12C4C206840F077
:1027300002002060206800F002000590206840F050
:1027400001002060206800F001000590206840F042
:102750000100206020684FF0050800F00100CDE97D
:10276000048002250126032708208DE8E100DFF818
:10277000709069464846FEF7A5FE02A8019580E8DC
:10278000A001DFF860804025694640460095FEF7CD
:1027900099FE8020009069464046FEF793FE20682F
:1027A00040F0020020602068694600F002000590B9
:1027B000CDE900564846CDE90267FEF783FE201DAD
:1027C000016841F480510160006800F48050059078
:1027D00007B0BDE8F0830000003001401C38024023
:1027E00000040240000002402DE9F843044690F83E
:1027F0005100984601286ED139B332B394F8500095
:10280000012868D0012684F85060122084F8510015
:10281000002565652163A286E286E564A564A5635B
:10282000A587E587A06A7703B84209D120680168C7
:1028300021F4005101602068016841F400510160F9
:10284000A068B0F5004F03D007E00120BDE8F88391
:102850002068016841F480410160206801684906F0
:1028600003D4016841F040010160E068002860681D
:1028700004D0D0B1E08E012817D020E010B1E08E56
:10288000012808D1206B411C216321680078C860B1
:10289000E08E401EE086E08EF0B143460022022129
:1028A000204600F0BBFFA0B9ECE7206B2168008850
:1028B000C860206B801C2063E08E401EE086E08EA6
:1028C00050B1434600220221204600F0A7FF002815
:1028D000EBD00320BAE726E0A06AB84204D1206812
:1028E000016841F4805101604346002202212046E4
:1028F00000F094FF30B9434601228021204600F0C9
:102900008DFF20B1606D40F020006065E1E7A068B8
:1029100018B92068C1688068009084F8516084F814
:102920005050002092E7022090E72DE9F84300255F
:10293000DDF820800446ADF8005090F851000128E1
:1029400003D094F8510022287DD169B162B15BB106
:1029500094F85000012876D0012684F8506094F84D
:102960005100012803D005E00120BDE8F8833220A2
:1029700084F851006565A263A387E3872163A3867A
:10298000E386A564E564A06A4FF40057B84209D114
:102990002068016821F4005101602068016841F459
:1029A0000051016020680168490603D4016841F0C4
:1029B00040010160E0684FF48271B0F5006F60681B
:1029C00007D0002867D088426ED1E08E012862D0FF
:1029D0006AE020B188420CD1E08E012809D1206B39
:1029E00021680088C860206B801C2063E08E401E38
:1029F000E086E08E40BBA06AB84244D120680168FE
:102A000041F4805101603EE02068C068A16B0880FD
:102A1000A06B801CA0639EE043460022022120465A
:102A200000F0FCFE002874D1206B21680088C8608B
:102A3000206B801C2063E08E401EE086E08E50B943
:102A4000A06AB84201E0C7E017E004D1206801683D
:102A500041F480510160434600220121204600F0EC
:102A6000DDFE00286FD12068C068A16B0880A06BD4
:102A7000801CA063E08F401EE087E08E0028CBD151
:102A8000606800286AD1434600220121204600F0F8
:102A9000C5FEF0BBB8E7206B411C216321680078BC
:102AA000C860E08E401EE086E08E98BBA06AB84207
:102AB00004D12068016841F480510160434600223E
:102AC0000121204600F0AAFE18BB2068C068A16B57
:102AD000087040E0434600220221204600F09EFE9E
:102AE000B8B9206B411C216321680078C860E08E72
:102AF000401EE086E08E38B9A06AB84204D1206852
:102B0000016841F4805101600022434601212046C2
:102B100001E018E00BE000F081FEA0B92068C26877
:102B2000A06B411CA1630270E08F401EE087E08E25
:102B30000028CFD1606888B9434600220121204691
:102B400000F06CFE08B103200FE72068C168A06B9D
:102B5000421CA2630170E08F401EE087A06AB84269
:102B600010D1434600220121204600F057FE18B143
:102B7000606D40F002000FE02068C068ADF8000012
:102B8000BDF80000434601228021204600F046FEA9
:102B900020B1606D40F020006065D4E784F851609A
:102BA000A06AB84214D120688168C943C9060FD40D
:102BB000616D41F002016165016821F4005101601D
:102BC0002068016841F40051016084F85050CBE660
:102BD00084F850500020C8E60220C6E64FF0E021FD
:102BE0000428086903D020F004000861704740F011
:102BF0000400FAE710B5401EB0F1807F01D3012038
:102C000010BD4FF0E02460610F21601700F094FACE
:102C10000020A06107202061002010BD10B5040035
:102C200003D094F8350010B107E0012010BD00205A
:102C300084F83400204600F00DF8022084F83500B6
:102C4000211D206802F00AFF012084F835000020D1
:102C500010BD000008B50068B0F1804F12D10A48DD
:102C6000016841F0010101600068002200F00100EC
:102C7000009011461C20FEF77BFDBDE808401C209B
:102C8000FEF76BBD08BD0000243802400168CA6829
:102C900042F00102CA600068016841F00101016070
:102CA0000020704770B5044690F83400012817D012
:102CB000012584F83450022084F8350020688268A9
:102CC00022F0770222F47F4282600868502837D0D1
:102CD0000DDC202859D005DC88B3102841D151E003
:102CE000022070BD302853D040283AD13FE0602800
:102CF0002ED070280BD0B0F5805F03D0B0F5005F08
:102D00002FD110E02068816821F0070115E0CB6821
:102D1000D1E90121206802F0DFFE2168886840F0D7
:102D2000770088601DE0CB68D1E90121206802F0BE
:102D3000D3FE2068816841F48041816011E01EE08B
:102D4000CA684968206802F036FF5021206806E012
:102D5000CA684968206802F03FFF6021206802F0DD
:102D6000C5FE84F83550002084F8340070BDCA6870
:102D70004968206802F01FFF40212068EFE700212A
:102D80002068ECE710212068E9E720212068E6E7C9
:102D900030212068E3E770B5044690F8340001283C
:102DA0000DD0012584F83450022084F8350042B15A
:102DB000042A0AD0082A0CD00C2A11D10DE00220D6
:102DC00070BD206802F09AFE0AE0206802F0ACFEB6
:102DD00006E0206802F0C0FE02E0206802F0D3FEA8
:102DE00084F83550002084F8340070BD10B504001C
:102DF00003D094F8350010B107E0012010BD002089
:102E000084F83400204600F00CF8022084F83500E5
:102E1000211D206802F022FE012084F835000020E8
:102E200010BD704770B5040004D094F83900002537
:102E300010B106E0012070BD84F83850204600F043
:102E400021F8022084F839002068C16821F400517B
:102E5000C160204602F0D2FE2068016921F4904151
:102E600001612068416921F02A0141612068C1683F
:102E700041F40051C160E563012084F8390000206D
:102E800070BD000030B51E4887B0016841F00101F7
:102E90000160016801F001010591016841F0010143
:102EA0000160006800F001000590154808300168D5
:102EB00041F4003101600068072400F400300590FF
:102EC0000420009002200190002002900320CDE910
:102ED00003040C4D69462846FEF7F4FA08200090DA
:102EE000694604942846FEF7EDFA012200212620C7
:102EF000FEF73EFC2620FEF730FC07B030BD000098
:102F00001C3802400000024090F83930012B01D0FB
:102F1000122B2CD139B332B390F83830012B26D094
:102F2000012380F8383081628285C2850021C16327
:102F300090F83920122A18D05FF0220280F8392048
:102F400080F838100168CA6842F48072CA6001686B
:102F50004A6942F001024A610068C16841F02001FB
:102F6000C16000207047012070473222E6E702204E
:102F7000704700002DE9F047044690F83900994663
:102F80000D46012801D0222858D12DB322B394F840
:102F90003800012852D0012684F838600027E76302
:102FA00094F8390022281AD05FF0120084F8390012
:102FB000A284E2844FF48058E08C4B46401EE084AB
:102FC000A0684FF0000240454FF08001204613D129
:102FD00002F064FF08BB04E00120BDE8F087322066
:102FE000E4E728882168C0F308004860206908B138
:102FF0006D1C08E0AD1C06E002F050FF68B92168C6
:1030000015F8010B4860E08C0028D5D14B46002212
:103010004021204602F042FF08B10320DDE794F88A
:103020003900322806D084F8396000BF84F838703F
:103030000020D2E7222084F83900F7E70220CCE70D
:10304000FEE700003EB511480F4901240160002150
:1030500041608160C160016141618161C161C0E91C
:103060000814C0E90A411022C463C0E90D21FDF72C
:10307000C9FF0D20CDE900040620029069460348EF
:10308000FDF700FF3EBD00000024014010040020B9
:10309000094808B5016841F08071016000680022AC
:1030A00000F08070009011460B20FEF761FBBDE838
:1030B00008400B20FEF751BB1C3802401B4800B5EE
:1030C000016887B041F001010160016801F0010170
:1030D0000591016841F004010160016801F00401FB
:1030E0000591016841F008010160016801F00801E3
:1030F0000591016841F002010160016801F00201DF
:103100000591016841F0080101600068694600F01E
:1031100008000590082000900320019000200290F4
:103120000348FEF7CFF907B000BD00001C3802408D
:1031300000080240FEE770470907090E002806DA7A
:1031400000F00F0000F1E02080F8141D704700F13E
:10315000E02080F8001470477047000038B51C4923
:10316000002309681B4A11F0F00F23D118491C31C4
:103170000C68E500184C03D5216801F4C0540EE03A
:103180000D6845F080550D600D6805F0805500957F
:1031900024680D6804F4C05425F080550D60B4F522
:1031A000C05F07D1B0F5404F04D11068012340F053
:1031B00004001060106820F00100184310601068CF
:1031C00000F00100984201D0012038BD002038BD38
:1031D00008380240003C024000700040010901EB49
:1031E000810100F00F0000EB4100C0B270470021E8
:1031F00002E00A38C0B2491C0A28FAD2090740EA9C
:10320000116070470B4810B50949016040214160C9
:103210007F2181604FF49871C1600021016141619B
:103220008161FFF7ADF8002801D0FDF723FE10BD46
:1032300000280040A804002070B504460068C1685A
:10324000490614D44FF0FF31C160FEF725FA054658
:103250004FF47A7607E000BFFEF71EFA401BB0423B
:1032600001D9032070BD2068C0684006F4D5002055
:1032700070BD000000B587B014208DF81700022043
:103280008DF8150018218DF816108DF81400012204
:1032900005A90E48FFF7F2F898B908208DF800004C
:1032A00010208DF8010000208DF802008DF8030039
:1032B00003900490012269460448FFF743F900286F
:1032C00001D0FDF7D7FD07B000BD0000A804002025
:1032D0002DE9F043044627480D4687B0016841F0C8
:1032E00001010160016801F001010591016841F0EF
:1032F00004010160016801F004010591016841F0D9
:10330000020101600068022D00F0020005902ED03D
:103310000020194E019006F1200736F814000090A5
:1033200057F8240006F10C080290DFF8509058F886
:103330002400039059F824006946FEF7C3F8012DD4
:1033400012D136F81400009057F82400029058F873
:103350002400039006F13400694650F824000190DF
:1033600059F82400FEF7AEF807B0BDE8F08301205D
:10337000CFE700001C380240C4EC00082000002009
:1033800070B5084D04461E462857FEF7F1F9285738
:103390001EB1BDE87040FEF7E0B9BDE87040FEF731
:1033A000D1B90000C0EC00080D4900B50A6887B02B
:1033B00042F002020A60096801F002010591094920
:1033C00031F8101000910121019102910321039124
:1033D000054951F820006946FEF774F807B000BDB2
:1033E0001C38024008ED000834000020FEB500241F
:1033F000029480218DF808108DF809000422ADF8A0
:10340000044001AD234611460320FFF7B9FF1F4ECC
:10341000002240213046FEF736F9ADF8004004E0C6
:10342000BDF80000401CADF80000BDF80000FF280A
:10343000F6D9174C012301AA2068009002A915486B
:10344000FFF773FABDF804004FF6FF7101EA0020A0
:10345000ADF80400206801AA00900123511D0D4819
:10346000FFF763FA0B4800688168C9438907FBD4FA
:10347000012240213046FEF706F9042201231146BD
:103480000320FFF77DFF2888FEBD000000040240F6
:1034900038000020B803002010B50F48FFF7F7F8F8
:1034A000002818D10C480D4901600821C161002194
:1034B0008160416107220161C0E90A12C1604FF4D5
:1034C00000720162826141624FF482714160BDE825
:1034D0001040FFF7DFB810BDB803002000300140F6
:1034E0002DE9FF47884607460121FF208DF8081087
:1034F00000248DF80C008DF809000422ADF804407A
:1035000001AE234611460320FFF73AFFDFF89C90F7
:10351000002240214846FEF7B6F8ADF8004004E02E
:10352000BDF80000401CADF80000BDF80000FF2809
:10353000F6D91F4D012301AA2868009002A91D4851
:10354000FFF7F3F9BDF804004FF6FF7101EA002020
:10355000ADF80400286801AA00900123511D154808
:10356000FFF7E3F9002409E02868009008EB040263
:10357000012303A90F48FFF7D8F9641CBC42F3DB11
:103580000C4800688168C9438907FBD401224021A7
:103590004846FEF778F80422012311460320FFF77E
:1035A000EFFE308804B0BDE8F08700000004024060
:1035B00038000020B80300202DE9FF470F46002403
:1035C000FF218DF80C10029401218DF8081090460F
:1035D0008DF809000422ADF8044001AE23461146DF
:1035E0000320FFF7CDFEDFF8A090002240214846DF
:1035F000FEF749F8ADF8004005E000BFBDF8000057
:10360000401CADF80000BDF80000FF28F6D91F4DA2
:10361000012301AA2868009002A91D48FFF785F937
:10362000BDF804004FF6FF7101EA0020ADF8040078
:10363000286801AA00900123511D1548FFF775F96C
:10364000002409E02868009008EB0402012303A984
:103650000F48FFF76AF9641CBC42F3DB0C480068B2
:103660008168C9438907FBD4012240214846FEF7FF
:103670000AF80422012311460320FFF781FE308857
:1036800004B0BDE8F08700000004024038000020CC
:10369000B80300202DE9FE430024064602948DF86D
:1036A0000840FF200F468DF809000422ADF80440C1
:1036B00001AD234611460320FFF762FEDFF88C8040
:1036C000002240214046FDF7DEFFADF8004004E057
:1036D000BDF80000401CADF80000BDF80000FF2858
:1036E000F6D91B4C012301AA2068009002A91948B1
:1036F000FFF71BF9BDF804004FF6FF7101EA002047
:10370000ADF80400206801AA00900123511D114862
:10371000FFF70BF9002403E0385D00F0CFF8641CDC
:10372000B442F9DB0B4800688168C9438907FBD4C0
:10373000012240214046FDF7A6FF04220123114645
:103740000320FFF71DFE2888BDE8FE830004024029
:1037500038000020B80300202DE9FE430024029425
:1037600017468DF808400E468DF809000422ADF882
:10377000044001AD234611460320FFF701FEDFF8A8
:103780009080002240214046FDF77DFFADF80040CB
:1037900005E000BFBDF80000401CADF80000BDF81A
:1037A0000000FF28F6D91B4C012301AA20680090D5
:1037B00002A91948FFF7B9F8BDF804004FF6FF71E8
:1037C00001EA0020ADF80400206801AA009001235E
:1037D000511D1148FFF7A9F8002403E0385D00F0FF
:1037E0006DF8641CB442F9DB0B4800688168C9437A
:1037F0008907FBD4012240214046FDF744FF042203
:10380000012311460320FFF7BBFD2888BDE8FE8396
:103810000004024038000020B80300202DE9F047E2
:103820001D4690460E460446FDF736FF07465FEA02
:1038300008004FF000084FF4005A4FF0010926D05D
:1038400034E0681C23D025B1FDF726FFC01BA84239
:103850001DD92068416821F0E001416020680168BD
:1038600021F040010160A06A504509D1206801683B
:1038700021F4005101602068016841F400510160A9
:1038800084F8519084F850800320BDE8F0872068C8
:10389000806836EA0000D4D10DE0681C06D0002D07
:1038A000D7D0FDF7F9FEC01BA842D2D820688068A7
:1038B00036EA0000F1D00020E7E7000001B50A4831
:1038C00000688168C9438907FBD40848012269461A
:1038D00003680548FEF788FF002804D00248FEF779
:1038E000C2FEFFF7D9FD08BDB80300203800002054
:1038F0007047000008B56A460121E520FFF75CFE2D
:1039000011490A7860F300020A700A78430863F3E9
:1039100047020A704A78000A60F300024A704A7847
:10392000430863F341024A704A78830863F38202D2
:103930004A70C208487862F3C30048709DF80000DE
:1039400000F07F0008BD00001000002038B50446DC
:103950006A4601219E20FFF72FFE9DF80000012CF2
:1039600000F0F9018DF800100AD041F0040000BF0A
:103970008DF800006A4601219E20FFF7EDFE38BD5C
:1039800041F00200F4E7000038B505466A4601211F
:103990006F20FFF711FE244C217860F300012170A5
:1039A0002178420862F3470121706178000A60F3D0
:1039B000000161706178420862F3410161706178D1
:1039C000820862F382016170C108607861F3C3000C
:1039D00060709DF800006A4600F0800028438DF872
:1039E000000001216F20FFF7B7FE217860F300018E
:1039F00021702178420862F3470121706178000A42
:103A000060F3000161706178420862F34101617006
:103A10006178820862F382016170C108607861F3A5
:103A2000C300607038BD00001000002038B50546A6
:103A30006A4601216E20FFF7BFFD244C217860F318
:103A4000000121702178420862F3470121706178FA
:103A5000000A60F3000161706178420862F341017D
:103A600061706178820862F382016170C1086078D8
:103A700061F3C30060709DF800006A4600F08000AA
:103A800028438DF8000001216E20FFF765FE2178A4
:103A900060F3000121702178420862F34701217030
:103AA0006178000A60F3000161706178420862F396
:103AB000410161706178820862F382016170C1081E
:103AC000607861F3C300607038BD00001000002012
:103AD00038B505466A4601215020FFF76DFD264C9A
:103AE000217860F3000121702178420862F34701D8
:103AF00021706178000A60F300016170617842080A
:103B000062F3410161706178820862F38201617041
:103B1000C108607861F3C30060709DF80000012D5A
:103B200027D020F0020000BF8DF800006A46012176
:103B30005020FFF711FE217860F3000121702178F9
:103B4000420862F3470121706178000A60F30001C6
:103B500061706178420862F34101617061788208A6
:103B600062F382016170C108607861F3C300607024
:103B700038BD40F00200D7E71000002010B5FFF775
:103B800035FC0F490A7860F300020A700A7843088E
:103B900063F347020A704A78000A60F300024A7031
:103BA0004A78430863F341024A704A78830863F312
:103BB00082024A70C208487862F3C300487010BDA0
:103BC0001000002008B54178827811438DF800106C
:103BD00000786A460121FFF7BFFD0F490A7860F3BC
:103BE00000020A700A78430863F347020A704A78B1
:103BF000000A60F300024A704A78430863F3410206
:103C00004A704A78830863F382024A70C20848788F
:103C100062F3C300487008BD10000020F8B50F46DD
:103C2000064600256A4604219020FFF7C5FC2E4C6D
:103C3000217860F3000121702178420862F3470186
:103C400021706178000A60F30001617061784208B8
:103C500062F3410161706178820862F382016170F0
:103C6000C108607861F3C300607000206946C0F14C
:103C700003030A5CDB009A40401CC0B215440428D0
:103C8000F5D377B335430020C0F10302D20025FA03
:103C900002F20A54401CC0B20428F5D30A4604219B
:103CA0009020FFF759FD217860F300012170217801
:103CB000420862F3470121706178000A60F3000155
:103CC00061706178420862F3410161706178820835
:103CD00062F382016170C108607861F3C3006070B3
:103CE000F8BDFFE7B543CEE71000002008B56A46EF
:103CF0000421FA20FFF760FC0F490A7860F3000204
:103D00000A700A78430863F347020A704A78000A87
:103D100060F300024A704A78430863F341024A7034
:103D20004A78830863F382024A70C208487862F3D3
:103D3000C300487008BD00001000002008B5002135
:103D4000009100B101606A4604219020FFF704FD54
:103D50000F490A7860F300020A700A78430863F397
:103D600047020A704A78000A60F300024A704A78F3
:103D7000430863F341024A704A78830863F382027E
:103D80004A70C208487862F3C300487008BD00005A
:103D90001000002038B504466A460421FA20FFF7D7
:103DA0000BFC15490A7860F300020A700A78430890
:103DB00063F347020A704A78000A60F300024A700F
:103DC0004A78430863F341024A704A78830863F3F0
:103DD00082024A70C208487862F3C300487000202B
:103DE0004FEA0D01C0F10302401C8A5CC0B204F826
:103DF000012B0428F6D338BD1000002008B56A4610
:103E00000121E720FFF7D8FB11490A7860F300028F
:103E10000A700A78430863F347020A704A78000A76
:103E200060F300024A704A78430863F341024A7023
:103E30004A78830863F382024A70C208487862F3C2
:103E4000C30048709DF8000000F07F0008BD00002E
:103E5000100000202DE9F84306464A484A493044FC
:103E6000884201D800240EE048484949304488423D
:103E700001D8012407E0474847493044884201D827
:103E8000022400E0032400F0BFFD074600F02EFDF1
:103E9000054600F001FDF11905FB001500F0F4FDE9
:103EA000401C00F0FF08002C68D0012C64D0022CCC
:103EB00060D0032C06D1394861E0002000E00120E9
:103EC000FFF744FD284601F0D7F9814600F040FE97
:103ED000FCF760FC0D46324907464FEA8840095D11
:103EE0004843FCF746FC3A462B46FCF7AEFB074638
:103EF0000D463046FCF74EFC3A462B46FCF733FBAA
:103F0000FCF782FCC0F3445242EA49118DF80010DC
:103F1000410B8DF8011041098DF8021020496A46C5
:103F2000091F095D41EAC0008DF803000421082043
:103F3000FFF712FC1B490A7860F300020A700A7846
:103F4000430863F347020A704A78000A60F30002EC
:103F50004A704A78430863F341024A704A788308FA
:103F600063F382024A70C208487862F3C300487063
:103F7000BDE8F8830C4802E00C4800E00C4885429C
:103F80009DD29AE780A9A0D160D9AC0A801BFEE837
:103F9000E0851205409F2DEE2077FC02E2F49C099B
:103FA0005EEB000810000020C4E93913068DA21949
:103FB0000B1A4533024902220A704860704700001C
:103FC000000000202DE9F04F4FF0000987B0C846EF
:103FD00000F0BEFD4A4988420DD900F055FD50B9A8
:103FE0004FF0010900F0E2FC0446012001F0FEFA66
:103FF0002046FFF72FFF00F0D9FC009025208DF818
:104000000C0003AA0121A120FFF7A6FB0120FFF766
:104010005FFD01F083FB3B4C207840210325B1EB91
:10402000500F0BD14FF001086220FFF7A7FD00BF32
:1040300001F074FB2078B5EB500FF9D16620FFF743
:104040009DFD002613274FF00F0A00BF01F066FB0D
:104050002078B7EB500F04D13046761CF6B2052815
:104060004CD02178BAEB510FF0D1FFF743FC8346D7
:104070006220FFF783FD00BF01F050FB2078B5EB15
:10408000500FF9D16520FFF779FD002601F046FBBE
:104090002078B7EB500F04D13046761CF6B20528D5
:1040A0002CD02178BAEB510FF0D1FFF723FC064654
:1040B0006220FFF763FD00BF01F030FB2078B5EB15
:1040C000500FF9D1B8F1000F02D06320FFF756FD71
:1040D0000020FFF7FDFCB9F1000F05D0002001F032
:1040E00085FA0098FFF7B6FE5846FFF79FFC30466A
:1040F000FFF74AFC002007B0BDE8F08F0120FAE787
:1041000080C3C9011000002008B56A460121302093
:10411000FFF752FA12490A7860F300020A700A782F
:10412000430863F347020A704A78000A60F300020A
:104130004A704A78430863F341024A704A78830818
:1041400063F382024A70C208487862F3C300487081
:104150009DF8000010F0180000D0012008BD0000FC
:104160001000002038B50024FFF7CEFF00B1012475
:1041700000F0CAF904446A460221C920FFF71CFA7C
:1041800013490A7860F300020A700A78430863F35F
:1041900047020A704A78000A60F300024A704A78BF
:1041A000430863F341024A704A78830863F382024A
:1041B0004A70C208487862F3C30048709DF8010055
:1041C0009DF8001000EB0120001B80B238BD0000FC
:1041D00010000020F8B505466A4601215120FFF77E
:1041E000EBF9824C217860F30001217021784208BC
:1041F00062F3470121706178000A60F30001617089
:104200006178420862F3410161706178820862F36B
:1042100082016170C108607861F3C30060709DF82D
:1042200000006A4620F0200040F001008DF80000F8
:1042300001215120FFF790FA217860F300012170ED
:104240002178420862F3470121706178000A60F327
:10425000000161706178420862F341016170617828
:10426000820862F382016170C108607861F3C30063
:1042700060706A4601214F20FFF79EF9217860F3B4
:10428000000121702178420862F3470121706178B2
:10429000000A60F3000161706178420862F3410135
:1042A00061706178820862F382016170C108607890
:1042B00061F3C30060709DF800006A4620F0300092
:1042C0008DF8000001214F20FFF746FA217860F3B6
:1042D000000121702178420862F347012170617862
:1042E000000A60F3000161706178420862F34101E5
:1042F00061706178820862F382016170C108607840
:1043000061F3C3006070287B002601280BD08DF874
:10431000006000BF9DF80000E97A08438DF80000B6
:10432000687A20B105E008208DF80000F2E701204E
:104330006872C0B2401E8DF8010028786978084381
:10434000297A08438DF80200A87A8DF80300A97B2A
:10435000012903D140F010008DF80300687B01288B
:1043600005D19DF8030040F001008DF803006A4676
:1043700004213020FFF7F0F90020032369466A7812
:10438000A3EB5202824201DD0E5403E06A68C700CB
:10439000FA400A54401CC0B20428F0D3A87A00B1F5
:1043A000012000F05BF86A4604213620FFF7D4F9BB
:1043B000217860F3000121702178420862F34701FF
:1043C00021706178000A60F3000161706178420831
:1043D00062F3410161706178820862F38201617069
:1043E000C108607861F3C3006070F8BD1000002060
:1043F00038B505460024FFF787FE00B1012400F020
:1044000083F8011968188DF80100000A8DF8000082
:104410006A4602213420FFF79FF90F490A7860F3BA
:1044200000020A700A78430863F347020A704A7868
:10443000000A60F300024A704A78430863F34102BD
:104440004A704A78830863F382024A70C208487847
:1044500062F3C300487038BD1000002038B505462F
:104460006A4601214F20FFF7A7F8264C217860F318
:10447000000121702178420862F3470121706178C0
:10448000000A60F3000161706178420862F3410143
:1044900061706178820862F382016170C10860789E
:1044A00061F3C30060709DF80000012D27D020F05B
:1044B000010000BF8DF800006A4601214F20FFF780
:1044C0004BF9217860F3000121702178420862F3F2
:1044D000470121706178000A60F300016170617822
:1044E000420862F3410161706178820862F38201DF
:1044F0006170C108607861F3C300607038BD40F03E
:104500000100D7E71000002008B56A4601213020DD
:10451000FFF752F811490A7860F300020A700A782E
:10452000430863F347020A704A78000A60F3000206
:104530004A704A78430863F341024A704A78830814
:1045400063F382024A70C208487862F3C30048707D
:104550009DF8000000F0070008BD000010000020DA
:1045600008B56A460121C720FFF726F810490A78E6
:1045700060F300020A700A78430863F347020A7086
:104580004A78000A60F300024A704A78430863F3ED
:1045900041024A704A78830863F382024A70C20873
:1045A000487862F3C30048709DF80000000908BD18
:1045B0001000002008B56A460121C820FEF7FCFF64
:1045C00010490A7860F300020A700A78430863F31E
:1045D00047020A704A78000A60F300024A704A787B
:1045E000430863F341024A704A78830863F3820206
:1045F0004A70C208487862F3C30048709DF8000012
:1046000008BD00001000002008B54000001D8DF816
:1046100000006A4601212220FFF79EF80F490A7820
:1046200060F300020A700A78430863F347020A70D5
:104630004A78000A60F300024A704A78430863F33C
:1046400041024A704A78830863F382024A70C208C2
:10465000487862F3C300487008BD000010000020D5
:1046600038B505466A4601213A20FEF7A5FF244CDD
:10467000217860F3000121702178420862F347013C
:1046800021706178000A60F300016170617842086E
:1046900062F3410161706178820862F382016170A6
:1046A000C108607861F3C30060709DF800006A463D
:1046B00000F03F0028438DF8000001213A20FFF769
:1046C0004BF8217860F3000121702178420862F3F1
:1046D000470121706178000A60F300016170617820
:1046E000420862F3410161706178820862F38201DD
:1046F0006170C108607861F3C300607038BD00006C
:104700001000002038B505466A4601213A20FEF720
:1047100053FF264C217860F3000121702178420874
:1047200062F3470121706178000A60F30001617053
:104730006178420862F3410161706178820862F336
:1047400082016170C108607861F3C30060709DF8F8
:104750000000012D27D020F0020000BF8DF80000DE
:104760006A4601213A20FEF7F7FF217860F3000145
:1047700021702178420862F3470121706178000AB4
:1047800060F3000161706178420862F34101617079
:104790006178820862F382016170C108607861F318
:1047A000C300607038BD40F00200D7E71000002061
:1047B00038B5044600208DF800006A4601211E200D
:1047C000FEF7FAFE9DF80000012C27D020F08000B3
:1047D0008DF800006A4601211E20FEF7BDFF114939
:1047E0000A7860F300020A700A78430863F347020C
:1047F0000A704A78000A60F300024A704A78430857
:1048000063F341024A704A78830863F382024A7074
:10481000C208487862F3C300487038BD40F0800099
:10482000D6E700001000002008B56A4601210B20E1
:10483000FEF7C2FE17490A7860F300020A700A7890
:10484000430863F347020A704A78000A60F30002E3
:104850004A704A78430863F341024A704A788308F1
:1048600063F382024A70C208487862F3C30048705A
:104870009DF8000000F00700012805D0032805D0AE
:10488000042805D0032008BD002008BD012008BD74
:10489000022008BD1000002008B56A4601216C20E6
:1048A000FEF78AFE10490A7860F300020A700A785F
:1048B000430863F347020A704A78000A60F3000273
:1048C0004A704A78430863F341024A704A78830881
:1048D00063F382024A70C208487862F3C3004870EA
:1048E0009DF8000008BD00001000002008B56A46D1
:1048F00001210C20FEF760FE12490A7860F30002E5
:104900000A700A78430863F347020A704A78000A7B
:1049100060F300024A704A78430863F341024A7028
:104920004A78830863F382024A70C208487862F3C7
:10493000C300487004499DF8000049684843C00B13
:1049400008BD0000100000200800002008B56A46DD
:104950000121B420FEF730FE13490A7860F300020B
:104960000A700A78430863F347020A704A78000A1B
:1049700060F300024A704A78430863F341024A70C8
:104980004A78830863F382024A70C208487862F367
:10499000C30048709DF80000C008C00701D0002087
:1049A00008BD012008BD00001000002070B500F017
:1049B00097F80446FFF738FF054600F065F8104900
:1049C000401C0006495D80094843FBF7D2FE0646BD
:1049D0000C480D464068FBF7DDFE32462B46FBF7E0
:1049E00034FE06460D462046FBF7D4FE32462B46E3
:1049F000FBF7B9FD05F07EFFBDE87040FBF704BF93
:104A000064EB00080800002008B56A4602210E2069
:104A1000FEF7D2FD1A490A7860F300020A700A789C
:104A2000430863F347020A704A78000A60F3000201
:104A30004A704A78430863F341024A704A7883080F
:104A400063F382024A70C208487862F3C300487078
:104A50009DF801009DF8001000EB012080B20105D7
:104A600002D540F4704001E0C0F30B00054900B2EC
:104A700049684843C11700EB9130801408BD00001D
:104A8000100000200800002008B56A4601219E2081
:104A9000FEF792FD11490A7860F300020A700A7865
:104AA000430863F347020A704A78000A60F3000281
:104AB0004A704A78430863F341024A704A7883088F
:104AC00063F382024A70C208487862F3C3004870F8
:104AD0009DF80000C00900D0012008BD1000002092
:104AE00008B56A4604210820FEF766FD17490A78D2
:104AF00060F300020A700A78430863F347020A7001
:104B00004A78000A60F300024A704A78430863F367
:104B100041024A704A78830863F382024A70C208ED
:104B2000487862F3C30048709DF800009DF80110BA
:104B3000C006800900EB41309DF8021000EB4110E7
:104B40009DF8031000EBD10008BD0000100000200C
:104B50000148406870470000080000202DE9F04738
:104B600089463249324A0144914205D831490024EC
:104B7000884215D2012413E02F49304A0144914262
:104B800001D802240CE02E492E4A0144914201D85A
:104B9000032405E02C4908442C49884200D8042409
:104BA0002B4D04EB440005EBC0000126D0E9027058
:104BB000B9F5000F39460FDBFBF7E4FB80463946B9
:104BC0002448FBF7DFFB4146FBF7A4FB4946FBF714
:104BD00035FE10D200260EE0FBF7D4FB80463946A6
:104BE0001D48FBF7CFFB4146FBF794FB4946FBF71B
:104BF0002FFE00D2022604EB440005EBC004494618
:104C000054F83600FBF78CFB04EBC6014968FBF750
:104C10002FFB4FF07E51884202DB1049884200DDB5
:104C20000846FBF7DDFDC0B2BDE8F08780A9A0D142
:104C300060D9AC0A00E9A435801BFEE8E0851205C6
:104C4000409F2DEE2077FC02C0701EF720418E01A0
:104C500040EC000800005041000020420000B44237
:104C60002DE9F04F91B00446A0208DF834000DAA34
:104C700001219F20FEF770FD6068FBF775FD05467A
:104C8000B4F90000FBF767FD2946FBF749FBC04973
:104C9000FBF778FBFBF78BFD83466320FEF7A6FB53
:104CA0004027BC4D002600BF8DF8006005E000BF26
:104CB0009DF80000401C8DF800009DF80000FF28C2
:104CC000F6D100F02BFD2878B7EB500FECD1B24FA6
:104CD000DFF8C8927968494501D2002000E0012040
:104CE00000F020FB6220FEF781FB4FF0030800BFBD
:104CF0008DF8006005E000BF9DF80000401C8DF8B5
:104D000000009DF80000FF28F6D100F007FD29788B
:104D1000B8EB510FECD17868B8463E468246FBF7B7
:104D200023FD07465846FBF716FD1221FBF768FBEB
:104D30003946FBF727FBFBF73AFDC0F303218DF85B
:104D40000E108DF80F00A06841024FEA9A10B1FBD7
:104D5000F0F0401C8DF80C006068FFF72BF907AAF3
:104D60000121A320FEF728FC9DF81C0007AA20F0D3
:104D700002008DF81C000121A320FEF7EDFC09AA1A
:104D800008A9206900F0ACF99DF820008DF83000EA
:104D9000607B9DF8241007AA08438DF8310001219B
:104DA0001C20FEF709FC0BAA0AA9606900F0FAF9B9
:104DB0009DF81C0001AA00F008019DF82C0041EAB2
:104DC00000109DF8281008438DF8320002A9A06950
:104DD00000F026F99DF804009DF8081040EA011043
:104DE0008DF833007768380BFBF7BEFCDFF8B0B105
:104DF00001465846FBF7C6FA4FF08541FBF78AFAA1
:104E00000646FBF7EDFC0F90FBF7AEFC3146FBF7D7
:104E100084FA4FF07C5A50450F9800DD401CC0B218
:104E20004E468DF81400B74219D3780BFBF79CFC63
:104E300001465846FBF7A6FA4FF08541FBF76AFAA0
:104E40000746FBF7CDFC8146FBF78EFC3946FBF7A6
:104E500064FA504502DD09F1010000E048468DF892
:104E60000D0005AA01210720FEF776FC297860F3E2
:104E7000000129702978420862F347012970697896
:104E8000000A60F3000169706978420862F3410129
:104E900069706978820862F382016970C108687874
:104EA00061F3C3006870D8F80400B0426CD93D4982
:104EB0006BE0012000E0002000F0D2FB04F10C02C6
:104EC00001216C20FEF748FC03AA04210C20FEF708
:104ED00043FC0CAA04211A20FEF73EFC297860F35B
:104EE000000129702978420862F347012970697826
:104EF000000A60F3000169706978420862F34101B9
:104F000069706978820862F382016970C108687803
:104F100061F3C30068700120FFF74AFC80208DF820
:104F20000C00E3208DF80D0003AA02219920FEF762
:104F300013FC297860F3000129702978420862F394
:104F4000470129706978000A60F300016970697887
:104F5000420862F3410169706978820862F3820154
:104F60006970C108687861F3C300687022208DF809
:104F70000C0003AA0121BC20FEF7EEFB606800F0E4
:104F80000BFA11B0BDE8F08F0749884293D390E740
:104F900000247449100000200800002080C3C901CB
:104FA00020D5AF4980F0FA0240787D0138B504463B
:104FB0006A4601215220FEF7FFFA9DF80000012CFD
:104FC00028D020F0020000BF8DF800006A460121C1
:104FD0005220FEF7C1FB11490A7860F300020A7003
:104FE0000A78430863F347020A704A78000A60F3BC
:104FF00000024A704A78430863F341024A704A78D3
:10500000830863F382024A70C208487862F3C300DF
:10501000487038BD40F00200D6E7000010000020C4
:105020002DE9FC479046894604460125FFF78EFC92
:1050300000B1022564204543274800214068B0FBA9
:10504000F5F7264840F6282503E0491C49B25A29BD
:1050500006DA30F811207A43B2FBF5F2A242F4D816
:1050600061B30E4600226B4606EB020C00EB4C0CC3
:105070003CF802CC0CFB07FCBCFBF5FCA4EB0C0CD5
:1050800023F812C0521CD2B2032AEDD34FF6FF749C
:105090005FF0000233F91200002801DD054600E050
:1050A0004542A54206DA002800DC404284B2B0182E
:1050B000401E41B2521CD2B2032AEBD3092091FB0D
:1050C000F0F288F8002091FBF0F200FB121089F852
:1050D0000000BDE8FC870000080000206CEB000821
:1050E000FEB50546002016460F468DF800000F2439
:1050F000FFF72CFC02462A48012340680DE000BF60
:10510000C4F1140101EB020C20FA0CF1A94202D8FF
:105110008DF8003001E0641E64B29DF80010E1B12A
:10512000002C00DA00243470C4F1170605FA06F1E9
:10513000521D20FA02F3B1FBF3F1CCB20021D040B2
:1051400047F6FF7C01AA6318012B09D0FF334343C4
:10515000F340EB1A22F8113004E0002CD0DAE1E73A
:1051600022F811C0491CC9B20329ECD34FF6FF73D2
:105170005FF0000132F91100002801DD054600E072
:1051800045429D4206DA002800DC404283B26018A6
:10519000401E3870491CC9B20329EBD3FEBD000084
:1051A000080000202DE9F05F074630481446894684
:1051B00000264068FBF7D8FA6FF01101FBF720F9E1
:1051C000DFF8ACA08346B0465FF0010505FA08F0B1
:1051D000FBF7CFFA00225346FBF7C5F9FBF714FBA8
:1051E000FBF7C2FA5946FBF79BF8FBF7F9FA87423F
:1051F00006D308F1010808F0FF08B8F10A0FE5D35B
:1052000084F80080002405FA08F0FBF7B2FA0D4696
:105210008246B04656462046FBF7BCFA0022154BA4
:10522000FBF7FAF84FF0FF32FBF77EFA32462B46D7
:10523000FBF799F9FBF7E8FAFBF796FA5946FBF703
:105240006FF8FBF7CDFA0646B74203D3641CE4B20D
:10525000082CDED3A7EB0800F11B89F80040884238
:1052600002D2641E89F80040BDE8F09F08000020CB
:1052700000001E400000204010B5204B0021204CB3
:1052800003440A46A34201D8062213E01D4B1E4CDC
:105290000344A34201D80C220CE01C4B1C4C0344D9
:1052A000A34201D8102205E01A4B1B4C0344A34231
:1052B00000D820224FF47A73B0FBF3F05043174A22
:1052C000904201D30F2111E0154A03E0491C49B275
:1052D0000F2908DA32F8113003EB4304C4EBC3138F
:1052E000B0EBC30FF2D809B1491E49B2C81701EBA0
:1052F000507020F00700081AC0B210BD80A9A0D1DC
:1053000060D9AC0A801BFEE8E0851205409F2DEEB7
:105310002077FC02C0701EF720418E0118695600EC
:1053200020EC000838B504466A460121B420FEF797
:1053300043F99DF80000012C28D040F0080000BF80
:105340008DF800006A460121B420FEF705FA1149E4
:105350000A7860F300020A700A78430863F3470290
:105360000A704A78000A60F300024A704A784308DB
:1053700063F341024A704A78830863F382024A70F9
:10538000C208487862F3C300487038BD00F0F700E7
:10539000D6E70000100000202DE9F84F05465148DF
:1053A000514900242844884213D950485049284480
:1053B000884201D801240CE04E484F4928448842D5
:1053C00001D8022405E04D484D492844884200D8C0
:1053D0000324FFF719FB0646FFF788FA0746FFF795
:1053E0005BFAA91907FB0016FFF74EFB401C00F003
:1053F000FF08002C6ED0012C6AD0022C66D0032C42
:1054000006D1404867E0002000E00120FEF79EFA48
:105410003046FFF731FFDFF8F0908246D9F80400FC
:10542000FBF7B8F907460E464FEA8840FBF7B2F99A
:105430003A463346FBF709F9064634480F46005D05
:105440006843FBF7A7F932463B46FBF78CF8FBF7BE
:10545000DBF9C0F3445242EA4A118DF80010410BC7
:105460008DF8011041098DF8021028496A46091D7E
:10547000095D41EAC0008DF8030004210820FEF711
:105480006BF923490A7860F300020A700A7843082E
:1054900063F347020A704A78000A60F300024A7018
:1054A0004A78430863F341024A704A78830863F3F9
:1054B00082024A70C208487862F3C300487099F8C3
:1054C000000001280AD00020BDE8F88F114802E052
:1054D000114800E01148864297D294E7FEF772FD2A
:1054E000F2E7000080A9A0D160D9AC0A801BFEE8D9
:1054F000E0851205409F2DEE2077FC02C0701EF75C
:1055000020418E01E2F49C090800002064EB0008B1
:1055100010000020C4E93913068DA2190B1A453377
:1055200038B504466A4601211820FEF745F89DF873
:1055300000006A4600F0F80020438DF800000121C9
:105540001820FEF709F90F490A7860F300020A7083
:105550000A78430863F347020A704A78000A60F346
:1055600000024A704A78430863F341024A704A785D
:10557000830863F382024A70C208487862F3C3006A
:10558000487038BD1000002038B50D460446FFF7BE
:105590000DFA2946FFF7E2FA8DF80000C4F1170072
:1055A000C0B26A460121FEF7D7F80F490A7860F3C6
:1055B00000020A700A78430863F347020A704A78C7
:1055C000000A60F300024A704A78430863F341021C
:1055D0004A704A78830863F382024A70C2084878A6
:1055E00062F3C300487038BD1000002038B504468F
:1055F0006A4601219E20FDF7DFFF9DF80000012C87
:1056000028D000F07F0000BF8DF800006A4601211D
:105610009E20FEF7A1F811490A7860F300020A7093
:105620000A78430863F347020A704A78000A60F375
:1056300000024A704A78430863F341024A704A788C
:10564000830863F382024A70C208487862F3C30099
:10565000487038BD40F08000D6E700001000002000
:1056600038B5054600208DF8000001216A4608463D
:10567000FDF7A2FF254C217860F30001217021780D
:10568000420862F3470121706178000A60F300016B
:1056900061706178420862F341016170617882084B
:1056A00062F382016170C108607861F3C3006070C9
:1056B0009DF80000012D26D020F040008DF800005C
:1056C00001216A460846FEF747F8217860F3000199
:1056D00021702178420862F3470121706178000A45
:1056E00060F3000161706178420862F3410161700A
:1056F0006178820862F382016170C108607861F3A9
:10570000C300607038BD40F04000D7E710000020B3
:1057100001494860704700000800002038B5184C67
:105720006A460221C020FDF747FF217860F300019F
:1057300021702178420862F3470121706178000AE4
:1057400060F3000161706178420862F341016170A9
:105750006178820862F382016170C108607861F348
:10576000C300607020789DF801108842D8D160781D
:105770009DF8001000F00F008842D1D138BD000024
:105780001000002001B56A4601215420FDF7E4FF16
:105790000F490A7860F300020A700A78430863F33D
:1057A00047020A704A78000A60F300024A704A7899
:1057B000430863F341024A704A78830863F3820224
:1057C0004A70C208487862F3C300487008BD000000
:1057D0001000002038B505466A4602214F20FDF72B
:1057E000EBFE294C217860F30001217021784208FA
:1057F00062F3470121706178000A60F30001617073
:105800006178420862F3410161706178820862F355
:1058100082016170C108607861F3C30060709DF817
:10582000000005F0080100F0BF0040EAC1008DF85B
:1058300000009DF801006A4600F01F0040EA451094
:105840008DF8010002214F20FDF786FF217860F3DB
:10585000000121702178420862F3470121706178CC
:10586000000A60F3000161706178420862F341014F
:1058700061706178820862F382016170C1086078AA
:1058800061F3C300607038BD1000002030B587B0F0
:1058900001F092F801F08AFB06F00CF909F05AF9D0
:1058A00004F066FB0021244804F0B6FB03F0C2FCC0
:1058B0002248008804F01AFF214D00242868049033
:1058C0006868059004A803F0D9F903F06BFC1D4843
:1058D000006A804702F059F91B482968016069682D
:1058E000416004F0AFFE0021184804F095FB48F237
:1058F000FE00ADF80000ADF80440ADF80840ADF88A
:105900000C40ADF80240ADF80640ADF80A40ADF8E5
:105910000E400D49684607F071FE012200216846DD
:1059200007F0D2F904F0EEF8094800F0FBFE09F0A8
:1059300013F907B030BD00003803002078030020C1
:105940007A030020D8ED0008840100202C010020FB
:105950002CED000810B5FBF7A5FEBDE81040FBF7E5
:10596000F7B9000010B594B014210DA8FAF761FC46
:1059700034216846FAF75DFC0220002401210391DE
:10598000CDE9000410210491CDE9090480040B90B5
:1059900000010C906846FCF747F900BB124801680B
:1059A00041F080510160006800F0805012900F4873
:1059B000016821F4C05141F4006101604168C943AC
:1059C000C906FBD50F200D900320CDE90E041094DD
:1059D00001210DA81194FBF7C1FF002801D0FBF7AE
:1059E00049FA14B010BD0000243802400070004095
:1059F0000F48016841F4807101600D4908310A685F
:105A00000C4B1A400A6002680B4B1A400260026895
:105A100022F480220260086820F47D0008600020E3
:105A2000091D086005494FF00060086070470000DC
:105A3000003802400CC0FF88FEFFFEEE08ED00E0DB
:105A400004496FF001000968086103480168491CB6
:105A500001607047D439002084030020F0B502684B
:105A60004FF0804C164B174C174D184E604507D021
:105A7000984205D0A04203D0A84201D0B04205D13F
:105A800022F070074A683A4360450DD098420BD027
:105A9000A04209D0A84207D0B04205D00C4B984292
:105AA00002D00C4B984203D122F44073CA681A43C7
:105AB00002608A68C2620968816201214161F0BDA9
:105AC0000004004000080040000C004000080140B5
:105AD000000C01400010014010B5846842EA032226
