:020000040800F2
:10000000C808002081530008595100085B510008BE
:1000100000000000000000000000000000000000E0
:100020000000000000000000000000005F51000818
:10003000000000000000000061510008635100084A
:10004000072200081F2400081B2F00081F2F00088C
:100050002F3500086F5100088F510008AF5100087C
:10006000673600081753000823530008E1530008BF
:10007000E3530008E553000800000000E7530008C0
:1000800000000000E953000800000000000000002C
:10009000EB53000800000000ED530008EF53000888
:1000A000F1530008F3530008F5530008F753000814
:1000B000F9530008FB530008FD530008FF530008E4
:1000C000F0B587B00400A0206946C87000AAD21C11
:1000D00001219F2001F078F80020205E01F084FAD1
:1000E00001000D00606801F08BFA290001F097FA19
:1000F000B74901F0ECFA01F03FFB0700632001F083
:100100003DF900206946087068460078FF2805D050
:1001100068460078401C69460870F5E701F04AFB24
:10012000AC480078C0B24008C0B24028E9D1AA4823
:100130000068AA49884203D2002000F03EFF02E096
:10014000012000F03AFF622001F018F90020694612
:10015000087068460078FF2805D068460078401C83
:1001600069460870F5E701F025FB9A480078C0B2AF
:100170004008C0B20328E9D1380001F035FA9121D6
:10018000C90501F04CFA05009348006801F038FAFF
:100190000100280001F09BFA01F0EEFA060036B2E9
:1001A00030120007000F05A98870300005A9C8703B
:1001B000A068400288490968890901F02EFB401CAB
:1001C00069460875606801F045FD00AA521C0121CE
:1001D000A32001F05FF868464078FD2101406846A1
:1001E000417000AA521C0121A32000F0EDFF03AAD8
:1001F00003A9491C206900F03DFB6846407B694625
:100200000874607B6946097B014304A8417000AA19
:10021000521C01211C2001F03DF801AA921C01A9E9
:10022000C91C606900F07CFC684680790001694661
:1002300049780822114001436846C079084304A95F
:10024000887001AA01A9491CA06900F0BDFB68469D
:100250004079000169460979014304A8C1705E48EC
:100260000068000B01F0CCF901005D4801F02FFAA5
:100270005C4901F00BFD0500280001F097FD01F03D
:10028000BFF90100280001F039FD574901F0A2FD36
:1002900006D8280001F070FA401C6946887004E016
:1002A000280001F083FD694688704B4800684B497F
:1002B000884204D26846807805A9487024E0464800
:1002C0000068400B01F09CF90100454801F0FFF97E
:1002D0000100444801F0DAFC0500280001F066FD49
:1002E00001F08EF90100280001F008FD3E4901F0FF
:1002F00071FD04D8280001F03FFA401C02E02800FC
:1003000001F054FD05A9487000AA921C01210720A4
:1003100000F05AFF02902F4802A90A7802704A782A
:1003200042702D480068314988420CD32A48006841
:1003300040082F49884201D3012000E00020C0B2CC
:1003400000F058F80AE0244800682949884201D39F
:10035000012000E00020C0B200F04CF822000C3276
:1003600001216C2000F030FF05AA04210C2000F0D0
:100370002BFF04AA04211A2000F026FF0290154842
:1003800002A90A7802704A784270012000F066FDE6
:10039000802069460875E32005A9487005AA022156
:1003A000992000F011FF02900A4802A90A78027011
:1003B0004A78427022206946087505AA0121BC20AE
:1003C00000F002FF606800F04BF907B0F0BD0000DC
:1003D00000247449080A0020040A002080C3C901CF
:1003E00020D5AF49000080C20100003F81C3C90190
:1003F00040787D011CB504000020694608706A46FB
:100400000121012000F046FF0190114801A90A785E
:1004100002704A784270E4B2012C06D16846007836
:10042000402101436846017005E068460078BF211D
:100430000140684601706A460121012000F0C4FEB7
:100440000190034801A90A7802704A78427013BDEE
:10045000080A0020F0B504000025002600276148A6
:10046000844205D36048844202D20620070019E086
:100470005E48844205D35E48844202D20C200700C5
:1004800010E05C48844205D35B48844202D21020CD
:10049000070007E05948844204D35948844201D2F6
:1004A000202007002000FA21890001F0B6F9FFB2F0
:1004B000784306005348C08BFA21890041438E429D
:1004C00002D30F20050014E0002005006DB20F2DAF
:1004D0000BDA4C486DB202216943405AFA21890077
:1004E0004143B14201D26D1CF0E76DB2002D00D046
:1004F0006D1E6DB22800082101F08CF90800C0B211
:10050000F0BD000000B583B06A460421082000F069
:10051000C1FE0190504801A90A7802704A784270E1
:1005200068460078C006C00E400569464978490310
:10053000401869468978490140186946C978C90850
:1005400040180EBD00B583B06A4601210B2000F0B3
:10055000A1FE0190404801A90A7802704A784270D1
:10056000684600784007400F012801D1002010E0C4
:10057000684600784007400F032801D1012008E0B9
:10058000684600784007400F042801D1022000E0AF
:1005900003200EBD00B583B06A4601216C2000F037
:1005A00079FE01902C4801A90A7802704A784270BD
:1005B000684600780EBD00B583B06A4601210C2064
:1005C00000F068FE0190244801A90A7802704A7878
:1005D000427068460078214909684843C00B0EBD47
:1005E0000000000080565F2EE12F0C3980E40117D7
:1005F000616A141CC060D211E1D7CE14408FE108AB
:1006000061D06F0AD052000830B583B06A4602212B
:100610000E2000F03FFE01900F4801A90A780270F9
:100620004A78427068460078000269464978451861
:10063000280504D52800F0252D02054301E02D05ED
:100640002D0D2C0024B20548006860438021C902AA
:1006500001F0E0F83EBD0000080A0020040A002076
:10066000F0B589B0040000257A48844205D37A4861
:10067000844202D20020050019E07848844205D364
:100680007748844202D20120050010E07548844278
:1006900005D37548844202D20220050007E0734862
:1006A000844204D37248844201D203200500FFF73C
:1006B000ABFF0890FFF77FFF0700FFF76BFF69466E
:1006C0000874089820186946097C794340180590F9
:1006D00000F05AFC0600761CEDB2002D28D0022D49
:1006E0000ED019D3032D2ED10598AE49884203D2DE
:1006F000002001F00FFC02E0012001F00BFC22E0E1
:100700000598A949884203D2002001F003FC02E0C9
:10071000012001F0FFFB16E00598A449884203D2AE
:10072000002001F0F7FB02E0012001F0F3FB0AE0FA
:1007300005989F49884203D2002001F0EBFB02E0BC
:10074000012001F0E7FB0598FFF784FE6946487435
:100750009848EDB2405D604301F00AFC02900391BD
:10076000F6B28020C002704301F0F8FB00900191C6
:100770009148006801F0FCFB02000B000098019911
:1007800001F006FC029A039B01F063FC01F024FDDA
:1007900007900798400DC006C00E6946497C490184
:1007A0000143684601760798400B06A948700798F0
:1007B000400906A988700798C0008049EDB2495DDC
:1007C000014306A8C17006AA0421082000F0FCFC21
:1007D00000907B4869460A7802704A7842707948EE
:1007E0000078012802D101F035F900E0002009B0BD
:1007F000F0BDFEB5FFF786FE0290FFF7A3FE0500F1
:1008000000F0C2FB0400641C029801F0B1FB0090F0
:1008100001916948006801F0ABFB06000F00E4B2EB
:100820006448EDB2405D60438021C902484301F055
:1008300095FB02000B003000390001F0A9FB009A83
:10084000019B01F006FC01F0DFFC01F0C5FCFEBDE0
:100850000000000080565F2EE12F0C3980E4011764
:10086000616A141CC060D211E1D7CE14408FE10838
:1008700061D06F0AF4B584B006000F00002069460D
:1008800048700F24002500F0BCFB05006846407846
:10089000002810D164B2002C0DD447480068142100
:1008A000091B4919C840864203D301206946487094
:1008B000ECE7641EEAE764B2002C02D5002464B2BF
:1008C00000E064B20498047001201721091B8840DD
:1008D0007043394909682A00521DD14000F09DFF3C
:1008E000694608700021C9B2032923DA68460078F6
:1008F000C9B24018401E002814D068460078C9B21A
:100900004218FF322C4803682800401DC3405A4358
:100910001720001BC240B01A01AAC9B202234B43E0
:10092000D05205E0B14801AAC9B202234B43D052CC
:10093000491CD8E7AE480021C9B203292FDA01AA21
:10094000C9B202234B43D25E012A05DB01AAC9B218
:1009500002234B43D25E05E001AAC9B202234B43F6
:10096000D35E5A4280B2824217DA01AAC9B2022388
:100970004B43D25E012A05DB01A8C9B202224A43D9
:10098000805A05E001A8C9B202224A43825E504261
:100990006A4612785218521E3A70491CCCE705B0CC
:1009A000F0BD0000E2F49C09C4E93913068DA219D8
:1009B0000B1A4533D8530008040A0020DC53000802
:1009C000080A0020C2000020F6B585B0050001200D
:1009D0006946487100F015FB002803D002206946E3
:1009E000487102E001206946487182480068694602
:1009F000497900F012FF642100F00FFF060000208B
:100A0000040064B25A2C0CDA7B4864B202216143C0
:100A1000405A7043794900F000FF854201D2641CBE
:100A2000EFE764B2002C6BD0684604710027FFB278
:100A3000032F30DA694604200856FFB2C019401E61
:100A4000002807D5694604200856FFB2C019401E89
:100A50005A2818DA2900009167486A46042151563D
:100A6000FFB2C919022251434018801E008870430A
:100A7000624900F0D2FE0099081A02A9FFB20222D0
:100A80007A43885205E0594802A9FFB202227A430C
:100A900088527F1CCBE756480021C9B203292FDAC0
:100AA00002AAC9B202234B43D25E012A05DB02AA85
:100AB000C9B202234B43D25E05E002AAC9B20223A7
:100AC0004B43D35E5A4280B2824217DA02AAC9B2BD
:100AD00002234B43D25E012A05DB02A8C9B20222DF
:100AE0004A43805A05E002A8C9B202224A43825E04
:100AF00050426A4612795218521E1400491CCCE723
:100B000064B22000092100F085FE0699087064B2E5
:100B10002000092100F07EFE0598017007B0F0BDAD
:100B2000F6B585B0060000253248006800F068FD83
:100B30009121C90500F0CBFD070000200400E4B2BC
:100B40000A2C16DA0120A04001F008FA00222C4BF2
:100B500001F07FFA01F040FB00F052FD390000F097
:100B60005EFD01F023F903900398864201D3641CD3
:100B7000E5E70698047000200400E4B2082C27DAA8
:100B80000295E4B2200001F0F3F900221D4B01F0C0
:100B90005FFB00228023DB0501F0FAF90090019150
:100BA000012006990978884001F0D8F9009A019B44
:100BB00001F04FFA01F010FB00F022FD390000F0C7
:100BC0002EFD01F0F3F80500AE4201D3641CD4E71A
:100BD000059804700298301AA91B884204D205981F
:100BE0000078401E0599087007B0F0BDFF7F000037
:100BF000FFFF0000040A0020304F0008280A000010
:100C000000001E4000002040F0B583B004000D003D
:100C10000027564884420AD35548844207D2002010
:100C20000600544884421CD20120060019E05248B4
:100C3000844205D35148844202D20220060010E0CB
:100C40004F48844205D34F48844202D20320060015
:100C500007E04D48844204D34C48844201D204202A
:100C600006000120070028008021090401F0B2F8E5
:100C700022D847484749F6B2182272438918896832
:100C800000F025FD00904348F6B21821714340184A
:100C9000C0684049F6B2182272438918896800F08A
:100CA00016FD0100009801F029F8290001F0A4FBCD
:100CB00002D20020070028E028008021090401F06A
:100CC0009BFB22D242483349F6B21822724389185C
:100CD000896800F0FCFC00902E48F6B218217143A0
:100CE0004018C0682B49F6B21822724389188968E7
:100CF00000F0EDFC0100009801F000F80100280070
:100D000001F07AFB01D2022007002248F6B2182136
:100D100071434018FFB2082179434058290000F080
:100D20007EFC1C49F6B2182272438918FFB20222D7
:100D30007A4304235A438918496800F0A7FF0190B9
:100D40000198FE21890501F057FB03D2FE208005A2
:100D5000019006E001981F4901F03CF801D81E48B7
:100D60000190019800F008FDC0B2FEBD80565F2ED4
:100D7000E12F0C3900E9A43580E40117616A141CE5
:100D8000C060D211E1D7CE14408FE10861D06F0A64
:100D900000005041E05000087CB505000C00FFF752
:100DA00028FD2100FFF730FF694608701720401B1F
:100DB00006006A4601213000C0B200F005FA019039
:100DC000254801A90A7802704A78427073BD000074
:100DD000000020420100B4420000B4421CB50400EF
:100DE0006A460121182000F055FA6846007880060E
:100DF000800E69460870684600782043694608708E
:100E00006A460121182000F0DFF90190124801A97B
:100E10000A7802704A78427013BD1CB504006A4615
:100E20000121182000F036FA68460078F8210140C8
:100E300068460170684600782043694608706A4633
:100E40000121182000F0C0F90190034801A90A7897
:100E500002704A78427013BD080A00201CB50400D5
:100E60000020694608706A4601211E2000F012FA2F
:100E7000E4B2012C06D1684600788021014368461F
:100E8000017005E0684600784006400E694608702B
:100E90006A4601211E2000F097F90190034801A93C
:100EA0000A7802704A78427013BD0000080A0020D8
:100EB0001CB504006A460121272000F0EBF9E4B2DA
:100EC000012C06D168460078102101436846017064
:100ED00005E068460078EF210140684601706A46E7
:100EE0000121272000F070F90190544801A90A78E7
:100EF00002704A78427013BD1CB504006A46012195
:100F0000522000F0C7F9E4B2012C06D168460078FF
:100F1000022101436846017005E068460078FD2122
:100F20000140684601706A460121522000F04CF9E8
:100F30000190424801A90A7802704A78427013BDB4
:100F40001CB504006A4601219E2000F0A3F9E4B21A
:100F5000012C06D168460078802101436846017063
:100F600005E0684600784006400E694608706A460B
:100F700001219E2000F028F90190304801A90A784B
:100F800002704A78427013BD00B583B06A460121F1
:100F90009E2000F07FF90190284801A90A7802708C
:100FA0004A78427068460078C0B2C009C0B20028D2
:100FB00001D0012000E000200EBD1CB504006A46EF
:100FC0000121B42000F066F9E4B2012C06D1684694
:100FD0000078F72101406846017005E06846007816
:100FE00008210143684601706A460121B42000F0DF
:100FF000EBF80190114801A90A7802704A78427012
:1010000013BD00B583B06A460121B42000F042F957
:1010100001900A4801A90A7802704A78427068462D
:101020000078C010C00701D5002000E001200EBDEF
:10103000034800687047024908607047080A0020AA
:10104000040A002080B5CA4801F000FD00282BD119
:10105000C848C74908600820C549C8610020C4497C
:1010600088600020C24948610020C1490861002011
:10107000BF4988620720BE49C8620020BC49C860D9
:101080000020BB49086280208000B94988610020A7
:10109000B749486282204000B5494860B44800F032
:1010A00004F8B34801F0BCF901BD10B586B00400E6
:1010B0002068B049884268D1AF48006802210143E6
:1010C000AD480160AC4800680221084000900098DB
:1010D000A948006801210143A7480160A6480068AB
:1010E0000100C907C90F00910098A34800680121B9
:1010F0000143A1480160A04800680100C907C90F69
:101100000091009802200290012003900320049097
:10111000002005900820019001A9C54801F016FDA6
:1011200002200290022003900320049000200590EA
:101130004020019001A9A020C00501F007FD8020FA
:10114000019001A9A020C00501F000FD8A480068B7
:101150000221014388480160874800680221084055
:1011600000900098402001900120029001200390FF
:101170000320049001A9AE4801F0E8FCAD480068E6
:10118000802149010143AB48016006B010BD11B593
:1011900081B00024DC48006880688007FAD5A64842
:1011A0000368012201A9D84801F09EF90400E4B2C5
:1011B000002C01D000F001F813BD80B5D24801F039
:1011C00076F9FFF73FFF01BDF1B582B00D001400C5
:1011D00001A8801C0021018000206946888001AFA1
:1011E0000020694688716846007A01A9891C487008
:1011F000002304220421032001F038FE00224021B4
:101200008B4801F08CFD0020694608806846008804
:10121000FF2805DC68460088401C69460880F5E721
:10122000854800680090012301AA01A9891C504843
:1012300001F04EFA684680880002694688807E4840
:1012400000680090012301AA01A8801C411C4848A5
:1012500001F03EFA0026EDB2AE4204DAA05DFFF7DF
:1012600096FF761CF7E74248006880688007FAD549
:10127000012240216E4801F052FD01230422042185
:10128000032001F0F3FD68463978017079784170E8
:101290000098FEBDF1B584B00E001500002069462F
:1012A000888001AF02A800210180FF206946887173
:1012B0000120694608726846007C02A94870002334
:1012C00004220421032001F0D1FD002240215848CE
:1012D00001F025FD00206946088068460088FF2847
:1012E00005DC68460088401C69460880F5E75248DE
:1012F00000680090012301AA02A91D4801F0E8F945
:10130000684680880002694688804B4800680090E3
:10131000012301AA02A8411C154801F0D9F90024B3
:10132000F6B2B4420BDA44480068009001232A194F
:1013300001A9891C0E4801F0CBF9641CF0E70C48A8
:10134000006880688007FAD501224021384801F002
:10135000E6FC012304220421032001F087FD6846F6
:101360003978017079784170009805B0F0BD0000BF
:1013700088090020003001402C10024030B583B0B5
:10138000050001A8801C002101800020694688809A
:1013900001AC80206946887101A8801C457000233B
:1013A00004220421032001F061FD00224021204895
:1013B00001F0B5FC00206946088068460088FF28D7
:1013C00005DC68460088401C69460880F5E71A4835
:1013D00000680090012301AA01A9891C4A4801F074
:1013E00077F968468088000269468880124800685C
:1013F0000090012301AA01A8801C411C424801F071
:1014000067F94148006880688007FAD501224021C9
:10141000074801F084FC012304220421032001F089
:1014200025FD6846217801706178417000983EBDC5
:1014300000040050341002402C000020F0B583B0AE
:1014400005000C0000206946888001AF01A8801CBF
:1014500000210180002069468871FF2001A9891CB4
:101460004870002304220421032001F0FFFC002225
:1014700040215A4801F053FC002069460880684624
:101480000088FF2805DC68460088401C6946088003
:10149000F5E7534800680090012301AA01A9891CBF
:1014A000194801F015F9684680880002694688806D
:1014B0004B4800680090012301AA01A8801C411C30
:1014C000114801F005F90026EDB2AE4204DAA05D44
:1014D000FFF75DFE761CF7E70B4800688068800721
:1014E000FAD5012240213D4801F019FC01230422D4
:1014F0000421032001F0BAFC68463978017079783C
:1015000041700098FEBD000088090020FEB506006D
:101510000D0000206946888001AFFF206946887170
:10152000012069460872FF2002A9487000230422A6
:101530000421032001F09AFC00224021274801F0F9
:10154000EEFB00206946088068460088FF2805DC1D
:1015500068460088401C69460880F5E72048006816
:101560000090012301AA02A91E4801F0B1F86846C3
:10157000808800026946888019480068009001232D
:1015800001AA02A8411C174801F0A2F80024F6B2F3
:10159000B4420BDA12480068009001232A1901A90D
:1015A000891C104801F094F8641CF0E70D480068AD
:1015B00080688007FAD501224021084801F0AFFB7E
:1015C000012304220421032001F050FC68463978ED
:1015D0000170797841700098FEBD00000004005051
:1015E0002C000020880900209D2102000AD5F44625
:1015F000524200F007F80122D20710436047000072
:101600009D2102000AD002D4491E9218FCD5C905BA
:10161000100A1206524100D3012A4841704730B4E3
:1016200005004D400122D20715404B180418240E26
:101630002ED01B0E32D0FF2C34D0FF2B3AD0E41822
:101640000002090210431143000A090A9446C2B27B
:101650004A43000AC3B24B43000A4843110A5B18CD
:101660001A43D2B2190A091801D44918641E080A8B
:101670007F3C23DBFE2C08DAE405090611436346B0
:1016800099416041284330BC7047FF20C005F9E70D
:1016900028001B0EFF2BF6D1D043F4E72800FF2CC7
:1016A000F1D1F9E74002F7D1FF2B01D14902F3D183
:1016B000E005E7E7D8054902E4D0EDE74302002062
:1016C000641CDFD15B129B1CDCD9D805DAE730B48F
:1016D00005004D400122D20715404B180418240E76
:1016E00028D01B0E2FD0FF2C34D0FF2B37D0E41A7C
:1016F000000209021043114343084808D10D1B1A88
:1017000002D2641EDB181B18DB18834200D31B1A9D
:101710004941F9D37F3426DDFE2C08DAE405480878
:10172000C907194391416041284330BC7047FF20ED
:10173000C005F9E728001B0E03D0FF2BF5D14902A5
:10174000F3D0D043F1E7FF2C01D14002F9D1FF20C3
:10175000C005E9E74002F4D1FF2BF8D1F1E72800FA
:101760004902E2D0EDE70B0200202442DCD15B12FB
:101770009B1CD9D9D805D7E70122D2070118090E39
:101780007F3910D449421F310FD4001805D2C0014F
:101790001043C84000D5D0437047C0011043C84033
:1017A00005D440427047002070470042F3D5100036
:1017B0007047100080B56A460221C020FFF76AFD1D
:1017C0000849086007480078694649788842F2D19C
:1017D000044840780007000F694609788842EAD13A
:1017E00001BD00BF080A0020F446002804D4494285
:1017F00000F013F8404260474042002905D45FD012
:1018000000F00BF8404249426047494200F005F8B9
:101810004942604703460B43E6D40022030A8B4249
:101820000BD203098B4219D243088B422ED2411AA4
:1018300000D20146524110467047FF2209023FD0B4
:1018400012068B4205D3121209028B4201D31212E7
:10185000090203098B4219D300E0090AC3098B422C
:1018600001D3CB01C01A524183098B4201D38B01B2
:10187000C01A524143098B4201D34B01C01A524155
:1018800003098B4201D30B01C01A5241C3088B429A
:1018900001D3CB00C01A524183088B4201D38B0085
:1018A000C01A524143088B4201D34B00C01A524127
:1018B000884200D3401A5241CFD2014610467047A9
:1018C00008B501F02BFB08BDF0B589B004006048F5
:1018D000844206D3BA48844203D200206946087481
:1018E00016E0B848844206D3B748844203D20120A8
:1018F000694608740CE0B548844206D3B448844273
:1019000003D202206946087402E003206946087485
:10191000FEF77AFE0890FEF74EFE0700FEF73AFE4D
:1019200069464874089820186946497C79434018EC
:101930000590FFF729FB05006D1C6846007C002818
:1019400028D002280ED019D303282ED10598C049DB
:10195000884203D2002000F0DDFA02E0012000F00E
:10196000D9FA22E00598BE49884203D2002000F04F
:10197000D1FA02E0012000F0CDFA16E00598B9494D
:10198000884203D2002000F0C5FA02E0012000F0F6
:10199000C1FA0AE00598B449884203D2002000F059
:1019A000B9FA02E0012000F0B5FA0598FEF752FD01
:1019B00069468874FFF73CFB0600200000F0D8FA67
:1019C00002900391EDB2A9486946097C405C6843E6
:1019D0008021C902484300F0C1FA00900191300013
:1019E00000F0C6FA02000B000098019900F0D0FA4E
:1019F000029A039B00F02DFB00F0EEFB0790079886
:101A0000400DC006C00E6946897C49010143684605
:101A100001760798400B06A948700798400906A967
:101A200088700798C00092496A46127C895C01431D
:101A300006A8C17006AA04210820FFF7C5FB009084
:101A40008C4869460A7802704A78427009B0F0BD45
:101A500080565F2EF0B583B000260025FFF7E8FA28
:101A600007000024844887420ED3FFF78DFA002830
:101A70000AD101200600FEF7BCFE01900120FFF70D
:101A80005FFA0198FFF720FFFEF7B3FE01902520D3
:101A9000694608706A460121A120FFF795FB0120E5
:101AA00000F0ACF9FFF786FE72480078C0B240083B
:101AB000C0B240280DD101200500622001F030FAAB
:101AC000FFF778FE6B480078C0B24008C0B2032828
:101AD000F6D1662001F024FA00200400FFF76AFE28
:101AE00064480078C0B24008C0B2132807D1200073
:101AF0000400641CC0B2052801D101205EE05D48ED
:101B00000078C0B24008C0B20F28E7D100F0A1F9B8
:101B100069464870622001F003FAFFF74BFE554812
:101B20000078C0B24008C0B20328F6D1652001F0A9
:101B3000F7F900200400FFF73DFE4E480078C0B2E0
:101B40004008C0B2132807D120000400641CC0B2B2
:101B5000052801D1012031E046480078C0B2400894
:101B6000C0B20F28E7D100F074F96946887062208E
:101B700001F0D6F9FFF71EFE3E480078C0B24008DB
:101B8000C0B20328F6D1EDB2012D02D1632001F0DD
:101B9000C7F9002000F032F9F6B2002E05D000207F
:101BA000FFF7CEF90198FFF78FFE6846407800F006
:101BB00063F96846807800F085F90020FEBD0000DA
:101BC000E12F0C3980E40117616A141CC060D21146
:101BD000E1D7CE1480B529480078002823D02848C2
:101BE00000682849884208D3254800682649884269
:101BF00003D2C020FFF7F2F802E00020FFF7EEF872
:101C00001120694608706A460121A920FFF7DCFA15
:101C10002020694608706A460121A520FFF7D4FA02
:101C200000201649087001BD80B5144800780128CD
:101C30000DD09820694608706A460121A520FFF75B
:101C4000C3FA0020FFF7CAF801200C49087001BD53
:101C5000E2F49C090221094A1170094908607047A1
:101C6000C4E93913068DA2190B1A4533D453000861
:101C7000D0530008080A002081C3C901C100002018
:101C8000000A002080D1F00881A1031C0122D207A4
:101C900003004B402ED4431A01D2C01AC91830B4E5
:101CA0004B180418240E1B0E22D0FF2C20D0E31A50
:101CB000182B1DDC09021143C40D641E00021043E1
:101CC00094461925ED1A0A00AA40D940451801D3B7
:101CD0006D08A41CE405D209280A2D062A4365468E
:101CE000AA41604103181B0EFF2B01D3C00DC00594
:101CF00030BC7047514006E05140CCE70122D2078A
:101D000003004B40F8D4431A03D2C01AC9185040FC
:101D1000514030B44B18090211430418240E1B0E15
:101D200040D0FF2C3AD025009D410BD31ED8C50DC5
:101D30004002401A0BD3ED050100400AC90591414C
:101D40006841D5E7C50D40024918401AD0D001219D
:101D50004008491C0018FCD58C4204D36D1A000AB7
:101D6000ED054019C4E7E8051040C1E7182DBFDCB8
:101D7000AC1C0D00E140E5414D40012D4941C40D31
:101D800000021043451A01D46D199543641EE40501
:101D9000280A2D069541604130BC7047FF2BA7D122
:101DA000D843A5E72442A3D10020A1E700180ED212
:101DB000010E7F390BD449421F3105D4C0010122E5
:101DC000D2071043C84070470020401E70470020D3
:101DD000704720000CB4012212060318DA4207D81B
:101DE0004B18DA4204D802000A43921802D2814208
:101DF0000CBC7047FCD088420CBC70471CB504007A
:101E00006A4601215020FFF745FA0190404801A998
:101E10000A7802704A784270E4B2012C06D1684612
:101E20000078022101436846017005E068460078A9
:101E3000FD210140684601706A4601215020FFF7EC
:101E4000C3F90190324801A90A7802704A784270B9
:101E500013BD00B583B06A460121E520FFF71AFAE9
:101E600001902B4801A90A7802704A7842706846AE
:101E700000784006400E0EBD1CB504006A460121E4
:101E80006E20FFF707FA0190214801A90A78027035
:101E90004A78427068460078802108406946087098
:101EA000684600782043694608706A4601216E2022
:101EB000FFF78AF90190164801A90A7802704A785A
:101EC000427013BD1CB504006A4601216F20FFF764
:101ED000E1F901900E4801A90A7802704A7842702F
:101EE0006846007880210840694608706846007896
:101EF0002043694608706A4601216F20FFF764F9A4
:101F00000190034801A90A7802704A78427013BD13
:101F1000080A002010B582B004006A4601219E2004
:101F2000FFF7B8F968460078F9210140684601706A
:101F3000E4B2012C06D168460078022101436846CC
:101F4000017005E06846007804210143684601708D
:101F50006A4601219E20FFF737F913BD010009D51C
:101F6000F446404200F006F80122D20711436047D0
:101F7000010000BF42221201D21E004207D002D44B
:101F8000521E0018FCD5C10A400512058918704779
:101F9000F0B40E005E400125ED072E40B446AE0AB7
:101FA000DF184C18F4423BD2F74241D2640D43D0C3
:101FB0007F0D38D0E41BC902DB0229432B43CF0A33
:101FC000DB0A0600B61A9F4104D2641EB6197F418F
:101FD000B6185F416812800D24180018844222DA76
:101FE000E80C0021B6197F41B61A9F4102D2B618FB
:101FF0005F413F1C40414941F4D3241C21DD2405AD
:10200000B6197F41B61A9F4105D33743C6073743F8
:102010000026012F7041614166463143F0BC704794
:10202000FCD1F74205D20020C14349054908F3E736
:1020300004D00020C143F1E77F0DFAD000206146B3
:10204000ECE72442FAD1401C61410F03F6D3002093
:10205000E2E7F0B50E005E400125ED072E40B446E4
:10206000AE0ADF184C18F44208D2F7420ED2640DC3
:1020700001D07F0D12D100206146F0BD05D1F7429D
:1020800001D87F0D05D10020C143F0BDFBD1640D07
:10209000F9D00020C143490549088FE0E419C9027D
:1020A000DB0229432B43DB0A460DC00231438E4637
:1020B00030B487B295B27D432E0CADB2140C7C4384
:1020C000A419260C240425439CB27C43A419190CA2
:1020D0007943270CC919A4B20F043C43090C000C26
:1020E00097B247432E0CBE193543ADB2170C474388
:1020F000360CBF19A6B2BF193E043543240C3E0C62
:1021000036199FB24743BF19BCB23E0C89191F0C48
:1021100047437F183E043443390C704680B297B26F
:1021200047432E0CBE193543ADB2170C4743360C4E
:10213000BF19A6B2BF193E043543240C3E0C361914
:102140009FB24743BF19BCB23E0C89191F0C4743CD
:102150007F183E043443390C77463F0C90B27843E5
:102160002E0C80190604ADB22E43050CA0B22D181A
:10217000120C7A435019020C80B2240CA4189AB2A3
:102180007A43121914042043120C89181B0C7B4348
:10219000C91830BCEF0A394203D1B6194041494150
:1021A000641E6F12BF0DE41B0BDBFF19BC4211DA7A
:1021B000240500274208AE4178416141664631431B
:1021C000F0BD641C05D1401C6141CF0201D3490818
:1021D000F4E750E75DE700204A1812D2400DC9022B
:1021E00008430121C9070843520D40210901521A31
:1021F000521C06D452421F3201D4D0407047C0173F
:10220000704700207047FEE783B50121684600F063
:1022100099FE401E012813D90021684600F092FE65
:1022200000280DD00198002868460CC802D500206F
:10223000054901E00020054900F00AF86A4603C29A
:10224000684603C803B000BD0000F0BF0000F03FC7
:10225000F0B40125ED070F005F404FD48B4200D151
:10226000824205D98446100062468C4619006346B6
:10227000DF184C18640D7F0D3AD0661C760537D0F8
:10228000E61B352E34DCDB022B43DB0A0C0DC902C6
:102290002943C912202E0DDB1700203E06D01F0057
:1022A000F741F3405F400026012A7741C018714191
:1022B0000DD217E01700F741F2405740F3415A4062
:1022C000B340F3405A400026801859410AD3A21C5B
:1022D00052050FD0C207012F724117004008CB07EB
:1022E00018434908641C24054208AF41704161410C
:1022F000F0BC7047641C21050020F9E76B400AE040
:102300006B40ABE7F742F3D1E943F1E72442EFD169
:1023100000200021ECE70C00871A9C4105D2C01B6D
:10232000A141D219634169406B40AE0ADF184C18D5
:10233000F442E7D2640D7F0DE8D0E61B362ED7DCE1
:10234000DB022B43DB0AA4460C0DC9022943C90A50
:10235000012E28DC04D1D6075208DF073A435B0878
:10236000EF0A76429041994114D039423BD1B619D7
:1023700040414941761C394204D1761C001849413C
:102380003942FAD0B9436746B74208D9A41B24059D
:102390002143ADE70042EAD13642E8D1A8E7E40A9A
:1023A000E1070020A4E7202E0BDD203E1F00F340B4
:1023B000F7415F40012A002257417E4298419141F6
:1023C0000BE01700F741F2405740F3415A40B34049
:1023D000F3405A407E42904199410A0303D2641E61
:1023E000B619404149410027641E24054208AE4108
:1023F00078416141F0BC70470CB401221206031809
:10240000DA4207D84B18DA4204D802000A4392187D
:1024100002D288420CBC7047FCD08142FAE7FEE74A
:1024200010B50400002C01D101203FE05120205CB8
:10243000002805D10020502160542000FEF735FE11
:10244000022051216054206800684021884321689F
:1024500008606068A1680143E0680843216901439E
:1024600060690843A1698022920011400143E0693C
:102470000843216A0143A06A084321680860A069F3
:10248000000C04210840616A014320684160E06A51
:10249000216808612068C0698B4901402068C161DA
:1024A00000206065012051216054002010BD10B54E
:1024B0000400002C01D1012014E0022051216054BD
:1024C000206800684021884321680860200000F0EF
:1024D0000AF800206065002051216054002050213E
:1024E0006054002010BD7047F8B504000F001500BF
:1024F0001E005120205C012800D0E1E0002F02D016
:10250000ADB2002D01D10120DBE05020205C01287C
:1025100001D10220D5E00120502160541220512128
:102520006054002060652763A586E5860020E0648E
:102530000020A0640020A0630020A0870020E08786
:10254000A06A8021890188420CD1206800685F4917
:1025500001402068016020680068802189010143F2
:1025600020680160A06880210902884206D12068A5
:1025700000688021C901014320680160206800686B
:10258000400605D4206800684021014320680160AE
:10259000E068002832D16068002802D0E08E01286F
:1025A00008D1206B411C216300782168C860E08E4F
:1025B000401EE086E08E002813D033000022022166
:1025C000200000F046FA002801D0032079E0206BBB
:1025D000411C216300782168C860E08E401EE086BF
:1025E000E8E7A06A8021890188423BD12068006821
:1025F0008021490101432068016033E060680028C0
:1026000002D0E08E012809D1206B00882168C860C3
:10261000206B801C2063E08E401EE086E08E002848
:1026200014D0330000220221200000F012FA00280A
:1026300001D0032045E0206B00882168C860206B32
:10264000801C2063E08E401EE086E7E7A06A8021C0
:102650008901884206D12068006880214901014330
:1026600020680160330000220221200000F0F1F90F
:10267000002805D0606D202101436165032020E022
:10268000330001228021200000F0E3F9002805D06A
:10269000606D202101436165032012E0A0680028DD
:1026A00006D12068C068009020688068009000987B
:1026B000012051216054002050216054002000E08E
:1026C0000220F2BD00000000FFF7FFFFFFDFFFFF69
:1026D000F2B582B0040017001E00089D0020694674
:1026E00008805120205C012804D05120205C222841
:1026F00000D0A7E10298002804D0002F02D0B6B283
:10270000002E01D101209EE15020205C012801D142
:10271000022098E10120502160545120205C0128C2
:1027200002D132205121605400206065A763A68742
:10273000E68702982063A686E6860020A064002033
:10274000E064A06A8021890188420CD12068006879
:10275000BD4901402068016020680068802189012E
:1027600001432068016020680068400605D42068A5
:1027700000684021014320680160E0688021090170
:10278000884200D08CE06068002807D06068822111
:10279000490088420CD1E08E012809D1206B0088C5
:1027A0002168C860206B801C2063E08E401EE0869C
:1027B000E08E002820D1A06A80218901884206D1BC
:1027C00020680068802149010143206801602B00D6
:1027D00000220121200000F03CF9002801D0032054
:1027E00031E12068C068A16B0880A06B801CA063E9
:1027F000E08F401EE087D7E0E08E002837D02B0026
:1028000000220221200000F024F9002801D003203A
:1028100019E1206B00882168C860206B801C206350
:10282000E08E401EE086E08E00280BD1A06A802159
:102830008901884206D1206800688021490101434E
:10284000206801602B0000220121200000F001F926
:10285000002801D00320F6E02068C068A16B088042
:10286000A06B801CA063E08F401EE087C4E7606817
:10287000002800D098E02B0000220121200000F069
:10288000E8F8002801D00320DDE02068C068A16BD3
:102890000880A06B801CA063E08F401EE08783E06F
:1028A0006068002807D060688221490088420BD107
:1028B000E08E012808D1206B411C2163007821683B
:1028C000C860E08E401EE086E08E00281DD1A06A20
:1028D00080218901884206D1206800688021490151
:1028E0000143206801602B0000220121200000F03C
:1028F000B0F8002801D00320A5E02068C068A16BD3
:102900000870E08F401EE0874EE0E08E002835D052
:102910002B0000220221200000F09BF8002801D0AB
:10292000032090E0206B411C216300782168C8607F
:10293000E08E401EE086E08E00280BD1A06A802148
:102940008901884206D1206800688021490101433D
:10295000206801602B0000220121200000F079F89E
:10296000002801D003206EE0A06B411CA163216808
:10297000C9680170E08F401EE087C6E760680028E4
:1029800012D12B0000220121200000F062F8002863
:1029900001D0032057E0A06B411CA1632168C968E6
:1029A0000170E08F401EE087A06A80218901884283
:1029B00013D12B0000220121200000F04AF800284A
:1029C00005D0606D02210143616503203BE0206872
:1029D000C06869460880684600882B000122802173
:1029E000200000F036F8002805D0606D202101435A
:1029F0006165032027E0012051216054A06A8021F5
:102A00008901884219D120688068C00615D5606D9B
:102A1000022101436165206800680B49014020687C
:102A200001602068006880218901014320680160FD
:102A3000002050216054012005E000205021605406
:102A4000002000E00220FEBDFFDFFFFF5121405CBF
:102A50007047F4B504000F001D00002600F0E0FAF6
:102A6000060068460078002835D120688068384024
:102A7000B84266D00020C0438542F6D0002D04D075
:102A800000F0CEFA801B8542EFD220684068E0213A
:102A90008843216848602068006840218843216895
:102AA0000860A06A8021890188420CD120680068F2
:102AB0002549014020680160206800688021890163
:102AC0000143206801600120512160540020502101
:102AD0006054032036E0206880683840B84230D126
:102AE0000020C0438542F6D0002D04D000F098FAB3
:102AF000801B8542EFD220684068E021884321682E
:102B00004860206800684021884321680860A06A06
:102B10008021890188420CD1206800680A4901405F
:102B200020680160206800688021890101432068D5
:102B30000160012051216054002050216054032085
:102B400000E00020F2BD0000FFDFFFFFF0B5020053
:102B50000023002400250868D840002800D1DDE0CB
:102B6000086801269E4006403400002C00D1D3E0C6
:102B70004868022802D0486812281BD1D8080426C9
:102B800070431018006A05000F201E007607760FAC
:102B900004277E43B040854308691E007607760F00
:102BA00004277E43B04028430500D808042670431C
:102BB000101805624868012808D04868022805D026
:102BC0004868112802D0486812281CD19068050076
:102BD00003201E0002277E43B0408543C8681E00C4
:102BE00002277E43B04028430500956050680500E9
:102BF00001209840854348680600F606F60F9E407F
:102C00002E43350055601068050003201E00022782
:102C10007E43B040854308798007800F1E0002275D
:102C20007E43B040284305001560D06805000320AE
:102C30001E0002277E43B040854388681E0002279D
:102C40007E43B04028430500D5604868C00063D586
:102C500043480068012606434148066041489E08F3
:102C600004277E43805905000F201E00B607B60FCB
:102C700004277E43B0408543A020C005824201D195
:102C8000002014E03848824201D101200FE037488B
:102C9000824201D102200AE03548824201D103205C
:102CA00005E03448824201D1052000E006201E00E4
:102CB000B607B60F04277E43B040284305002948D5
:102CC0009E0804277E4385512B4800680500A543D4
:102CD0004868C00300D52543274805602748006899
:102CE0000500A5434868800300D5254323480560B7
:102CF000234800680500A5434868C00200D5254365
:102D00001F4805601F4800680500A5434868800209
:102D100000D525431B4805605B1C1CE7F0BD00B5D2
:102D2000D2B2002A02D089B2816101E089B2816207
:102D300000BD426989B24A404261704710B5040043
:102D400011480068A4B22040002806D0A4B20E4862
:102D50000460200080B200F0D9FB10BD000000002C
:102D600034100240080001400004005000080050E8
:102D7000000C0050001C00500004014004040140FD
:102D8000080401400C0401401404014030B587B030
:102D900004000D004E480068012101434C480160C9
:102DA0004B4800680100C907C90F009100984848C6
:102DB0000068042101434648016045480068042139
:102DC00008400090009842480068022101434048B2
:102DD00001603F4800680221084000900098EDB271
:102DE000022D02D10120029001E00020029039481A
:102DF000E4B202216143405A01903748E4B2042111
:102E00006143405803903548E4B20421614340587F
:102E1000049001A93248E4B2042262438058FFF7CB
:102E200095FEEDB2012D1FD12A48E4B20221614383
:102E3000405A01902848E4B204216143405803906D
:102E40002648E4B204216143405804902548E4B286
:102E5000042161434058029001A92148E4B20422B0
:102E600062438058FFF772FE07B030BDF8B504002A
:102E70000F0016001D00F6B23200FFB239001A48EA
:102E8000E4B2005D40B200F0BCFBEDB2002D06D113
:102E90001548E4B2005D40B200F0C4FB05E0124802
:102EA000E4B2005D40B200F0B6FBF1BD38B50400FD
:102EB0000D002A00D2B20748E4B202216143415A10
:102EC0000748E4B204236343C058FFF728FF31BD2D
:102ED0002C100240905300084C530008385300084F
:102EE0001400002060530008B453000880B501218D
:102EF0000420FFF7DBFF01BD80B500210420FFF7B0
:102F0000D5FF002000900098F0214901884203D2AB
:102F10000098401C0090F6E701BDFEE77047FEE711
:102F200010B582B004002000C0B2FEF727FA00906E
:102F3000034869460A7802704A78427013BD00BFA0
:102F4000080A002042685200520D1D4B9A4209D1D6
:102F50004168090304D10068002801D101207047AD
:102F60000220704743685B0028D0164B9A1A521A09
:102F7000012A23DB352A07DB416880221206114033
:102F800041600021016016E00121D306DB0E99406B
:102F9000491E920608D542680A4041685140416086
:102FA00003681343002103E003680B4001685940A4
:102FB0000160002B02D00020C04370470020704702
:102FC000FF0700003304000080B51D480068402161
:102FD00001431B4801601A48006802210143184858
:102FE0000160032000F004F800F03CFB002002BD6B
:102FF00010B5040013480068FA218900FEF70DFCA3
:1030000000F017FB002221000020C04300F0F9FA75
:10301000002010BD0C480068401C0B490860704738
:1030200009480068704711B581B00024FFF7F8FF28
:103030000400FFF7F5FF001B01998842F9D313BD87
:1030400000200240BC0000200C0A002080B5B048DF
:10305000C7490860C64800680068804701BDF9B5E7
:1030600081B00F00160000240025C2480078002817
:1030700015D001281CD0022843D0032800D193E0AA
:10308000042800D1AEE0052800D1C2E006286FD0A8
:10309000072800D1CCE0FF2800D1E3E0EBE0684650
:1030A000017A300000F036F90120B2490870E2E000
:1030B000B1480078002807D1B0480078002803D133
:1030C000C148007801281BD0AC480078012803D003
:1030D000BD480078002809D10020A84908700020C8
:1030E00000F008FB0020A349087009E0A24800781E
:1030F000002805D00020A049087002209D490870D2
:10310000B9E002A930009A4A1268126C90473078F0
:10311000AE49C8707078AD498870B078AB49087016
:10312000F078AA4948703079A84908710520040050
:1031300020006946097AC0B2884207D2E4B2305D05
:10314000A2498968E4B20855641CF1E79F48C07839
:10315000FF2802D10720874908709C48C0780128C1
:1031600005D1C820FFF75FFF05208249087082E083
:1031700001209A49C87001209849887093480078C6
:1031800096490870112095494870019893498860C4
:1031900092480771C820FFF746FF904800F06CF88E
:1031A00004207449087066E0FF208C49C870012033
:1031B0008A4988708A480088884908708848008849
:1031C000401C874908801120844948700198834930
:1031D000886082480771814800F04EF804206549F4
:1031E000087048E07F480078002811D000207D4911
:1031F00008707A48C078FF2803D100205D49087024
:1032000006E07648C078012802D1FF2059490870AD
:1032100031E0EDB2052D07DA002000F014FB642048
:10322000FFF701FF6D1CF4E7FF205249087022E010
:10323000002000F0E8FA00F06DFB6946087068466F
:103240000078EE2803D068460078FF2806D1C82011
:10325000FFF7E9FEFF204749087002E006204549D4
:10326000087008E0002000F0DEFA002000F032FADA
:10327000002040490870F7BD70B504000025002605
:103280005D4800F010FCE0785C490870A0785B496C
:10329000487020785949887060785849C8702079FA
:1032A0005649087128002179C0B2884208D2A06826
:1032B000EDB2405D5149EDB2491948716D1CF1E71D
:1032C0002800401D06002A480068406A80472848B8
:1032D0000068C06980473000C0B225490968496963
:1032E00088477B4822490968896A884720480068DE
:1032F000406B8047774800781D490968896988478D
:103300003100C9B23D481A4A1268D26B904770BD6D
:103310003000002038B505000C0001202A49087053
:103320006D486E490880344800F0BDFB10480068C5
:10333000406A80470E480068006A804719200C499F
:10334000096849698847624809490968896A88475C
:103350006048007806490968896988470448006818
:10336000406B804702480068806B804731BD000099
:10337000F80900201A0A0020150A0020170A002068
:1033800080B5442053490870554856490968496832
:103390008847554853490968896888475349072031
:1033A000504A1268D26890474E48006800698047CA
:1033B0004C480068C06A80477720C0434949096883
:1033C000096B884701BD0000180A0020EC090020A5
:1033D00080B5474800F0B2FA01BD0000E0090020C6
:1033E000120A0020160A002000B5C0B2012802D13E
:1033F0000321404A117000BDA400002028090020CC
:1034000080B53D4800F04EFC3B480078C0B28008D3
:10341000C00705D438484078C0B2C008C0071BD5E3
:10342000002000F0BCFC0120FDF766FD0120FDF747
:103430003FFD31484078C0B2C0080100C907C90F3C
:10344000002902D06720FFF76BFD7720C04300F012
:1034500024FD012029490870274800780100C90788
:10346000C90F002902D00120254908702248C078E0
:10347000C0B240090100C907C90F002907D00120C7
:1034800020490870FEF7D0FB6120FFF749FD1A487C
:103490000078C0B240080100C907C90F002904D054
:1034A000FEF7C2FB6120FFF73BFD01BD00B51648EA
:1034B000007800280BD009480088401E0749088082
:1034C00006480088022802DA00200F49087000BD73
:1034D0000000FA44190A0020B80B0000100A00206E
:1034E00074000020F8090020780000209A993941E2
:1034F000940000201A0A0020FC090020160A00206F
:10350000150A0020170A0020180A002010B5040030
:10351000A4B280208001844203D10120FFF764FF20
:1035200004E0A4B2802C01D1FFF76AFF10BDFEE7D2
:103530000121C206D20E9140434A11607047012119
:10354000C206D20E9140414A11607047F0B540B2B8
:10355000002821D53E4C40B20207120F083A9508C8
:10356000042255433A4A40B203071B0F083B9B080D
:1035700004267343D258FF238607B60F08277E43DD
:10358000B3409A438B01DBB28607B60F08277E4310
:10359000B340134363511AE02E4A40B28308042417
:1035A0006343D258FF238407A40F08256C43A3402C
:1035B0009A438B01DBB28407A40F08256C43A34018
:1035C0001343244A40B2840804256C431351F0BDD0
:1035D00010B50400601E80214904884201D30120F7
:1035E0000EE0601E1C49086003210020C043FFF765
:1035F000ADFF002019490860072019490860002024
:1036000010BD70B504000D0016002900200040B266
:10361000FFF79CFF70BD10B50400200040B2FFF71B
:1036200087FF10BD10B50400200040B2FFF787FFF0
:1036300010BD10B504002000FFF7CAFF10BD80B513
:10364000FFF734FF01BD000000E100E080E100E091
:103650001CED00E000E400E014E000E018E000E011
:1036600010E000E07047FEE710B586B00400E4B259
:10367000002C0CD14A4800680121014348480160F0
:10368000474800680100C907C90F009100984548E4
:10369000E4B202216143405A0190012002900020CF
:1036A00003900320049001A93F48E4B2042262433E
:1036B0008058FFF74BFA00223A48E4B202216143F6
:1036C000415A3948E4B204236343C058FFF727FB4B
:1036D00006B010BD10B5040000223248E4B2022149
:1036E0006143415A3048E4B204236343C058FFF7B2
:1036F00016FB10BD10B504002A48E4B20221614354
:10370000415A2948E4B2042262438058FFF711FB72
:1037100010BD30B587B004000D00E4B2002C0BD111
:103720001F480068042101431D4801601C480068CF
:1037300004210840009000981C48E4B20221614333
:10374000405A01900020039001200490EDB2002D1A
:1037500009D10020029001A91548E4B20422624375
:103760008058FFF7F3F9EDB2012D17D111480290FF
:1037700001A90F48E4B2042262438058FFF7E6F93A
:1037800000220F210C48E4B2005D40B2FFF739FF80
:103790000948E4B2005D40B2FFF73DFF07B030BD1D
:1037A0002C100240D21D0008B4000020D6210008D1
:1037B000B8000020000021102C4F000810B586B082
:1037C000040028480068022101432648016025487A
:1037D000006802210840009000982348E4B20221CA
:1037E0006143405A01900120029001200390032080
:1037F000049001A91D48E4B2042262438058FFF7F7
:10380000A5F906B010BD10B5040001221648E4B2B7
:1038100002216143415A1548E4B204236343C0586E
:10382000FFF77DFA10BD10B5040000220E48E4B287
:1038300002216143415A0D48E4B204236343C05856
:10384000FFF76DFA10BD10B504000748E4B202217D
:103850006143415A0548E4B2042262438058FFF7AD
:1038600068FA10BD2C100240B21700082800002092
:1038700000B583B06A4601213020FDF70BFD0190B1
:103880001A4801A90A7802704A784270684600789E
:103890004007400F0EBD1CB504006A4601214F20B1
:1038A000FDF7F8FC0190114801A90A7802704A78E6
:1038B0004270E4B2012C06D1684600780121014330
:1038C0006846017005E068460078FE2101406846C0
:1038D00001706A4601214F20FDF776FC01900348F4
:1038E00001A90A7802704A78427013BD080A0020C4
:1038F00001B582B002AA01214B20FDF765FC0090C2
:10390000034869460A7802704A78427007BD000091
:10391000080A002000B583B06A460121D320FDF7D4
:10392000B9FC0190044801A90A7802704A784270F3
:10393000684600780EBD0000080A002030B583B04C
:1039400005006A4601215120FDF7A4FC019086483C
:1039500001A90A7802704A78427068460078DF212F
:1039600001406846017068460078012101436846BD
:1039700001706A4601215120FDF726FC01907A482A
:1039800001A90A7802704A7842706A4601214F20E4
:10399000FDF780FC0190744801A90A7802704A780A
:1039A000427068460078CF210140684601706A463F
:1039B00001214F20FDF708FC01906B4801A90A780E
:1039C00002704A784270287B012803D1082069469A
:1039D000087002E000206946087068460078E97ABD
:1039E000014368460170687A002803D1012068729B
:1039F000687A00E0687A687A401E694648702878DC
:103A000069780143287A084369468870A87A69462C
:103A1000C870A87B012805D16846C07810210143F1
:103A20006846C170687B012805D16846C0780121CD
:103A300001436846C1706A4604213020FDF7C4FB8B
:103A400000200400E4B2042C16DAE4B20320697802
:103A5000C9B24908C9B2401A844204DA0020694652
:103A6000E4B2085506E0686808216143C840694629
:103A7000E4B20855641CE5E7A87A002803D10020C9
:103A8000FFF709FF02E00120FFF705FF6A46042166
:103A90003620FDF799FB0190334801A90A7802709E
:103AA0004A78427037BD1CB504006A4601214F2098
:103AB000FDF7F0FB01902C4801A90A7802704A78C2
:103AC00042702078012806D1684600780821014319
:103AD0006846017005E068460078F72101406846B5
:103AE0000170A078012806D16846007804210143BE
:103AF0006846017005E068460078FB210140684691
:103B000001702079012806D168460078022101431E
:103B10006846017005E068460078FD21014068466E
:103B200001706A4601214F20FDF74EFB01900E48BF
:103B300001A90A7802704A78427060796946087073
:103B4000E078694648706078694688706A46032163
:103B50004C20FDF739FB0190034801A90A78027057
:103B60004A78427013BD0000080A002000B583B0F7
:103B70006A4601213020FDF78DFB01901A4801A90A
:103B80000A7802704A784270684600781821084224
:103B900001D0012000E000200EBD30B583B005004B
:103BA0000024FFF7E3FF002801D001200400FFF705
:103BB0005FFE201804002800210040186946487064
:103BC000ADB2A4B228190012694608706A460221F3
:103BD0003420FDF7F9FA0190034801A90A78027030
:103BE0004A78427037BD0000080A00201CB5040066
:103BF00001A800210160002C06D0002000902000C8
:103C00006946042200F060F901AA04219020FDF722
:103C1000DBFA00903A4869460A7802704A784270A6
:103C200013BD7CB505000E0000246A4604219020D7
:103C3000FDF730FB0190324801A90A7802704A78FA
:103C400042700020C0B204280ADA6946C0B2095C9A
:103C50000322121A08235A4391406418401CF1E7CA
:103C6000F6B2002E01D1AC4300E02C430020C0B2DC
:103C700004280ADA0321091A082251432200CA4003
:103C80006946C0B20A54401CF1E76A4604219020FC
:103C9000FDF79AFA01901A4801A90A7802704A7849
:103CA000427073BD30B583B005002C006A46042114
:103CB000FA20FDF7EFFA0190114801A90A78027085
:103CC0004A7842700020C0B2042808DA6946C0B2BF
:103CD00042428918C9782170641C401CF3E737BD43
:103CE00000B583B001AA0421FA20FDF7D3FA0090B1
:103CF000034869460A7802704A78427007BD00009E
:103D0000080A002010B584B00400A08880B2000A20
:103D100069460871A08801A94870A079800061787F
:103D2000014301A88170A078E178014301A8C17026
:103D300001A8021D01215120FDF7ACFA00902D4889
:103D400069460A7802704A7842702078012806D1C4
:103D500001A800790221014301A8017105E001A831
:103D60000079FD21014001A8017101A8021D012176
:103D70005120FDF729FA00901E4869460A78027022
:103D80004A78427001AA04216420FDF71DFA0090D0
:103D9000184869460A7802704A7842701FBD1CB5FF
:103DA00004006A4601215120FDF774FA0190114880
:103DB00001A90A7802704A784270E4B2012C06D157
:103DC00068460078042101436846017005E06846B2
:103DD0000078FB210140684601706A4601215120AC
:103DE000FDF7F2F90190034801A90A7802704A78B8
:103DF000427013BD080A00201CB504006A46012168
:103E00003A20FDF747FA01902E4801A90A7802707E
:103E10004A784270E4B2012C06D16846007802214B
:103E200001436846017005E068460078FD210140C5
:103E3000684601706A4601213A20FDF7C5F90190F4
:103E4000204801A90A7802704A78427013BD1CB557
:103E500004006A4601213A20FDF71CFA0190194836
:103E600001A90A7802704A78427068460078800694
:103E7000800E6946087068460078204369460870DD
:103E80006A4601213A20FDF79FF901900D4801A9EA
:103E90000A7802704A78427013BD1CB504002000F5
:103EA0007E3802214843694608706A460121222073
:103EB000FDF78AF90190034801A90A7802704A784F
:103EC000427013BD080A0020124207D08B0706D0AB
:103ED0000B78491C0370401C521EF7D870478307AB
:103EE00006D00B78491C0370401C521EF9D1704754
:103EF00070B4103A03D378C9103A78C0FBD2530794
:103F000001D318C918C001D508C908C0D20704D305
:103F10000B880380891C801C002A01D50B78037054
:103F200070BC704770B582B0040000252078C007CF
:103F30006BD5B44800680C210140082909D0B1486C
:103F400000680C2101400C290CD1AE480068C00368
:103F500008D5AD480068800357D56068002854D163
:103F60000120BDE2606880214902884207D1A6484D
:103F70000068802149020143A348016026E060688F
:103F8000A021C90288420ED19F4800688021C90241
:103F900001439D4801609C4800688021490201431B
:103FA0009948016012E098480068C5490140964868
:103FB00001609548006880214902084000900098FF
:103FC00091480068BF4901408F480160606800283F
:103FD0000DD0FFF725F805008B480068800314D446
:103FE000FFF71EF8401B6528F6D3032078E2FFF7A1
:103FF00017F8050084480068800306D5FFF710F81D
:10400000401B6528F6D303206AE22078800759D543
:104010007C4800680C210140042909D079480068D7
:104020000C2101400C2916D176480068C00312D437
:1040300075480068400704D5E068012801D00120D8
:104040004EE2BA480068BA490140206900020843BC
:10405000B649086036E0E06800281FD06A4800686A
:1040600009218843E168014367480160FEF7D8FFF2
:10407000050065480068400706D4FEF7D1FF401BE5
:104080000328F6D303202BE2A8480068A849014082
:10409000206900020843A549086013E05A480068F7
:1040A0000121884358490860FEF7BAFF05005648C9
:1040B0000068400706D5FEF7B3FF401B0328F6D380
:1040C00003200DE22078C00600D49FE04D48006830
:1040D0000C210140002957D14B480068800504D5C8
:1040E000E069002801D10120FAE190480068E02150
:1040F00009020140606A814218D2606A00F054FBF4
:10410000002801D00120EBE188480068C549014042
:10411000606A084385490860844800680002000A14
:10412000216A090601438148016017E07F48006861
:10413000BC490140606A08437C4908607B480068CC
:104140000002000A216A0906014378480160606A9A
:1041500000F02AFB002801D00120C1E10120616AA2
:10416000490B491C8840802109024843AE49254A31
:10417000126812091207120F895CC840AB49086027
:104180000320FEF735FF41E0E069002826D01E48F5
:1041900000688021490001431B480160FEF740FF91
:1041A000050019480068800506D4FEF739FF401B5A
:1041B0000328F6D3032093E15C4800689949014045
:1041C000606A084359490860584800680002000ABC
:1041D000216A090601435548016017E00A48006852
:1041E000C049014008480160FEF71AFF0500064873
:1041F000006880050AD5FEF713FF401B0328F6D39D
:1042000003206DE10C1002400010024020780007EE
:104210002AD56069002813D0B34800680121014302
:10422000B1480160FEF7FCFE0500AF48006880075A
:104230001AD4FEF7F5FE401B0328F6D303204FE106
:10424000A948006801218843A7490860FEF7E8FEF5
:104250000500A5480068800706D5FEF7E1FE401B73
:104260000328F6D303203BE12078400700D497E0F1
:1042700000269E480068C00008D49C480068802141
:1042800049050143994801600120060098480068EB
:10429000C00519D49648006880214900014394481C
:1042A0000160FEF7BDFE050091480068C0050BD413
:1042B000FEF7B6FE401B6528F6D3032010E100BFD1
:1042C000FFFFFEFFFFFFFBFFA0688021490088423F
:1042D00007D1854800688021490001438248016078
:1042E00034E0A06800280CD17F4800687D49014077
:1042F0007D4801607C4800687E4901407A48016041
:1043000024E0A068A021C900884213D17648006843
:104310008021C9000143744801607348006880210E
:10432000490001437048016010E000BF04100240E2
:10433000FFE0FFFF6C4800686A4901406A4801607D
:10434000694800686B49014067480160A06800281F
:104350000ED0FEF765FE050063480068800516D4A0
:10436000FEF75EFE401B64498842F5D30320B7E0A8
:10437000FEF756FE05005C480068800507D5FEF78D
:104380004FFE401B5C498842F5D30320A8E0F6B2FB
:10439000012E05D155480068584901405348016035
:1043A0002078800644D5A069002820D054480068B1
:1043B0000121014352480160524800680121014334
:1043C00050480160504800688021890101434E48EF
:1043D0000160FEF725FE050049480068800727D4E4
:1043E000FEF71EFE401B0328F6D3032078E0444866
:1043F0000068012188434249086043480068AE498B
:10440000014041480160FEF70BFE05003C48006892
:1044100080070DD5FEF704FE401B0328F6D30320CA
:104420005EE000BFFF1FFFFF70530008BC000020CC
:10443000A06A002853D0A14800680C2101400C2933
:104440004BD0A06A022834D19F4800689C490140A3
:104450009D480160FEF7E4FD05009B48006880016F
:1044600006D5FEF7DDFD401B0328F6D3032037E019
:104470009248006893490140E06A0843216B014378
:10448000606B08438D4908608F48006880214904AB
:1044900001438D480160FEF7C3FD05008A480068AE
:1044A00080011CD4FEF7BCFD401B0328F6D303207B
:1044B00016E0854800688249014083480160FEF7A4
:1044C000AFFD050080480068800108D5FEF7A8FD13
:1044D000401B0328F6D3032002E0012000E0002067
:1044E00076BD00BFFFFEFFFF5010024038100240B3
:1044F00000700040FFFBFFFF89130000FFFFFFEF8C
:1045000008100240341002402000014070B5050040
:104510000C0000266D4800680100C907C90FA142C0
:104520000FD26A4800680121884320436749086028
:10453000664800680100C907C90FA14201D00120E7
:10454000B8E02878800707D55C480068F0218843E8
:10455000A9680143594801602878C0076CD568688C
:10456000022805D158480068800319D40120A1E031
:104570006868032805D154480068800110D40120E0
:1045800098E06868012805D14F480068400707D4C3
:1045900001208FE04C480068800501D4012089E0AB
:1045A0004648006803218843696801434348016025
:1045B000FEF736FD0600686802280DD13F48006806
:1045C0000C210140082937D0FEF72AFD801B6F49D6
:1045D0008842F3D303206DE0686803280DD1374883
:1045E00000680C2101400C2926D0FEF719FD801B24
:1045F00066498842F3D303205CE0686801280DD146
:104600002E4800680C210140042915D0FEF708FD52
:10461000801B5E498842F3D303204BE027480068A3
:104620000C210140002907D0FEF7FAFC801B5749F6
:104630008842F3D303203DE0244800680100C90705
:10464000C90F8C420FD221480068012188432043C2
:104650001E4908601D4800680100C907C90FA14232
:1046600001D0012026E02878400707D513480068CC
:1046700047490140E8680843104908602878000766
:1046800008D50E480068434901402869C000084326
:104690000A49086000F01CF83F49084A12681209EC
:1046A0001207120F895CC8403C4908600320FEF7DE
:1046B0009FFC002070BD0000FFDFFFFF0C100240D8
:1046C000FFFFFFFEFFFF02FF00100240002002403C
:1046D000FCB5002000900024002500260020019059
:1046E00000272F480068009000980C210140042901
:1046F00004D008290CD00C290DD037E029480068D7
:10470000C00602D54B48070001E04B4807003BE0DC
:104710004A48070038E04A480099890C0907090F00
:10472000405C04000098800D8007800F401C05004D
:104730001B480068C00306D5404860432900FDF7C8
:104740006CF8060010E017480068C00606D5394826
:1047500060432900FDF761F8060005E03648604334
:104760002900FDF75AF8060037000DE035480068CB
:10477000400B4007400F019001200199491C8840DF
:1047800080210902484307003800F6BD8913000064
:10479000FFF8FFFFFFC7FFFF70530008BC000020B9
:1047A0000C1002400010024010B50100002200234E
:1047B00025480068F0240440002C27D124480068D4
:1047C000C00006D523480068C024640104402200CC
:1047D00012E01F4800688024640504431C480460FC
:1047E0001C480068C0246401044022001848006886
:1047F000194C044016480460C0204001824205D193
:10480000C0200002814201D1012003000F4800684E
:104810000124A04318430D4C20600C48006804009C
:10482000E407E40F9C4201D0012000E0002010BD0D
:104830000000000000093D000024F40000127A008E
:104840009C530008041002400C100240002002405B
:104850003810024000700040FFFFFFEF1CB504005D
:104860006A466846411C200000F01EF86A46022194
:104870005320FCF7A9FC01900A4801A90A780270AC
:104880004A78427013BD01B582B002AA01215420BA
:10489000FCF79AFC0090034869460A7802704A784F
:1048A000427007BD080A0020F1B582B00C00150067
:1048B000FCF7BEFB06009048864200D37608300025
:1048C000FCF79EFE01000298FCF7A9FE8B49FCF75D
:1048D000FEFEFDF76BFA01900198FF21FCF79DFFAA
:1048E000FE2804D3FF202070FF202870CDE001981F
:1048F000FF21FCF792FF801C287001982978FCF7B3
:104900008CFF20702078FCF77BFE01000091287856
:10491000FCF776FE0099FCF782FE01007748FCF771
:104920007EFE00903000FCF76BFE01000098FCF763
:10493000CEFE0299FDF7E2F980210904FDF74AFA5B
:104940001AD82078FCF75CFE01000F002878FCF7ED
:1049500057FE3900FCF763FE6849FCF760FE07006C
:104960003000FCF74DFE01003800FCF7B0FE029964
:10497000FDF7C4F907001AE02078FCF741FE0100BA
:104980000F002878FCF73CFE3900FCF748FE5B4935
:10499000FCF745FE07003000FCF732FE010038004E
:1049A000FCF795FE01000298FDF7A8F907002078B2
:1049B000FF285ED02078401CFCF716FE0100009115
:1049C0002878FCF71DFE0099FCF729FE01004B48F2
:1049D000FCF725FE00903000FCF712FE0100009865
:1049E000FCF775FE0299FDF789F980210904FDF7AE
:1049F000F1F91BD82078401CFCF7F6FD010000916E
:104A00002878FCF7FDFD0099FCF709FE01003B4802
:104A1000FCF705FE00903000FCF7F2FD0100009865
:104A2000FCF755FE0299FDF769F91BE02078401C60
:104A3000FCF7DAFD010000912878FCF7E1FD009910
:104A4000FCF7EDFD01002D48FCF7E9FD009030007A
:104A5000FCF7D6FD01000098FCF739FE0100029832
:104A6000FDF74CF93900FDF7C7FC02D22078401C55
:104A700020702878401E28702078022803DB2078D8
:104A8000401E207001E001202070F7BD1CB504001D
:104A90006A4602214F20FCF7FDFB0190184801A94E
:104AA0000A7802704A78427068460078BF21014057
:104AB0006846017068460078E100402211400143D9
:104AC0006846017068464078C006C00E6946487066
:104AD0006846407861010143684641706A46022198
:104AE0004F20FCF771FB0190054801A90A7802707C
:104AF0004A78427013BD000081C3C90180B4934954
:104B0000080A002080B502210420FEF73FF9FCF7D7
:104B100099FAFEF7EBF9FEF7EFF900F013F800F061
:104B20002CF801210320FEF731F90023042204218F
:104B30000320FEF79BF90123042204210320FEF742
:104B400095F901BD80B50020694608706846007877
:104B5000FF2805D068460078401C69460870F5E7D4
:104B6000FCF728FE83480078C0B24008C0B2032892
:104B7000E9D18148FCF75FFA01BD10B588B000F0BB
:104B800039F80400E4B2012C1DD1012000F006F92F
:104B90000120694608706A460121B620FCF714FB23
:104BA00076480068069006A800F01EF97448006870
:104BB000059005A800F018F972480068049004A850
:104BC00000F012F914E0E4B2022C11D16E48006832
:104BD000039003A800F008F96C480068029002A84E
:104BE00000F002F96A480068019001A800F0FCF8A2
:104BF00008B010BD67480078704710B50400200069
:104C000000F0F2F810BD10B504002000FBF758FAD0
:104C100010BD38B505000C0021002800C0B2FCF71B
:104C2000BBF82800C0B2FCF7F8F831BD80B5FEF73C
:104C3000CFFB01BD10B50400E4B2200080B2FEF746
:104C4000ACFF10BD10B504002000C0B2FEF750FE4E
:104C500010BD80B501210420FEF7E3FF01BD80B542
:104C600001210120FEF7DDFF01210220FEF7D9FF1F
:104C7000012180208005FEF7D4FF01BD80B5002012
:104C8000FEF7B4FF01BD10B504002000002100F0C4
:104C9000C5F806D10020FFF7F6FD0F20FFF7F6FE5E
:104CA00007E02000FFF7DAFD00F00AF80620FFF722
:104CB000EDFE10BD10B504002000FFF7EEF810BDAA
:104CC00080B50020FFF7C3F80120FFF795F801BD7C
:104CD00080B528480078C0B24008C0B2332802D15D
:104CE0006720FEF71DF9FCF79FFF6120FEF718F91A
:104CF00001BD70B506000C00002500F09FF8207083
:104D00002078050031002800C0B2FCF7FFFB7120BD
:104D1000FEF706F970BD38B504000D00154800789F
:104D2000C0B24008C0B2332802D16720FEF7F8F8BD
:104D30000020FCF7E1F80020FCF7BAF81648FEF76F
:104D4000E1FF0120FFF72BF85920C043FFF7A5F83A
:104D50007220FEF7E5F821002800C0B2FCF76EFBD8
:104D6000FCF738FF6020FEF7DBF831BD80B5FEF7B9
:104D7000B7FF01BD080A002080F0FA02B85300080E
:104D8000BC530008C0530008C4530008C8530008AF
:104D9000CC5300081B0A0020AC0000201CB5040006
:104DA0006A4601210120FCF775FAE4B2002C06D115
:104DB00068460078EF2101406846017005E06846CA
:104DC000007810210143684601706A4601210120E4
:104DD000FCF7FAF90190034801A90A7802704A78B1
:104DE000427013BD080A00201CB50400002069466B
:104DF00008706078A1780143684601706A46012115
:104E00002078FCF7E1F90190034801A90A780270C3
:104E10004A78427013BD0000080A00209446020040
:104E20000A43921808D0884206D1012212060018BF
:104E3000D042084600D880426246704700B583B031
:104E40006A460121E720FCF725FA0190054801A9EF
:104E50000A7802704A784270684600784006400E30
:104E60000EBD0000080A0020010203040506070821
:104E7000090A0B0C0D0E0F1011121314000800502C
:104E800000040050000000500008005000000050D6
:104E900000040050E8030000054B0008FB4B00082D
:104EA000074C0008134C00082D4C0008354C000836
:104EB000454C0008534C00085F4C00087D4C00082E
:104EC000874C0008C14C0008B54C00086D4D000827
:104ED000D14C0008174D0008F34C000802020000F6
:104EE00000000000C0CA8936A08601000000000052
:104EF00000960000204E0000A08601001806000069
:104F0000888888880107200001000100014401EE23
:104F100001FF00000000300521FA200000000050D1
:104F20000008005080841E001402010007000000E9
:104F3000411F0F1F041EC81C8B1B351A1719EB16B7
:104F400026159D11A310C00FE00E250E590DB60CAD
:104F5000810B8F0AC7084C08DB076C070F07AA06EE
:104F60005806BF05460563042604ED03B603870310
:104F700055032C03DF02A30231021202F601DA010B
:104F8000C301AA0196016F01510118010901FB003B
:104F9000ED00E200D500CB00B800A9008C00850030
:104FA0007E00770071006A0065005C0054004600D6
:104FB00042003F003B003800350033002E002A003D
:104FC000230021001F001E001C001B0019001700F9
:104FD00015001200110010000F000E000D000D0052
:104FE0000C000B001648006880214900014314485A
:104FF00001601448006814490140124801601048DB
:105000000068124901400E48016011480068012102
:1050100088430F4908600A4800680E490140084863
:105020000160084800680C49014006480160002002
:105030000A4908608020000509490860704700009F
:10504000001002400C1002400C40FF88F6FFF6FEF4
:1050500008100240FFFFFBFFFFFF02FF101002409D
:1050600008ED00E000B593B01A48006880214905BA
:105070000143184801601848006818490140802021
:1050800000010843144908600220059000200690A2
:105090000120089002200F90002010908020C00274
:1050A00011908020C00312901020099005A8FEF7EF
:1050B00039FF0F2000900320019000200290002073
:1050C00003900020049001216846FFF71FFA13B0F7
:1050D00000BD00003810024000700040FFE7FFFFF5
:1050E0003D0A07C0AE47CD413D0A07C0AE47CD419E
:1050F000000000C0713DFA415C8F02C09A99BB412B
:105100005C8F02C09A99BB419A99F9BFAE47DD41C5
:1051100052B85EC0CDCC194285EBF1BFAE47DD4140
:105120008FC2F5BF0AD7F141AE4751C052B80D4208
:105130006666E6BFE17AD24185EBF1BF48E1EC411A
:105140008FC285C0D7A34A426666E6BFEC51F041E4
:105150007B14EEBF48E10042704700B5FEE77047A0
:10516000704780B5FDF756FFFEF769FA01BD80B5BF
:1051700016480068C00702D50120FDF7DFFD13487F
:105180000068800702D50220FDF7D8FD01BD80B57B
:105190000E480068400702D50420FDF7CFFD0B48FC
:1051A0000068000702D50820FDF7C8FD01BD80B5E5
:1051B00006480068000602D58020FDF7BFFD80206C
:1051C0008001FDF7BBFD01BD00000000140401409B
:1051D00080B5FDF7F9FEFFF745FF0020FEF7EEFA78
:1051E0000020FEF741FAFDF731FF01210020FEF714
:1051F00090FAFEF7C5F804480378044A0448017899
:105200000448FDF72CFFF6E7140A0020C808002028
:10521000C00000200000002070B40121002213E033
:105220000468001D0C4202D04D466D1E64192260B8
:10523000241D1B1F042BFAD225009E0701D52280B6
:10524000AD1C0B4000D02A700368001D002BE7D175
:1052500070BC704730B401210268001D002A0FD0D5
:105260000368C318446808300C4202D04D466D1ED6
:1052700064191D6825601B1D241D121FECD0F8E762
:1052800030BC704710B5074979441831064C7C444E
:10529000163404E0081D0A68891888470100A142F5
:1052A000F8D110BD08000000280000006DFFFFFFCE
:1052B00054010000C80800200000000099FFFFFF13
:1052C000C4000000A4FBFFFF00000020000000005D
:1052D00024126412A412E41226136613A613E71311
:1052E00029147014B714FF1448158F15D8151F16FC
:1052F00000F00BF8002801D0FFF7C4FF0020C046E3
:10530000C046FFF765FF00F002F80120704780B546
:1053100000F002F801BDFEE70746384600F002F84B
:10532000FBE7FEE780B5C046C046024A11001820E0
:10533000ABBEFBE7260002000300000003000000F4
:105340000300000003000000030000000000000054
:10535000000000000000000000000000010000004C
:105360000000211000002110000021100000211079
:105370000000000000000000010203040607080905
:105380000148804701480047E54F0008A95300083D
:105390000200010010008000000400000304060861
:1053A0000C10182030000000C046C046C046C04661
:1053B000FFF79EFF0505070705039000040328007B
:1053C000030350000503900004035000030328006A
:1053D0000103040503060810030608100103040571
:1053E000FEE7FEE7FEE7FEE7FEE7FEE7FEE7FEE795
:1053F000FEE7FEE7FEE7FEE7FEE7FEE7FEE7FEE785
:04000005080053A9F3
:00000001FF
