:020000040800F2
:1000000038190020391D0108C9970008CD9700084C
:10001000CF970008D1970008D39700080000000090
:10002000000000000000000000000000D59700085C
:10003000D797000800000000D9970008A79800088B
:10004000CB970008851D0108891D01088D1D010839
:10005000911D0108951D0108DB970008E99700082C
:10006000F797000805980008991D01089D1D0108D3
:10007000A11D0108A51D0108A91D0108AD1D01084C
:10008000B11D0108B51D0108B91D0108BD1D0108FC
:10009000C11D0108C51D0108C91D010813980008EC
:1000A000CD1D0108D11D0108D51D0108D91D01086C
:1000B00093980008DD1D0108E11D0108E51D0108F8
:1000C000E91D0108ED1D0108F11D0108F51D0108DC
:1000D000F91D0108FD1D010847980008011E0108CF
:1000E0003F980008051E0108091E01080D1E0108A1
:1000F000111E010800000000151E0108191E01084C
:100100001D1E0108211E0108251E0108291E0108C7
:100110002D1E0108311E0108351E010800000000D7
:10012000391E010870B4C278DFF88C338C1883F85C
:100130006B47857805EB112583F86A57EDB2467851
:1001400083F86967B5EB112F007883F8680707DA41
:10015000721C83F86927D2B212B9401C83F8680771
:10016000E4B201F0FF00844210DA681C83F86A07E9
:10017000C0B258B993F86907401C83F86907C0B248
:1001800020B993F86807401C83F8680770BC704773
:1001900070B4DFF824030279437990F86D1781B0C9
:1001A00003EB0222521AADF8002000F12704BDF83B
:1001B00000203A3200F10805A54200F108030CD2F4
:1001C0001D785E7806EB0525ADB2AA1896B2AE4250
:1001D00038BF521C9B1CA342F2D3A34206D11B780A
:1001E0001D02AA1893B2AB4238BF521CBDF80030B2
:1001F00008442830C118491E88420CD2047845783A
:1002000005EB0424A4B2A21895B2A54238BF521C33
:10021000801C8842F2D3884206D100780402A218DA
:1002200090B2A04238BF521C01B090B270BC0028FE
:100230000EBF4FF6FF70000A40EA022080B27047FE
:1002400030B581B001F060FC02F0ACFC02F0E8FDDA
:10025000DFF8640200F2547100220023002400251C
:100260003CC14FF4806180F8392580F8692580F819
:10027000992580F8C925A0F8741700F2E4500321ED
:1002800002800284A0F84020A0F860208030491E3F
:10029000F6D101B030BD70B5874C94F86D57280089
:1002A00020D0B4F8706705F12802964203DA0020E6
:1002B000A4F8700714E0A6F128014A1B601900F1A8
:1002C000280104F1280002F0BBFD701BA4F87007A0
:1002D00080B2A0F128012838607109122171002034
:1002E00084F86D0770BD0000F0B581B002464FF490
:1002F0008054714BB3F87407401C80B2B0F5FA4FCC
:10030000A8BF2046A3F874070026B3F87477380A0C
:1003100003F2E45540EA07202F881FFA80FC674566
:100320001EBF761C2F8C67451EBF761CB5F840702B
:100330006745DFD0B5F86070761C6745DAD0761C6B
:1003400080350C2EE8DB002403F2E4552E8866B9D4
:1003500003EB441303F2D45420826182D2B900200B
:10036000002100230FC4103C19E02E8C641C002EC9
:100370001EBF641CB5F84060002E1EBF641CB5F89B
:100380006060002EE4D0641C80350C2CDEDB002085
:1003900001B0F0BD11462046102202F08DFD474805
:1003A0000079207501B02046F0BD4349B1F85437BB
:1003B0000022834204D111440020A1F85407704761
:1003C000B1F85637022283421EBF0422B1F85837D3
:1003D0008342F0D0B1F85A37062283421EBF08226A
:1003E000B1F85C378342E6D0B1F85E370A22834227
:1003F0001EBF0C22B1F8603783421EBF0E22B1F837
:1004000062378342D7D07047F0B52B4C94F86D1704
:10041000022084F86E0781B0601890F82900C000AF
:1004200000F1080302E0681C84F86E0794F86E5728
:10043000284698423CDA4618264496F82870002F41
:10044000F1D0012F02D0632F15D104E096F82900D6
:10045000801C4019E8E702F06FFDB8B194F86E0710
:1004600094F86D174118214491F82910891C081837
:1004700084F86E071CE007F0C000402806D08028F2
:1004800007D0C0280FD1207EFF2802D1012001B063
:10049000F0BD681800F128020221042002F064FA7D
:1004A000022001B0F0BD96F82900801C4019BBE77E
:1004B000002001B0F0BD000038340020884E00203C
:1004C0002DE9F041124CD4F88457042882B000F092
:1004D000C88004F13C010328C4F87C17C4F88017D5
:1004E0001FD195F8250000F00F01032912D1A88B28
:1004F000002800F095800020A4F8700784F86D07AC
:1005000084F86C0784F86F0702B0BDE8F08100BF83
:100510003834002000F00F000228ECD1002000F059
:10052000D8BE022840F081800020A4F8700784F82B
:100530006D07A4F8720794F86707401C84F86707F2
:10054000C0B290B994F86607401C84F86607C0B240
:1005500058B994F86507401C84F86507C0B220B903
:1005600094F86407401C84F8640795F82500072870
:1005700018BF05280BD195F82600401C85F82600E9
:10058000C0B27828B7D1002085F82500B3E7020073
:10059000B1D0AA8B002A3ED095F82620531E002AFF
:1005A00085F82630A7D195F82720082A04D00228FC
:1005B00014BF0128052A0AD1002085F825008020D3
:1005C00084F86F0703F02CF8142000F0D6BE052A3B
:1005D000AEBF30210321914085F8261000F00F00B6
:1005E000401E511C072885F8271084D8DFE810F03A
:1005F000700609000C000208080002080800020842
:1006000079E7002000F065BE042084F86F0703F04E
:1006100007F801F0A8B800F00F0003287FF46BAFD3
:10062000082084F86F0701F066B8052840F09D8027
:10063000D4F88807008A00283FF45DAF0020C4F892
:10064000840704F13000C4F87C07C4F88007002058
:10065000A4F87207A4F87007082084F86F0702F066
:10066000DFFFB4F8720701003FF445AF00F130013D
:10067000A4F8701704F1080589B2A1F128022839FD
:1006800061711212D4F8881722710A7DE271112269
:10069000A27100F108021004000E40EA0220A085B9
:1006A00010220020E085088A2085488A608504F1B0
:1006B000180002F001FC04F1180104F1080001F037
:1006C000F3FF04F13C00C4F87C0704F1080320792F
:1006D000627994F86D1702EB0020401AADF8000023
:1006E000BDF8000000F1110204F1270085420CD290
:1006F0001D785E7806EB0525ADB2AA1896B2AE421B
:1007000038BF521C9B1C8342F2D3834206D1187817
:100710000502AA1890B2A84238BF521CBDF80000CA
:10072000214428310844401E81420CD20D784E7875
:1007300006EB0525ADB2AA1896B2AE4238BF521CE0
:10074000891C8142F2D3814206D108780502AA1899
:1007500090B2A84238BF521C90B200280EBF4FF68C
:10076000FF70000A40EA022066E3207800F0F00003
:1007700060287FF4C0AE60792179B4F8702700EB6F
:1007800001239A42FFF6B7AE00EB01202830A4F80F
:100790007007207AFF283FF4AEAEA01DC4F878079A
:1007A000002084F86D0784F86C07A079C8B901208F
:1007B00084F86C07FFF728FE28B1022801F08F812A
:1007C000FFF499AE0DE094F86D07211801F12802AD
:1007D000C4F8782791F82910C9000831081884F85E
:1007E0006D0704F1180001F0DBFD002840F09F8147
:1007F00004F1180001F0E8FE002840F09881207E06
:10080000FF2857D0FE2804BF617E802952D0217A6C
:10081000FE2904BF617A802953D02189002904BFB1
:100820006189002911D1A189002904BFE18900292A
:100830000BD1218A002904BF618A002905D1A18A30
:10084000002904BFE18A002934D0218B002904BF8C
:10085000618B002915D1A18B002904BFE18B0029F0
:100860000FD1218C002904BF618C002909D1A18CF2
:10087000002901BF94F82610002994F827100129B7
:1008800018D0B4F87007B0F5A06F04DD4FF4A06283
:1008900000210220C8E2E079022803DA00220021C8
:1008A0000320C1E2401EE07102B0002084F86F070F
:1008B000BDE8F081217AFE2904BF617A80297FF4A6
:1008C0001AAE2189002904BF6189002912D1A189AA
:1008D000002904BFE18900290CD1218A002904BF25
:1008E000618A002906D1A18A002904BFE18A002972
:1008F0003FF401AE218B002904BF618B002916D182
:10090000A18B002904BFE18B002910D1218C002983
:1009100004BF618C00290AD1A18C002901BF94F881
:100920002610002994F8271001293FF4E4ADFF2890
:100930003FF4E1AD04F1180001F0B0FB00287FF4B2
:10094000DAAD002202216EE22079627994F86D1707
:1009500002EB0020401AADF8000004F10805BDF8D4
:10096000000000F13A0204F12700854204F1080377
:100970000CD21D785E7806EB0525ADB2AA1896B2AA
:10098000AE4238BF521C9B1C8342F2D3834206D135
:1009900018780502AA1890B2A84238BF521CBDF8B8
:1009A0000000631803F128010844401E81420CD264
:1009B0000E784F7807EB0626B6B2B21897B2B74258
:1009C00038BF521C891C8142F2D3814206D108787B
:1009D0000602B21890B2B04238BF521C90B240B179
:1009E000000A40EA022080B24FF6FF7188427FF48D
:1009F00082AD93F8291093F8280001F03DFF0128FB
:100A00003FF479ADB4F87007002841F0688072E5D2
:100A100094F86C07C20700F1528140F0010084F89D
:100A20006C07022094F86D1784F86E07631893F82A
:100A30002900C00000F1080206E000BF95F8290077
:100A4000801CC01884F86E0794F86E3718469042E0
:100A50005FDA4518254495F8286026B1012EEDD0BF
:100A6000632E07D101E0581CECE702F065FA00287C
:100A700043D140E506F0C00040283FF43CAD80285B
:100A800000F0FF80C028D9D1F7E094F86C07820706
:100A900005D5420600F1138140F0400001E040F02E
:100AA000020084F86C07022094F86D1784F86E0732
:100AB000631893F82900C00000F1080206E000BFA7
:100AC00095F82900801CC01884F86E0794F86E37DA
:100AD000184690421DDA4518254495F828602EB135
:100AE000012EEDD0632E40F0BE8001E0581CEBE7F4
:100AF00002F022FA00283FF4FEAC94F86E0794F856
:100B00006D174118214491F82910891C081884F8A0
:100B10006E0794F86D07211801F12802C4F87827B0
:100B200091F82910C9000831081884F86D07D4F825
:100B30007817087800283FF46BAF062814D01128E6
:100B400000F0C1802B2800F0A5802C283FF4D3AC06
:100B50003A283FF4F9AE3B283FF4CDAC3C2894D082
:100B60000A1B012104205FE1FFF795FB0620A0711D
:100B700004F108052079627994F86D1702EB0020E2
:100B8000401AADF8000004F10803BDF80000821D12
:100B900004F1270085420CD21D785E7806EB05250E
:100BA000ADB2AA1896B2AE4238BF521C9B1C83420B
:100BB000F2D3834206D118780502AA1890B2A8424F
:100BC00038BF521CBDF80000214428310844401EA3
:100BD00081420CD20D784E7806EB0525ADB2AA18ED
:100BE00096B2AE4238BF521C891C8142F2D3814278
:100BF00006D108780502AA1890B2A84238BF521C44
:100C000090B240B1000A40EA022080B24FF6FF7174
:100C100088427FF470AC668D30003FF46CAC278D59
:100C200038003FF468AC04F2A45804F21450804534
:100C300004F2145580F00D8194F8350000F03F0067
:100C4000022840F01F82B4F85407864240F0FC812D
:100C500094F83915002500200A0040F06C822044E9
:100C600000F214559EE206F0C00040283FF443AC69
:100C7000802806D0C0287FF423AF207EFF283FF4D1
:100C80003AAC084694F86E17081800F128020221C1
:100C90000420C9E094F86C07420710D440F0040027
:100CA00084F86C0794F86D17601890F82B000028F2
:100CB0003FF42FAF01F12A0200210420B4E00A1B07
:100CC00001210420B0E0FFF7E6FA1120A071E08DC9
:100CD000002853D02079627994F86D1702EB002038
:100CE000401AADF8000004F10805BDF8000000F15D
:100CF000110204F12700854204F108030CD21D788B
:100D00005E7806EB0525ADB2AA1896B2AE4238BFA2
:100D1000521C9B1C8342F2D3834206D118780502F1
:100D2000AA1890B2A84238BF521CBDF80000214456
:100D300028310844401E81420CD20D784E7806EBD3
:100D40000525ADB2AA1896B2AE4238BF521C891C16
:100D50008142F2D3814206D108780502AA1890B2E6
:100D6000A84238BF521C90B240B1000A40EA0220AB
:100D700080B24FF6FF7188427FF4BDAB658D2800CD
:100D80003FF4B9AB04F2D450C4F8880704F25476A7
:100D9000D4F88877388A01003DD085423BD1788AE3
:100DA00001001CBF218D814235D13888002804BF45
:100DB0007888002811D1B888002804BFF888002856
:100DC0000BD13889002804BF7889002805D1B8895B
:100DD000002804BFF889002806D01022394604F103
:100DE000080002F0DDFCB0B9B4F870073038A4F8A0
:100DF000700704F13000C4F87C070020C4F88407B1
:100E0000022084F86F0704F13000C4F88007002046
:100E1000A4F8720723E407F12000B042C4F8880761
:100E2000B6D300220421012001F09EFD002084F8A9
:100E30006F0702B0BDE8F08180B2C043E085E08D6D
:100E4000002840F047864FF6FF70E08500F042BE74
:100E50003035A845FFF4F0AE95F825000028F7D00E
:100E6000298A8E4204BF698A8F42F1D11022294615
:100E700004F1080002F094FC0028E9D184F86F071F
:100E8000C4F8845794F83500410700F1408294F883
:100E90003420B4F870171209A1EB8201A1F12802E5
:100EA000A4F8702795F8251001F00F03022B40F0ED
:100EB000388200F03F03122B40F03A82C00650D532
:100EC000A98B08004DD005F11800FFF72BF994F815
:100ED000680794F83010814202BF94F8311094F8FA
:100EE000692791423DD194F8321094F86A279142D3
:100EF00002BF94F8331094F86B27914231D12876D1
:100F000094F86907687694F86A07A87694F86B07EE
:100F1000E87695F82700D8B995F9240095F92620A8
:100F200095F82210821AA2EBD10095F8232040B246
:100F30004118002848BF4042801885F82210A0EBD5
:100F4000920085F82300C9B200EBD10085F8240097
:100F5000012084F86F0795F8240085F8260000200A
:100F6000A88395F8250000F00F01491E07293FF6D8
:100F7000C2AADFE811F00A004202D5021B04B9043C
:100F80003A0501021104FFF7B6BA94F86F07C007DB
:100F900040F12B82032085F82500402084F86F075C
:100FA0000020A883B4F87017080000F0A183422045
:100FB00084F86F07D4F8840700F11402D0780B1876
:100FC00084F86B37967806EB112684F86A67F6B2D8
:100FD000577884F86977B6EB112F92F800C084F83F
:100FE00068C708DA781C84F86907C0B218B90CF130
:100FF000010084F86807DBB201F0FF00834210DAD9
:10100000701C84F86A07C0B258B994F86907401C8C
:1010100084F86907C0B220B994F86807401C84F8C6
:10102000680794F868071070D4F8841794F8690773
:101030004875D4F8841794F86A078875D4F884172B
:1010400094F86B07C87553E3B4F8560786421CBF83
:10105000B4F8580786423FF4FBADB4F85A0786420D
:101060001CBFB4F85C0786423FF4F2ADB4F85E07EB
:1010700086421FBFB4F860078642B4F86207864212
:101080003FF4E6AD94F8350040073FF534AA14204C
:1010900084F835003C20A4F87007502084F8340010
:1010A00094F8331094F82F0084F82F1084F833004C
:1010B00094F8321094F82E0084F82E1084F8320040
:1010C00094F8311094F82D0084F82D1084F8310034
:1010D00094F82C1094F8300084F82C0084F8301028
:1010E00094F83300401C84F83300C0B280B994F8FF
:1010F0003200401C84F83200C0B248B994F8310084
:10110000401C84F83100C0B210B9481C84F830008B
:10111000268D608D2085668504F1180004F1080194
:10112000102201F0C9FE04F1180104F1080001F0D9
:10113000BBFA00F06DBC072908BF04F2145594F8FF
:10114000691530200A003FF48AAD072908D12DB176
:1011500095F8260094F86A15884201D204F24455A5
:1011600094F8991560200A003FF479AD072908D159
:101170002DB195F8260094F89A15884201D204F210
:10118000745594F8C91590200A003FF468AD0729FA
:1011900008D12DB195F8260094F8CA15884204D2DA
:1011A00004F2A455002D3FF4A6A9C4F884570320E7
:1011B00085F8260085F8240004F10801002085F850
:1011C00022001022042085F82300002085F8270043
:1011D000608D2882208D6882284601F06DFE0120F6
:1011E00085F8250094F86407287694F865076876F2
:1011F00094F86607A87694F86707E8760120A88334
:1012000094F82C00287594F82D00687594F82E0039
:10121000A87594F82F00E875D4F884071430C178C5
:10122000491C84F86B17C9B2827884F86A270029B0
:10123000437884F86937067884F8686701BF511CE1
:1012400084F86A17C9B2002907D1591C84F86917B4
:10125000C9B211B9711C84F8681794F86817017045
:10126000D4F8841794F869074875D4F8841794F86B
:101270006A078875D4F8841794F86B07C87594F8D2
:10128000340000F0F001512922DB00090021401F49
:1012900000E0491CB1EB800F1ADA621892F83C307A
:1012A000B3B1012BF5D0022B04BF92F83D20042AE4
:1012B00025D16018214490F83E0091F83F1041EA92
:1012C0000026B6F59B6FC8BF4FF49B66EE832E8455
:1012D000102084F83500602194F8350040F00200B9
:1012E00084F83500022084F83C00042084F83D0096
:1012F00084F83E00D82084F83F00402041E0621886
:1013000092F83D20130018BF5118C3D1E0E7002028
:1013100085F82500202084F86F0702F081F9FFF797
:10132000EAB8012B04BF00F03F03022B3FF4C6AD27
:1013300092B2002A04BF032210423FF4BFAD94F8DA
:101340002C202B7D9A4202BF94F82D206B7D9A426F
:101350000AD194F82E20AB7D9A4202BF94F82F2038
:10136000EB7D9A423FF4AAAD800705D501F00F004E
:101370000128ADD00228AED0102084F835003C20E2
:101380005021A4F8700784F834102946287D84F889
:1013900030001022687D84F83100A87D84F8320086
:1013A000E87D84F83300287E84F82C00687E84F879
:1013B0002D00A87E84F82E00E87E84F82F00288A6D
:1013C0002085688A608504F1180001F075FD04F13C
:1013D000180104F1080001F067F995F82500C0062E
:1013E00040F110830020E08612E394F8350000F00D
:1013F0003F0002287FF47FA86AE794F86F07C007D0
:1014000040F1838094F8350000F03F0012287CD131
:1014100094F8342002F0F000512822DB002100E093
:10142000491C1009401FB1EB800F1ADA601890F8C0
:101430003C30B3B1012BF3D0022B04BF90F83D0038
:1014400004285AD16018214490F83E0091F83F10CA
:1014500041EA0026B6F59B6FC8BF4FF49B66EE834A
:101460002E84032085F8250094F82C00287594F824
:101470002D00687594F82E00A87594F82F00E87573
:10148000D4F884071430C178491C84F86B17C9B2AA
:10149000827884F86A270029437884F869370678C7
:1014A00084F8686701BF511C84F86A17C9B2002923
:1014B00007D1591C84F86917C9B211B9711C84F895
:1014C000681794F868170170D4F8841794F86907BE
:1014D0004875D4F8841794F86A078875D4F8841787
:1014E00094F86B07C875422084F86F070020A88322
:1014F000A4F8700784F86D07FBE0601890F83D00D1
:10150000030018BF41188CD1ABE7202084F86F0787
:1015100002F086F8D4F88417002081F82500B1E5A0
:1015200094F83510CA0767D5C00665D4A88B002883
:101530007EF4E1AFB4F87007D4F88417421CC87D7C
:10154000131884F86B3710048E7D06EB106684F850
:101550006A67F6B24F7D84F86977B6EB106F91F841
:1015600014C084F868C708DA781C84F86907C0B228
:1015700018B90CF1010084F86807DBB202F0FF0033
:10158000834210DA701C84F86A07C0B258B994F824
:101590006907401C84F86907C0B220B994F868074D
:1015A000401C84F8680794F868070875D4F8841715
:1015B00094F869074875D4F8841794F86A07887511
:1015C000D4F8841794F86B07C87594F86F07B4F8CB
:1015D000701740F0100009B140F0020084F86F0766
:1015E00002F01EF80120A883082085F825000020BD
:1015F00085F827001120C0E6880611D594F83B0035
:1016000094F83A10D4F87C2740EA01231A44C4F82D
:101610007C2740EA0120B4F87027101AA4F870075C
:10162000B4F87027100050D095F82500C0064CD4AF
:1016300094F86F07D4F8841740F0020084F86F071D
:10164000C87D131884F86B378E7D06EB122684F85C
:101650006A67F6B24F7D84F86977B6EB122F91F87E
:1016600014C084F868C708DA781C84F86907C0B227
:1016700018B90CF1010084F86807DBB202F0FF0032
:10168000834210DA701C84F86A07C0B258B994F823
:101690006907401C84F86907C0B220B994F868074C
:1016A000401C84F8680794F868070875D4F8841714
:1016B00094F869074875D4F8841794F86A07887510
:1016C000D4F8841794F86B07C87594F8360094F82A
:1016D000371001EB0026288CB6B2B04200DB06B909
:1016E0000646EE83032194F86F0708423EF403AFE9
:1016F0000020A4F8720701F093FF94F86F078106A9
:1017000006D50020A4F8720785F82500142034E6D9
:10171000C1060CD50020A4F872070120A88304207C
:1017200085F82500002085F82700112025E6B4F86B
:101730007217A9B1C00702D50020A88302E0A88BC8
:1017400001000BD1E88BB4F87217884288BF0846B5
:10175000A4F87207B4F87207A88301E0A4F872072E
:10176000002085F82700D4F88007C4F87C07B4F877
:10177000720738B1A88B010004D018213C3084F8DE
:101780003510FDE594F86F0780077EF5B4AE1021A3
:101790003C2084F83510F3E594F86F07C0077EF518
:1017A000AAAE002085F825001020B4E5B4F8702713
:1017B000100046D0D4F88417C87D131884F86B370E
:1017C0008E7D06EB122684F86A67F6B24F7D84F8A8
:1017D0006977B6EB122F91F814C084F868C708DA5D
:1017E000781C84F86907C0B218B90CF1010084F8BC
:1017F0006807DBB202F0FF00834210DA701C84F845
:101800006A07C0B258B994F86907401C84F86907A0
:10181000C0B220B994F86807401C84F8680794F8AF
:1018200068070875D4F8841794F869074875D4F8E0
:10183000841794F86A078875D4F8841794F86B07AE
:10184000C87594F8351094F86F07C90742D5C007DA
:1018500005D50021072085F82610A98300E0062081
:1018600085F82500D4F88407C17D491C84F86B17DE
:10187000C9B2827D84F86A270029437D84F86937DC
:10188000067D84F8686701BF511C84F86A17C9B2E5
:10189000002907D1591C84F86917C9B211B9711C04
:1018A00084F8681794F868170175D4F8841794F8C9
:1018B00069074875D4F8841794F86A078875D4F8CE
:1018C000841794F86B07C875102084F86F0701F02F
:1018D000A7FE51E5C00740F18180052085F825006D
:1018E0000020A883FEF707BEB4F87027100046D08A
:1018F000D4F88417C87D131884F86B378E7D06EBF7
:10190000122684F86A67F6B24F7D84F86977B6EBE1
:10191000122F91F814C084F868C708DA781C84F88C
:101920006907C0B218B90CF1010084F86807DBB28E
:1019300002F0FF00834210DA701C84F86A07C0B21C
:1019400058B994F86907401C84F86907C0B220B9F7
:1019500094F86807401C84F8680794F868070875CD
:10196000D4F8841794F869074875D4F8841794F864
:101970006A078875D4F8841794F86B07C87594F8CB
:101980003500C0072AD5072085F82500002085F8F6
:101990002600D4F884071430C178491C84F86B17EA
:1019A000C9B2827884F86A270029437884F86937B5
:1019B000067884F8686701BF511C84F86A17C9B2B9
:1019C000002907D1591C84F86917C9B211B9711CD3
:1019D00084F8681794F86817017066E7B4F8700720
:1019E00000287FF4C9ACFEF786BD94F86F07C007E6
:1019F0007EF581AD072085F82500002085F82600BA
:101A0000FEF779BD042084F83600D82084F837002A
:101A10000620A07104F108053A480079E07104F14C
:101A20000803B4F87007A0F12801091221712838C1
:101A300000216071A163C0B2227994F86D1700EBA8
:101A40000220401AADF80000BDF80000821D04F12C
:101A5000270085420CD21D785E7806EB0525ADB2D5
:101A6000AA1896B2AE4238BF521C9B1C8342F2D3D6
:101A7000834206D118780502AA1890B2A84238BF4E
:101A8000521CBDF80000214428310844401E814208
:101A90000CD20D784E7806EB0525ADB2AA1896B299
:101AA000AE4238BF521C891C8142F2D3814206D11A
:101AB00008780502AA1890B2A84238BF521C90B20A
:101AC00000280EBF4FF6FF70000A40EA022080B2E5
:101AD000C04320876020207000206070608000205C
:101AE00084F86F0702B0BDE8F081010C0204120E09
:101AF00042EA0022080A40EA012092B280B240EA9B
:101B000002407047884E0020F0B581B001F07AFEA7
:101B100001F00AFFDFF8A84A4FF49E7060212044CC
:101B200002F05CF94FF4847104F1100002F056F9F0
:101B3000202084F81801182084F819014FF4A060BF
:101B4000206140202075DFF87C0AA06102F04BF98B
:101B5000050202F048F9ADB2A169401900EB51024B
:101B6000B0FBF1F001FB1020E06142F21070206246
:101B7000002084F8240048F2FE00208000206080CD
:101B80006060C4F828014FF49E7025184FF4CE70A1
:101B900026184FF49E702044B0420ED2287810B917
:101BA000C4F8285106E008222146A81C01F0F8FDDF
:101BB000002841D02035B542F0D3D4F82801C0B177
:101BC000012101702146D4F82801801C102201F067
:101BD00073F9D4F82811402088740020D4F8281113
:101BE000C874D4F8281108770021D4F8280141617D
:101BF00081610822DFF8AC1A04F1080001F05CF9F9
:101C0000207A80F00200207204F188010020C4F8DC
:101C10001C0104F128074FF48C70251804F12800EA
:101C2000884204F1BE062DD294F8280038B904F198
:101C30002800C4F81C010AE0C4F82851D9E7102292
:101C4000214604F12A0001F0ABFD002853D094F89E
:101C5000480004F1480720B904F14800C4F81C0109
:101C600007E01022214604F14A0001F099FD002806
:101C700041D094F8680004F16807A0BB04F1680043
:101C8000C4F81C01D4F81C01002800F08A8001214E
:101C900001702146D4F81C01801C102201F00CF9BF
:101CA000D4F81C110120C874D4F81C110875D4F89C
:101CB0001C11887402216170FF2000212070618056
:101CC00061602181A172207301210020AE42E17286
:101CD000C4F8200159D294F8BE0078B904F1BE00CE
:101CE000C4F8200112E01022214604F16A0001F03C
:101CF00057FD0028C6D1C4F81C7152E010222146BD
:101D000004F1C00001F04CFD00284AD094F8D00046
:101D100020B904F1D000C4F8200107E010222146C8
:101D200004F1D20001F03CFD00283AD094F8E20022
:101D300020B904F1E200C4F8200106E01022214697
:101D400004F1E40001F02CFD58B394F8F40020B93C
:101D500004F1F400C4F8200106E01022214604F149
:101D6000F60001F01DFDE0B194F8060128B94FF42A
:101D700083702044C4F8200107E04FF484701022DF
:101D80002146204401F00CFD58B1D4F8200140B1A7
:101D9000012101702146D4F82001801C102201F09D
:101DA0008BF8002060806060A060A08140F2FF2777
:101DB0004FF48070E08127800020AE42C4F82001FB
:101DC0004ED294F8BE0020B904F1BE00C4F8200140
:101DD00007E01022214604F1C00001F0E1FC0028D8
:101DE0004AD094F8D00020B904F1D000C4F8200102
:101DF00007E01022214604F1D20001F0D1FC0028B6
:101E00003AD094F8E20020B904F1E200C4F82001CD
:101E100006E01022214604F1E40001F0C1FC58B3B1
:101E200094F8F40020B904F1F400C4F8200106E0AD
:101E30001022214604F1F60001F0B2FCE0B194F862
:101E4000060128B94FF483702044C4F8200107E04C
:101E50004FF4847010222146204401F0A1FC58B1B7
:101E6000D4F8200140B1012101702146D4F82001AD
:101E7000801C102201F020F8002060806060A060CB
:101E8000A08127804FF40070E08104F1BE0700209C
:101E9000AE42C4F820014FD294F8BE0020B904F13C
:101EA000BE00C4F8200107E01022214604F1C00062
:101EB00001F076FC00285DD094F8D00004F1D00742
:101EC00020B904F1D000C4F8200107E01022214617
:101ED00004F1D20001F064FC00284BD094F8E20039
:101EE00004F1E20720B904F1E200C4F8200107E0A0
:101EF0001022214604F1E40001F052FC002839D000
:101F000094F8F40004F1F40720B904F1F400C4F8E3
:101F1000200106E01022214604F1F60001F040FC09
:101F200040B34FF48370271894F80601C8B94FF4F2
:101F300083702044C4F82001D4F8200140B101216D
:101F400001702146D4F82001801C102200F0B4FF5B
:101F50004FF49670204401B0BDE8F040642102F0D7
:101F60000FB84FF4847010222146204401F018FC71
:101F70000028E1D1C4F82071EAE700002DE9F04320
:101F8000DFF83C4604F12800C4F81C0104F188097C
:101F90004FF48C7004EB0008FF2704F1280048453B
:101FA00081B071D2D4F81C010178002965D0017D7F
:101FB000002962D1183002F056F800281CBFD4F86E
:101FC0001C51002D59D002206070277000206080C5
:101FD00060602081A07227730120E07204F1BE06C8
:101FE000E87B6073288AE08104F1BE0040453CD262
:101FF00094F8BE0038B11022214604F1C00001F06F
:10200000CFFB002832D094F8D00004F1D00630B1D4
:102010001022214604F1D20001F0C2FB30B394F843
:10202000E20004F1E20630B11022214604F1E4009E
:1020300001F0B6FBD0B194F8F40004F1F40630B12D
:102040001022214604F1F60001F0AAFB70B14FF412
:102050008370261894F8060138B14FF4847010226A
:102060002146204401F09CFB00B10026C4F8206109
:102070000EB10021317000202870D4F81C012030EE
:102080004845C4F81C018DD301F060FE4FF49670F2
:10209000204401B0BDE8F04301F07ABFF0B504463A
:1020A000DFF81C554FF49E702844C5F8280181B014
:1020B0004FF4CE702E184FF49E702844B04213D2C5
:1020C000D5F82871387848B1B87CC2082146B81CC8
:1020D00001F066FB10B9012001B0F0BD07F120004E
:1020E000B042C5F82801EBD3002001B0F0BD2DE9C6
:1020F000F0410546DFF8C8440020C4F81C010E4634
:1021000004F1280004F188018842174604F12808E8
:1021100029D294F8280020B904F12800C4F81C0141
:1021200007E01022294604F12A0001F039FB0028BB
:1021300036D094F8480004F1480820B904F148006A
:10214000C4F81C0106E01022294604F14A0001F0FF
:1021500027FB28B394F8680004F16808C0B904F1BB
:102160006800C4F81C01D4F81C01D8B10121017029
:102170002946D4F81C01801C102200F09DFED4F8E2
:102180001C01C774D4F81C017EB90121017514E04B
:102190001022294604F16A0001F002FB0028E2D176
:1021A000C4F81C810020BDE8F08100210175314692
:1021B000D4F81C01183001F04FFFD4F81C11012095
:1021C000887402216170FF2000216180616021819B
:1021D000A172207001212073E1724FF48C71687B31
:1021E00060732144E889E08104F1BE050020C4F851
:1021F000200104F1BE0088424ED294F8BE0020B9FE
:1022000004F1BE00C4F8200107E01022214604F1C9
:10221000C00001F0C5FA002857D094F8D00004F1AE
:10222000D00520B904F1D000C4F8200107E0102245
:10223000214604F1D20001F0B3FA002845D094F809
:10224000E20004F1E20520B904F1E200C4F8200143
:1022500006E01022214604F1E40001F0A1FAA0B347
:1022600094F8F40004F1F40520B904F1F400C4F882
:10227000200106E01022214604F1F60001F090FA58
:1022800018B34FF48370251894F80601A0B94FF4E1
:1022900083702044C4F82001D4F8200140B101210A
:1022A00001702146D4F82001801C102200F004FEA9
:1022B000D4F81C01BDE8F0814FF48470102221464F
:1022C000204401F06DFA0028E6D1C4F82051D4F87A
:1022D0001C01BDE8F08170B5040060D00221DFF878
:1022E000E05269700021698069602981A972FF202C
:1022F000287001212873E9724FF48C71E07B6873B8
:102300002944208AE88105F1BE0605F1BE00884215
:102310003CD295F8BE0038B11022294605F1C00024
:1023200001F03EFA002832D095F8D00005F1D00631
:1023300030B11022294605F1D20001F031FA30B354
:1023400095F8E20005F1E20630B11022294605F1C8
:10235000E40001F025FAD0B195F8F40005F1F40697
:1023600030B11022294605F1F60001F019FA70B1DA
:102370004FF483702E1895F8060138B14FF484702D
:1023800010222946284401F00BFA00B10026C5F8B6
:10239000206130001CBF002131700020207070BD12
:1023A00070B50446864D0020C5F81C0105F1880172
:1023B00005F12800884205F1280628D295F8280062
:1023C00020B905F12800C5F81C0106E010222146BD
:1023D00005F12A0001F0E4F918B395F8480005F179
:1023E000480620B905F14800C5F81C0106E0102296
:1023F000214605F14A0001F0D3F990B195F8680043
:1024000005F1680628B905F16800C5F81C0100202F
:1024100070BD1022214605F16A0001F0C1F90028C3
:10242000F5D1C5F81C61304670BD654901F18803DE
:1024300001F128029A42C1F81C2144D291F82820C7
:102440008AB110F1010F1CBF91F83A2082420AD1E3
:1024500091F82A20FE2A04BF91F82B20802A02D16D
:10246000D1F81C01704701F14802C1F81C2191F814
:10247000482072B110F1010F1CBF91F85A2082421E
:1024800007D191F84A20FE2A04BF91F84B20802AF8
:10249000E6D001F16802C1F81C2191F8682072B100
:1024A00010F1010F1CBF91F87A20824207D191F8F8
:1024B0006A00FE2804BF91F86B008028D0D001F19B
:1024C0008800C1F81C010020704770B504463C4DDF
:1024D0000020C5F820014FF48C7105F1BE0029449D
:1024E000884205F1BE064ED295F8BE0020B905F12E
:1024F000BE00C5F8200107E01022214605F1C0000A
:1025000001F04EF9002856D095F8D00005F1D0061C
:1025100020B905F1D000C5F8200107E010222146BE
:1025200005F1D20001F03CF9002844D095F8E20012
:1025300005F1E20620B905F1E200C5F8200106E048
:102540001022214605F1E40001F02AF998B395F82C
:10255000F40005F1F40620B905F1F400C5F82001F6
:1025600006E01022214605F1F60001F019F910B33A
:102570004FF483702E1895F8060198B94FF48370C4
:102580002844C5F82001D5F82001B0B1012101701F
:102590002146D5F82001801C102200F08DFCD5F8D2
:1025A000200170BD4FF4847010222146284401F0B0
:1025B000F7F80028E7D1C5F82061002070BD0000C1
:1025C000784E0020C027090070B50446DFF8A452F9
:1025D0000020C5F820014FF48C7105F1BE0029449C
:1025E000884205F1BE064ED295F8BE0020B905F12D
:1025F000BE00C5F8200107E01022214605F1C00009
:1026000001F0CEF8002849D095F8D00005F1D006A9
:1026100020B905F1D000C5F8200107E010222146BD
:1026200005F1D20001F0BCF8002837D095F8E2009F
:1026300005F1E20620B905F1E200C5F8200106E047
:102640001022214605F1E40001F0AAF830B395F814
:10265000F40005F1F40620B905F1F400C5F82001F5
:1026600006E01022214605F1F60001F099F8A8B124
:102670004FF483702E1895F8060130B94FF483702B
:102680002844C5F82001002070BD4FF4847010224A
:102690002146284401F084F80028F4D1C5F82061CF
:1026A000304670BD805C00202DE9F0470D78714BFD
:1026B0000022FE2D4FF000083AD14D78802D39D1FF
:1026C00003F1880203F128019142C3F81C1180F044
:1026D000B38093F8281059B193F83A10012901BF3B
:1026E00093F82A10FE2993F82B10802900F0A1807E
:1026F00003F14801C3F81C1193F8481059B193F83D
:102700005A10012901BF93F84A10FE2993F84B1083
:10271000802900F08E8003F16801C3F81C1193F842
:102720006810002979D103F18801C3F81C1183E0F6
:10273000FF2DC5D003F12805C3F81C5103F188050E
:10274000D3F81C613778002F61D0B77C012F5ED1A0
:10275000B778FE2F04BFF778802F58D000270024C9
:102760004FEA010C06F1020E9CF800909EF800A0C2
:10277000D14520D19CF801909EF801A00837641C37
:10278000D14518D19CF802909EF802A00837641C2D
:10279000D14510D19CF803909EF803A00837641C23
:1027A000D14508D10837641C102C0EF1040E0CF131
:1027B000040CD9DB24E011F804C03419A47884EAAD
:1027C0000C045FEA046E5CBF7F1C5FEA446E17D4A2
:1027D0007F1C5FEA846E5CBF7F1C5FEAC46E0FD40F
:1027E0007F1C5FEA047E5FBF7F1C5FEA447E7F1C24
:1027F0005FEA847E04D47F1CE407240E08BF7F1C9C
:10280000FCB25FFA88FE744524BFB84632462036D3
:10281000AE42C3F81C610ED292E793F87A100129F8
:1028200001BF93F86A10FE2993F86B1080297FF49A
:102830007AAFD3F81C2152B90021018041808180F8
:10284000C180018141818181C181BDE8F087BDE8FE
:10285000F047911C102200F02FBB10B5044608224F
:1028600004F1080000F028FB207A80F002002072BA
:1028700010BD0000784E002030B5044681B00D46F2
:10288000CF4801F001FC01E001F099FC50B1017961
:10289000A142F9D14179A94218BFFF29F4D180683A
:1028A000010002D1012001B030BD8047002001B0FD
:1028B00030BD0146C24801F0E9BB70B5C148C24C09
:1028C0000079E071207EFF280DD104F1180004F199
:1028D0000801102200F0F0FA04F1180104F10800D8
:1028E000FFF7E2FE12E004F108004EC8B74D04F114
:1028F00008004EC504F11801102200F0DDFA103D69
:1029000004F118002946102200F0D6FAB04D2878BC
:10291000010019D03A21A171AE490A88121A0A8021
:1029200092B21146A1F128031B12283A2371627159
:1029300023184042A1F12C02184403F12C012C3041
:1029400000F07EFA0020287081212878204480F849
:102950002810002180F829104185FDF719FC2978FD
:102960002144C043488570BD2DE9F04F984C964DE9
:10297000824620788B46010081B0904605D02844DD
:1029800090F828003A2807D15FE0A8793A2803D1C7
:1029900095F82800802858DB8E4EDFF8309200F042
:1029A000F9FB05F11800B0E80E10A9E80E10308808
:1029B000303080B2B0F5A06FC8BF4FF4A060308057
:1029C0002946308827782C38C01B021FE819C01907
:1029D000303000F035FA60202870A9F1100900208D
:1029E00068706880002F19BF3A2085F828003A20C7
:1029F000A87174480079E8712889002804BF6889A3
:102A0000002811D1A889002804BFE88900280BD12B
:102A1000288A002804BF688A002805D1A88A0028CF
:102A200004BFE88A002810D005F1180005F108015C
:102A3000102200F041FA99F80000FF280CD1BAF1F9
:102A4000040F08BFBBF1020F06D0624900200880C6
:102A5000207001B0BDE8F08F494605F10800FFF78E
:102A600023FE2078284480F828A080F829B040462A
:102A7000FFF73BF821782944C8623088A0F128028A
:102A80002838687112122A7100204885FDF780FBF2
:102A900021782944C043488501B0BDE8F08F2DE975
:102AA000F0410E46484D4A4F602129701C460021D6
:102AB0006970698090463A21A971102241490979CB
:102AC000E971211D09122971211D6971014605F164
:102AD000180000F0F1F905F1180105F10800FFF701
:102AE000E3FD387828440021418580F8286080F88B
:102AF0002980FDF74DFB39782944C043488504F10E
:102B00002C0034490880BDE8F04100F024BD0000ED
:102B10002DE9F0412C4C04F1080184B06CC96846E1
:102B20006CC02B4E3078E579010018D03A21A171A4
:102B3000284F3988091A398089B20A46A2F1280338
:102B40001B122371283961712318404218442C3A12
:102B500003F12C012C3000F073F9002030701E4876
:102B60001C4F01F091FA5FEA000815D0D8F804C0B4
:102B7000BCF1000F0AD03888A0F12C033078204433
:102B800000F138029BB229466846E047404601F012
:102B900016FB5FEA0008E9D100203880307004B0ED
:102BA000BDE8F08110B5064C211D204601F06EFAFB
:102BB00004F110012046BDE8104001F067BA0000A2
:102BC00014070020884E002038340020505C00207C
:102BD000A53B0020A83B0020AC5C00202DE9F04183
:102BE000914D924CE879FF2884B040F01281207812
:102BF000284490F83010FF2900F00B8190F829004C
:102C0000002840F006818A4F8A4E78601420387080
:102C10000DE0B868417C09B9022141743878217807
:102C20004118294491F82D1000EBC100387020782C
:102C300039783388091801F12C029A4255DA68185C
:102C400090F82D10002900F0E48090F82C10012954
:102C5000E4D12C3078602889002804BF68890028D6
:102C600012D1A889002804BFE88900280CD1288A3D
:102C7000002804BF688A002806D1A88A002804BF5B
:102C8000E88A002800F0C5807868811C082202A824
:102C900000F012F905F1080000F0EBFDB86050B942
:102CA0000190022305200090002202A905F10800EE
:102CB00000F0B5FDB2E700F0D7FD5FEA000800F0D4
:102CC000A880786808224146801C00F069FD002831
:102CD0009FD0012202A9404601F02AFD00281EBF14
:102CE0000220B968487499D193E028443030FFF746
:102CF00057FB0028F86000F08C802889002804BF6A
:102D00006889002811D1A889002804BFE889002813
:102D10000BD1288A002804BF688A002805D1A88A18
:102D2000002804BFE88A002873D005F10800FFF7E7
:102D300037FB00286DD1287EFF2804BF687E02285B
:102D400016D1688B002804BFA88B002810D1E88B0F
:102D5000002804BF288C00280AD195F822000028FA
:102D600001BF95F82300012895F82400FF2806D01C
:102D700005F11800FFF714FBF968884249D105F105
:102D8000180005F10801102200F096F82178294476
:102D900005F108003031102200F08EF8002020707C
:102DA0001022602028700020687068802871282018
:102DB00068713A20A871FF20E871882085F8280002
:102DC000002085F82900E02085F82C00F868811C97
:102DD00005F1300000F070F8022085F8400085F819
:102DE00041000822144905F1420000F065F806216F
:102DF00005F14A0001F006FD00206885FDF7C8F9DD
:102E000021782944C043488504B050203080BDE873
:102E1000F081084900200880207004B0BDE8F081EE
:102E20000648FFF746BD000038340020A53B0020CF
:102E3000605C0020A83B0020805C00203007002060
:102E400081423ABF5318984200F036B8801899076B
:102E500007D0521E24BF13F8011D00F8011DF6D83B
:102E6000704781071CD1103A07D330B433E93210D0
:102E7000103A20E93210F9D230BC1032121F24BFB0
:102E800053F8041D40F8041DF8D838BF121D521E17
:102E900024BF13F8011D00F8011DF8D8704700BFCA
:102EA000083A07D333E90210083A40F804CD40F855
:102EB000041DF7D20832EAE762B38B0708D0521E2E
:102EC00011F8013B00F8013B00F024808B07F6D19C
:102ED000830740F0208000BF103A07D330B4B1E838
:102EE0003810103AA0E83810F9D230BC530724BF8C
:102EF000B1E80810A0E8081044BF51F8043B40F8BE
:102F0000043BD20724BF31F8022B20F8022B44BF28
:102F10000B7803707047083A07D3B1E80810083AF5
:102F200040F8043B40F804CBF7D25307E4E70268CB
:102F3000531C0360117070472DE9F043CB4DDFF84F
:102F400030938046287809EB000181B091F8291070
:102F5000002901BF4044484490F82810632958D103
:102F600090F82910042954D190F82B0002F0B8F8F9
:102F700007004ED028784044484490F82A108A062A
:102F80000CD597F89700022840DB09F1180000F0F3
:102F900011FD00283AD000F0CCFD37E0FA68927DB0
:102FA000002A36D000240906818D48BF0124080A72
:102FB00040EA01260F2002F007FE0146AD480068F6
:102FC00001F0EFFA38B129784144494491F82A10C8
:102FD000490648BF8680F9688A8BB6B29642894115
:102FE000C90F81F0010284F001032240194011430E
:102FF00017D020B1C7F85001384602F06CFF28788E
:103000004044484490F82A104A0606D5384602F053
:10301000A0FE002001B0BDE8F08341F0400180F83F
:103020002A10012001B0BDE8F08370B58F4D904C9F
:103030002E7800202870A079002804BF94F82A0078
:10304000632852D194F82900002804BF94F82B007B
:1030500004283AD194F82D0002F042F800281CBF51
:1030600090F89510002902D0C1688A7D12B92E709F
:10307000002070BD8A8B29786318110A41EA022169
:10308000D98590F8941083F82D1090F897000228B5
:103090002BDB93F82C00000604F1180017D500F084
:1030A00089FC10BB2878204490F82C1041F02001B6
:1030B00080F82C100F2002F087FD01F0BCFB20B13E
:1030C000002204F1180103F066FC002070BD00F03E
:1030D00071FC00282878204490F82C100CBF01F0D7
:1030E0007F0141F0800180F82C102E70012070BD0E
:1030F0002DE9F0435D4DDFF880912E7804460020E5
:10310000287040F21552B9F8008008F1080181B02A
:103110009142A8BF2E703ADA554FA8F1280207F164
:10312000280107F13000FFF78BFE07F1280000218E
:10313000C0E90011B87987F82800B971632087F8D1
:103140002A0087F82910042087F82B0087F82C1014
:10315000E068818B080A40EA0120F88594F8940021
:1031600087F82D0008F10800A9F80000787900F12F
:1031700008017971C9B2814202D23879401C387194
:1031800006F10800287001B0BDE8F0434DE701B03A
:10319000BDE8F083F0B5354C374D354E002081B099
:1031A00020701DE020787279304490F82810B171B9
:1031B00090F829102B88C9000831C9B25B1A2B80FE
:1031C000571A7771FFB2BA4202D23279521E327167
:1031D0009BB20144A3F1280228312830FFF730FECA
:1031E000B079002818BF2B28DCD03C2807D12078E4
:1031F000311891F82910C90008310818207001B061
:10320000F0BD30B51D4C206881B000281CBFC168DE
:10321000002915D0164D2A7EFE2A0FD16A7E802AFB
:103220000ED0898BB0F8A40081420CD1FFF7B2FF19
:1032300005F1180001F022FF10B10EE0FF2AF0D1D5
:10324000012001B030BD05F10800FFF7A9F848B131
:103250000B49E8790979884204D1206801B0BDE8BA
:10326000304045E701B0BDE83040DEE6A53B002038
:1032700038340020E4020020A83B0020E8020020AF
:10328000884E0020DFF8E4140860704710B514463B
:10329000FDF72AF820B1DFF8D81409688161C4610C
:1032A00010BD30B585B0044640F2FF20ADF80000F7
:1032B0000D460020ADF8020001900290ADF80C0020
:1032C00021464FF48070ADF80E006846FDF70CF80B
:1032D00028B1DFF89C1409688161C561048205B0DA
:1032E00030BD70B500280C46DFF88C5400F0ED803E
:1032F000012800F0FE80022800F00281872803D018
:10330000882800F08F8070BD6868A04205D12888A9
:10331000FDF74BF8002028806860E868A04205D1DE
:103320002889FDF742F800202881E8606869A042FA
:1033300005D1288AFDF739F8002028826861E869FC
:10334000A04205D1288BFDF730F800202883E861E2
:10335000686AA04205D1288CFDF727F80020288450
:103360006862E86AA04205D1288DFDF71EF80020AA
:103370002885E862686BA04205D1288EFDF715F814
:10338000002028866863E86BA04205D1288FFDF7EE
:103390000CF800202887E863DFF8E06306F1C0003E
:1033A00086421FD2B06AA04203D10020B06286F8E4
:1033B0002500B06DA04203D10020B06586F855000D
:1033C000D6F88800A04204D10020C6F8880086F80C
:1033D0008500D6F8B800A04204D10020C6F8B80095
:1033E00086F8B5004FF4C071DFF894030144826998
:1033F000A24204BF0022028220308269A24204BF9E
:103400000022028220308269A24204BF002202828E
:1034100020308269A24204BF00220282203088420A
:10342000E5D370BD05F14800844244D100F0C0FDF1
:10343000002840D0DFF8446396F8250058B105F124
:10344000480000F0ADFDDFF83C0306600220FDF708
:1034500037F800F080F896F8550060B105F14800A3
:1034600000F09EFDC74906F1300008600220FDF71C
:1034700027F800F070F896F8850060B105F1480073
:1034800000F08EFDBF4906F1600008600220FDF7E4
:1034900017F800F060F896F8B50060B105F1480043
:1034A00000F07EFDB74906F1900008600220FDF7AC
:1034B00007F800F050F8B44884423DD100F078FDA0
:1034C000002839D0FEF75AFD33E0002C34D0AD4847
:1034D00004600320FCF7F4FF00F03DF805F148001C
:1034E00000F066FD40B305F14800BDE8704000F013
:1034F00057BD0CB3A54804600520FCF7E1FF18E0B8
:10350000A34C2088C0B1A348817906290CD190F83A
:103510003500800708D505F1480000F049FD18B1D5
:1035200005F1480000F03CFD0120FCF7C9FF2088B0
:1035300010B1BDE870400EE070BD00B581B0002252
:1035400002218C4803F066FC91490020088001B0FC
:103550009149087000BD30B58D4C2088010081B0C4
:103560005CD0B0F5A06F55DC8A4D288B002804BFD5
:10357000688B002811D1A88B002804BFE88B002895
:103580000BD1288C002804BF688C002805D1A88C9A
:10359000002804BFE88C00283CD0FFF732FE00284A
:1035A00038D0287EFF282FD005F11800FEF776FDD1
:1035B000002805F1180005D000F05BF9E0B9208083
:1035C00001B030BD00F0F6F9050004D100F0A2FB17
:1035D0000028F1D11EE000F0C5F90028ECD1E8691F
:1035E00020B1006A90F8940001F0AAF9284601B0D1
:1035F000BDE8304000F09DBA00F036F95B4909683B
:103600000A0007D0884705E05849096808001CBF30
:1036100000208847002060492080087001B030BD3C
:1036200030B55848544D016881B0002911BF01F1EF
:1036300028045648006800F11804584800784006ED
:103640004CD5098A2A888A42284606D16A6822B15E
:10365000406820600020606037E02A898A4205F1D6
:10366000080002D1EA68002AF2D12A8A8A4205F1CA
:10367000100002D16A69002AEAD12A8B8A4205F138
:10368000180002D1EA69002AE2D12A8C8A4205F1A7
:10369000200002D16A6A002ADAD12A8D8A4205F115
:1036A000280002D1EA6A002AD2D12A8E8A4205F184
:1036B000300002D16A6B002ACAD12A8F8A4205F1F2
:1036C000380002D1E96B0029C2D105F1480000F0B1
:1036D0006FFC18B105F1480000F062FC206838B1B9
:1036E000626895F8441001B0BDE8304003F092BB29
:1036F00001B030BD30B50446084681B0114622887D
:1037000022B140F24B339A4221D028E01A4D0020DA
:10371000288028812882288328842885288628874D
:1037200013480068286403F0CDF985F844004FF48D
:10373000FA7105F1480000F023FCFCF781FD03F06D
:103740006FFC40F24B30208001B0012030BDFFF70C
:10375000C8FD40F24B30208001B0012030BD002078
:10376000208001B0032030BD00000000A85C0020D4
:1037700020590020A8060020245900204C390020A0
:103780000C3A0020BC3B0020A44F0020C03B00208E
:10379000A83B002038340020A53B0020A73B002098
:1037A0000300002013F0030F09D0521E22BF13F8AC
:1037B000010B11F801CBB0EB0C00F3D07047121FD6
:1037C00022BF53F8040B51F804CB6045F7D0121D0B
:1037D0000AD200BA9CFA8CFCB0EB0C0038BF6FF038
:1037E000000088BF01207047521E22BF13F8010B52
:1037F00011F801CBB0EB0C00F6D0521C08BF1046FC
:103800007047000000B581B003F0C7FC44480FF2D8
:103810003D01006801B05DF804EB00F08DBD70B5AE
:1038200004463F48049A00681D46059B00F04BFE85
:10383000060009D021461022FFF73EFB7574304682
:1038400003F0A7FB304670BD002070BD10B504002A
:1038500008D003F09EFB214631480068BDE81040C7
:1038600000F0E2BE002010BD01462D48006800F0C7
:1038700048BF70B52A4D0446286800F06EFD064624
:1038800034B9002070BD2868314600F0D7FD0646E7
:10389000002EF6D0102221463046FFF781FF002887
:1038A000F1D1304670BD01461D48006800F079BE78
:1038B000F0B51B4D0446286881B000F04EFD064669
:1038C0002CB9002001B0F0BD00F0B8FD0646002E76
:1038D000F7D02F68102221463046FFF761FF0028FD
:1038E00031463846F0D101B0BDE8F04000F009BFE4
:1038F00070B504460D46102002F066F906460949E7
:1039000003F06BFC58B92A462146304603F0C3FB4E
:103910002A4621463046BDE8704003F016BB70BD14
:10392000C80600206C1D010810B5DFF8A44404F19E
:10393000180003F063FC04F1140000F0A2FB2068FF
:103940000FF2CD2100F0F8FC04F1280003F056FC42
:1039500004F1240000F095FB04F13400BDE81040B0
:1039600000F08FBB00B581B050B14168DFF8600452
:10397000006800F0C6FE01B05DF804EBFFF793BFEE
:1039800001B000BDDFF84C0400F07EBB002818BF7A
:1039900000F015BC704700B581B0FFF789FF38B162
:1039A0000146DFF82C04006800F0FBFD00B10120A7
:1039B00001B000BD2DE9F0438046DFF8149481B0DA
:1039C00009F1140000F060FB0025002613E000BFA1
:1039D00094F82470B7420BDBFA0804F10801404662
:1039E000FFF7DEFE002802BF3E462546802E05D0AA
:1039F000204600F0E4FB0400EAD17DB109F1140097
:103A000000F042FB854209D0294609F1140000F07C
:103A10009EFB294609F1140000F073FB284601B013
:103A2000BDE8F0832DE9F0430446914681B0884615
:103A30004846FFF73DFF060045D02046FFF7BAFF96
:103A40000500DFF88C7313D06968386800F059FE00
:103A5000FFF729FF010008D010224846FFF7A0FE1B
:103A600018B9284601B0BDE8F083284600F061F897
:103A700078681E2827D03868314600F092FD05008E
:103A80000CD1386800230422314600F01CFD0500EB
:103A900019D06D600021296000F0F3FA07F11800D9
:103AA00003F0BAFB06000ED0314607F1140000F017
:103AB00028FB07F1080003F0AFFB40B9314607F1DE
:103AC000180003F0D2FB002001B0BDE8F08346608F
:103AD0000146686800F0DAFA756029467868401C8B
:103AE0007860386800F0D2FD06F108002146102207
:103AF000FFF7E2F986F824800C2106F1180000F0A7
:103B000081FE07F1340000F0BFFA5FEA00080CD034
:103B10007B68D8F804C04A4621460220E047404668
:103B200000F04DFB5FEA0008F2D1304601B0BDE87D
:103B3000F083F0B581B004001CBF606800284CD051
:103B4000A34D214605F1140000F001FB60684068B8
:103B500000F09AFA05E07068A04208D0304600F004
:103B60002EFB0600F7D104F1080003F0C9FB6068E2
:103B70004068314600F0EBFA6068406800F084FA73
:103B800020B960684168286800F04EFD214605F1C3
:103B9000180003F06AFB314605F1080003F065FBED
:103BA0006868401E68606168286800F0AAFDFFF739
:103BB0007AFE064605F1340000F066FA07000CD0E4
:103BC0006B68D7F804C0324604F108010320E047CF
:103BD000384600F0F4FA0700F2D101B0F0BD10B59C
:103BE00004001CBF6068002811D000F04DFA38B105
:103BF0004068FFF79EFF606800F046FA0028F7D1A2
:103C0000214673480068BDE8104000F00DBD10BDAE
:103C1000E5E70000F0B504466D4E81B00D4606F1B3
:103C2000240000F031FA02E0384600F0C8FA07003C
:103C300006D010222146381DFFF7B2FD0028F3D12F
:103C400067B906F1280003F0E7FA070008BF002073
:103C50002BD0394606F1240000F053FA381D2146D6
:103C60001022FFF729F935B1294607F1140000F0B9
:103C7000F3F9002000E00120387706F1340000F06D
:103C800003FA050000F0108006F1240000F084FA29
:103C90000346D5F804C0224621460020E0472846C6
:103CA00000F08DFA0500EFD1384601B0F0BD0000FC
:103CB000F0B50446464D81B005F1240000F0E4F96A
:103CC00002E000BF00F07BFA08B3A042FAD121461F
:103CD00005F1240000F03BFA214605F1280003F02D
:103CE000C4FA05F1340000F0CFF9060000F00F80AF
:103CF00005F1240000F050FA03467768221D211DCB
:103D00000120B847304600F05AFA0600F0D101B061
:103D1000F0BD000030B581B02F4800F0B5F90024A7
:103D200003E0284600F04BFA2C1D05000AD0281DA0
:103D3000FFF79FFD00281CBF407C0028F1D0281D04
:103D400001B030BD204601B030BD0000F0B581B0FB
:103D50001F4C24E000F033FA08B3A842FAD12946F8
:103D600004F1240000F0F3F9294604F1280003F0DF
:103D70007CFA04F1340000F087F9060000F00F80AF
:103D800004F1240000F008FA034677682A1D291D73
:103D90000120B847304600F012FA0600F0D104F1D5
:103DA000240000F071F905000FD0287F48B905F113
:103DB000140000F058F920B104F1240000F064F977
:103DC000CAE7284600F0FBF9EDE701B0F0BD0000BE
:103DD000DC060020F006002000070020002203F08F
:103DE000FFBA03F017BB00B581B003F023FB80B22C
:103DF00001B000BD30B5954C206881B098B103F09A
:103E0000A0FB21680A684B6889689A18121A49B1A0
:103E10000B684D688968EB181B1A934238BF1A4625
:103E20000029F5D11018606001B030BDF0B504462E
:103E300081B0208810B1592807D06EE0834908600E
:103E40005920208001B00120F0BD87297F4D06D088
:103E50008229F5D12E68002731E080682860286823
:103E60000028EDD0C168914214D1806828600028F4
:103E7000E6D0C16891420DD1806828600028DFD06B
:103E8000C168914206D1806828600028D8D0C168F6
:103E90009142E2D02E68B0680028D1D0C16891422A
:103EA00012BF06468068B060F5E72E68686000279C
:103EB00005E005F1080002F0B6FF3746B668002EAF
:103EC000BED0304603F05EFB0028F6D0F0683246E4
:103ED000882102F078FF0028EBD1F060002FB06855
:103EE00014BFB86028600020B06028680028DCD0CB
:103EF00003F027FB29680A684B6889689A18121A28
:103F000049B10B684E688968F3181B1A934238BF91
:103F10001A460029F5D11018C7E70020208001B00B
:103F20000320F0BD4A4802F07EBF30B50446474D3D
:103F300081B005F1080002F076FF2868E168B1B1B0
:103F4000014602E0A14203D0896881B1A14203D1B8
:103F500040480068E0600FE0896841B1A142F7D0B5
:103F6000896821B1A142F3D089680029EAD1394991
:103F70000968E160A0602C6001B0BDE8304039E71D
:103F800010B5044603F0ECFA2046BDE81040CCE73B
:103F900010B5044603F0EBFA2046BDE81040C4E734
:103FA00010B5044603F0E8FA2046BDE81040BCE72F
:103FB000C06800280CBF01200020704701684068DD
:103FC000401870472148006800B10120704770B563
:103FD0001E4D04462868844204D180682860D8B900
:103FE00000202DE0014600E0114651B38A68A2424C
:103FF0000ED0110025D08A68A24209D0110020D02D
:104000008A68A24204D011001BD08A68A242EBD178
:10401000A2688A600028E3D003F093FA29680A684E
:104020004B6889689A18121A49B10B684E688968FA
:10403000F3181B1A934238BF1A460029F5D11018FD
:1040400068600020A060E06070BD000050000020AB
:10405000580000202059002010B50446616003F08C
:104060006DFA206010BD10B5044603F067FA2168B0
:10407000401A6168401A6FF0004188428041C00FC9
:1040800010BD002101607047006870470268FAB1F6
:10409000002310E013461268D2B18A4212D01346B0
:1040A0001268AAB18A420DD01346126882B18A42C0
:1040B00008D0134612685AB18A42EBD113B913687B
:1040C000036003E0D2F800C0C3F800C0002313600F
:1040D00000220A60026882B113686BB1126813682B
:1040E00053B11A4613683BB11A461368002B03D02C
:1040F0001A461368002BF1D10AB9016070471160AC
:1041000070470268FAB1002310E013461268D2B17A
:104110008A4212D013461268AAB18A420DD01346C1
:10412000126882B18A4208D0134612685AB18A4294
:10413000EBD113B91368036003E0D2F800C0C3F8F1
:1041400000C00023136002680A60016070470268C3
:104150000AB3002303E08A420AD013461268D2B1A0
:104160008A420AD123B911680160002010607047AB
:10417000106818600020106070471346126852B132
:104180008A42F5D0134612682AB18A42F0D013460B
:104190001268002ADFD170470068002168B100680A
:1041A000491C50B10068491C38B10068491C0028FE
:1041B00003D00068491C0028F1D10846704700B1BF
:1041C000006870472DE9F042DFF82C56044605F1EF
:1041D000340608274FF00109316849B38A68100096
:1041E00026D094B1AB68DFF81406E31A83FB00EC29
:1041F0004FEA6C0303EBD37313F1010F05D048684A
:10420000D1F80CC05843604400E0002080B1CB6876
:10421000D1F804C0C31A93FBFCF313F1010F07D0CC
:104220002B4409681B7B09FA01F10B4218BF904728
:10423000361D7F1ED0D14CB1A868DFF8C015201AFA
:1042400080FB0121481000EBD07001E04FF0FF30FF
:1042500028440021017305F158002146BDE8F042D1
:10426000FFF775BF2DE9F0418046DFF88C650F46FA
:10427000304602F0D1FF0024002590BB394640466D
:1042800003F0F1F95FEA000853D006F15800FFF798
:10429000FBFE02E03846FFF792FF070023D0391DEE
:1042A000404602F09AFF0028F4D0B068DFF84C25B1
:1042B000391A81FB0232511001EBD17111F1010F5A
:1042C0001CBF01EB410210EB82050CD0701890F876
:1042D000200010B1314481F820402846FFF772FFDA
:1042E0002846BDE8F08106F15800FFF7CDFE1CE03E
:1042F000B168DFF80825411A81FB0232511001EB49
:10430000D171721892F820206AB93144097B21B129
:10431000CB0748BF521C4910FAD10DB1A24202DAB4
:1043200014000546D9D0FFF74AFF0028E0D1002D40
:10433000D3D10020BDE8F081DFF8BC24536D082BF9
:1043400009D203605B1C53658160016802EB810147
:104350004863012070470020704730B50446DFF8FD
:10436000985481B005F15800FFF78EFE70B1A9682E
:10437000401ADFF8881480FB0121481000EBD07050
:10438000ACB110F1010F14D1002016E0ACB93CB370
:1043900030B3E168401A616890FBF1F010F1010F51
:1043A0001ED0A96800EB400201EB820019E000205A
:1043B000EDE76268E168504308440028E7D0E1680F
:1043C0006268411A91FBF2F111F1010FDFD029442B
:1043D0002368097B01229A401142D8D001B030BD38
:1043E0000020FFF7ECFE90B1A968401ADFF80C142A
:1043F00080FB0121481000EBD070002C18BF10F199
:10440000010F04D06268E1685043084400E00020D6
:1044100090B1002C18BF0028E2D0E1686268411A10
:1044200091FBF2F111F1010FB2D029442368097B0D
:1044300001229A401142ABD001B030BD10B504004A
:10444000084610D078B1E168401A616890FBF1F03D
:1044500010F1010F07D0DFF8A013896800EB4002CC
:1044600001EB820000E00020FFF7A9FEA0B1DFF819
:1044700088138968401ADFF8841380FB01214810F3
:1044800000EBD070002C18BF10F1010F04D062684F
:10449000E1685043084400E0002098B1002C18BFA8
:1044A0000028E0D0E1686268411A91FBF2F111F155
:1044B000010FC7D0D04A236811440122097B9A40DA
:1044C0001142BFD010BD2DE9F0470E0008BFCC4E01
:1044D00004463700C84D9146984608BFC84F05F1BD
:1044E0005800FFF7D1FD02E05046FFF768FE5FEA93
:1044F000000A14D0002FF7D00AF10401384602F068
:104500006CFE0028F0D0A868BC49AAEB000080FB34
:1045100001214F1007EBD77717F1010F1BD141464F
:104520004846FFF79FFE5FEA000908BF002036D02B
:10453000494605F15800FFF7A9FDA868AF49A9EB66
:10454000000080FB012109F104004F10314602F008
:1045500041FE07EBD777002C18BF17F1010F04D0ED
:104560006168E0687943461800E0002661683046DB
:1045700000F048F9002C18BF002E0FD0E0686168E9
:10458000301A90FBF1F010F1010F07D029182368C1
:10459000097B01229A402844114301733046BDE84B
:1045A000F087F0B504460E00934D81B008BF944EDD
:1045B00005F15800FFF768FD02E03846FFF7FFFD00
:1045C000070015D0002EF8D0391D304602F005FE48
:1045D0000028F2D0A8688949381A80FB01214810C8
:1045E00000EBD07034B110F1010F06D1002008E0CB
:1045F000002034B9002001B0F0BD6268E16850438A
:1046000008440028F6D0E1686268411A91FBF2F193
:1046100011F1010FEED029442368097B01229A4051
:104620001142E7D001B0F0BD70B4002814BF0029DA
:10463000002228D0C26843688A1A92FBF3F212F172
:10464000010F08BF002209D06B4B06689C1801259A
:10465000247BB5401A44AC4314730122C368C91AC1
:10466000436891FBF3F111F1010F0CD0624B00682C
:104670005C18012594F8204005FA00F0194424EA5A
:10468000000081F82000104670BC7047002818BF59
:10469000002916D0C268891A426891FBF2F111F123
:1046A000010F0ED0544A006853184FF0010C93F8D4
:1046B00020300CFA00F01144184381F8200001204A
:1046C000704700207047002818BF002917D0C26823
:1046D000891A426891FBF2F111F1010F0FD0464A9D
:1046E000006853184FF0010C93F820300CFA00F0DA
:1046F000114423EA000081F82000012070470020C7
:104700007047002818BF002910D0C2684068891A75
:1047100091FBF0F010F1010F1FBF3749896800EBE2
:10472000400211EB820001D0001D7047002070474D
:104730002DE9F0430700304E81B08846914608BF0E
:104740002F4F06F15800FFF79FFC02E02046FFF7CD
:1047500036FD04003ED0002FF8D0211D384602F06F
:104760003CFD0028F2D0B0682449201A80FB0121CA
:104770004F1007EBD77717F1010F2BD05FEA080432
:1047800008BF1F4C06F15800FFF77EFC02E02846E8
:10479000FFF715FD050021D0002CF8D0291D20467B
:1047A00002F01BFD0028F2D0B068144A291A81FBE0
:1047B0000232511001EBD17111F1010F0ED0B9424B
:1047C00016D0B9F1000F05D007EB470100EB8100CF
:1047D000FFF7F8FC002001B0BDE8F083B06807EBFC
:1047E000470300EB830008224146001DFEF764FBEF
:1047F000012001B0BDE8F08398000020ABAAAA2AEE
:104800006C1D0108002202F073BF000010B50446C1
:1048100000F0B2FB2146DFF8D407D0F85401BDE820
:104820001040FFF701BFDFF8C407DFF8D018D0F859
:104830005401FFF781BD0146DFF8B007D0F85401FD
:10484000FFF7AFBE00281CBF0168002909D0096A24
:1048500000291CBF8968002903D009690A0018BF14
:1048600008474FF6FF7070470146DFF8800700B534
:10487000D0F8540181B0FFF744FF01B05DF804EBBC
:10488000FFF711B80146DFF8640700B5D0F854010E
:1048900081B0FFF736FF01B05DF804EB02F0E6BB34
:1048A0000146DFF8480700B5D0F8540181B0FFF7A2
:1048B00028FF02F0DBFB01B05DF804EB02F0DABB8D
:1048C00010B504001CBF2068002805D0006A00282D
:1048D0001CBF8068002801D1002010BDDFF80C0744
:1048E000D0F854012146FFF70CFF02F0BFFB02F0A5
:1048F000C1FB50B12168096A8968896820468847E8
:10490000401E8041C043C00F10BD012010BD4FF6B6
:10491000FF72914211D0026AB2F8A2305FEA030C32
:1049200009D0008AB2F8A420181891FBF2F190FB8C
:10493000F2F0884201DB0120704700207047000040
:10494000DFF8A81600B591F8952081B04AB191F82A
:104950009420824201BFC868828BB1F8A4309A4289
:1049600002D0002001B000BD827C531C802AAEBF63
:10497000837403F07F02827491F89600421C8028B1
:10498000B8BF02F07F0281F89620084601F0E1F9F5
:10499000012001B000BD70B5040084B00D4628D0E0
:1049A00075B1287D217D81420AD1C2082946204661
:1049B000FEF7F6FE002802BF607D697D884235D093
:1049C000684600210022002300264EC0207DC01D25
:1049D0000004C20C21466846FEF77EFADFF8F41B9D
:1049E0006846FDF73AFF6846FDF7DAFC08B1FDF7C7
:1049F00072FCDDB1684600210022002300241EC0A5
:104A0000287DC01D0004C20C29466846FEF764FAE2
:104A1000DFF8C01B6846FDF720FF6846FDF7C0FCC5
:104A200020B9012200216846FDF761FB04B070BD8A
:104A3000F0B5044687B094F8380015460646812D37
:104A400028BF00202AD250B104F12400B0E8881019
:104A50006A46A2E88810B0E88810A2E8881004F13D
:104A600024000022002300279446A0E88C10E81DB3
:104A7000C20804F12400FEF71FFA4020002E84F83B
:104A8000385084F8390004F1240103D10020FFF7E5
:104A900082FF02E06846FFF77EFF012007B0F0BD0D
:104AA00030B50446DFF844554FF4AA7081B028446D
:104AB00095F8951000294FF4AA7110D12846FFF7F8
:104AC0008DF90020C5F8900085F89440012085F804
:104AD0009500284601F09CFA284601B030BD0D44EF
:104AE0008542E5D3002001B030BD30B5DFF8FC448D
:104AF00094F8951081B019B194F89410814203D0C4
:104B0000FFF7CEFF040028D004F1100505F1800066
:104B100002E0697D21B1403585421ED2697D69B9C7
:104B200040212846FFF75AF9012068752C624FF69C
:104B3000FF70A883288201B0284630BD40358542E9
:104B40000BD2697D0029EBD04035854205D2697DC5
:104B50000029E5D040358542DBD3002001B030BDCF
:104B600070B50446A07D68B30020A075206A30B1FE
:104B700090F897000228A4BF204602F09EF994F80E
:104B80003900400604D5002104F12400FFF703FF9B
:104B9000DFF85854D5F85401FFF7DFFB060011D0B9
:104BA0003068844207D1304600F0E6F9D5F8540168
:104BB0003146FFF739FDD5F854013146FFF73EFC89
:104BC0000600EDD10020607570BD70B504460D463D
:104BD0001046FEF76DFE002601000ED0DFF80C0433
:104BE000D0F854012B460122FFF76DFC060004D0DB
:104BF0003460688AB080687EB071304670BD10B590
:104C000004460846FEF735FEFEF72EFE0146DFF8A5
:104C1000DC03D0F85401FFF7C4FC10B10168A142D5
:104C200000D0002010BD10B504460846FEF721FE56
:104C3000FEF71AFE0146DFF8B403D0F85401FFF77F
:104C4000B0FC00281CBF0168002902D0096AA142FB
:104C500000D0002010BD2DE9F043044681B00F467E
:104C6000E668B4F8A410B08BB56988422CD03868D7
:104C700000F007F940B13968B14225D0A2689269C5
:104C80003046904706461FE03868B0421CD104F118
:104C90001007002607F180094F457AD24FF6FF78BA
:104CA000787D00281FBFB86900288088404508D05B
:104CB0000EB93E4605E0A2689269394630469047F3
:104CC000064640374F45EBD3002E62D0E068B04235
:104CD0001DD02CB194F897100229A8BF02F0EDF86E
:104CE00096F83900400603D5E06806F1240105E096
:104CF000E06890F83910490603D500212430FFF709
:104D00004AFE0120B0750020E1688875E660204603
:104D1000A168C9698847B06900281CBF01680029DB
:104D20000AD0096A00291CBF8968002904D00969D2
:104D30000A0001D0884701E04FF6FF70B083002DD4
:104D4000B08B03D0318A884288BF08463082304613
:104D5000B18BFFF7DCFD00BBE668002E1CBFB1691C
:104D600000290CD0DFF8507CD7F85401FFF7ABFCDA
:104D7000D7F854010021FFF789FC0020B06144B14D
:104D800094F89700022804DB1DB10021284601F0A9
:104D9000A4FD002001B0BDE8F083B169A94231D083
:104DA000DFF8140CD0F85401FFF7ABFCFEF77BFDE5
:104DB0000746D4F8900020B1FEF77AFF0020C4F82F
:104DC00090002FB100213846FEF724FFC4F8900070
:104DD00094B194F8970002280EDB1DB100212846FB
:104DE00001F07BFD94F896008028AEBF401C401C6B
:104DF00000F07F0084F89600204601F034F8204649
:104E000000F0A7FF304601B0BDE8F0832DE9F04780
:104E100004001CBF206A00280D464FF000082DD06A
:104E200087685FB3DFF890ABDAF85401FFF795FAC3
:104E300006004FF6FF7921D03068A04217D1B08824
:104E4000484514D0216AB1F8A41088420FD34DB15F
:104E5000DAF854013146FFF754FC02F007F902F08A
:104E600009F920B17A693146404690478046DAF820
:104E700054013146FFF7E2FA0600DDD14046BDE8B5
:104E8000F087F0B581B004460021FFF7BFFF0500B1
:104E900046D0DFF8246BD6F854012946FFF731FCE1
:104EA00002F0E4F802F0E6F878B1002C1CBFA1692A
:104EB000A94247D0D6F85401FFF705FCD6F85401B3
:104EC0002946FFF7E3FBA5613CE001212046FFF7FF
:104ED0009DFF07000FD1002C1CBFA169A94219D06A
:104EE000D6F85401FFF7EFFBD6F854012946FFF737
:104EF000CDFBA5610EE0002C1CBFA169B94209D011
:104F0000D6F85401FFF7DFFBD6F854013946FFF716
:104F1000BDFBA761206AC0F8CC5001F079F811E020
:104F2000002C1CBFA16900290CD0DFF88C6AD6F8D0
:104F30005401FFF7C8FBD6F854010021FFF7A6FB88
:104F40000020A061A06900281CBF016800290DD0C5
:104F5000096A00291CBF8968002907D009690A006D
:104F600004D08847A083A06901B0F0BD4FF6FF7060
:104F7000A083A06901B0F0BD30B5054681B02C68B2
:104F8000A069854218BF00282CD14FF6FF70A0837E
:104F9000A07D38B3206AD0F8900028B1FEF788FED3
:104FA000216A0020C1F89000A06985421AD1206AC8
:104FB00038B190F89700022803DB0021284601F061
:104FC0008CFC002C1CBFA16900290BD0074DD5F823
:104FD0005401FFF778FBD5F854010021FFF756FB89
:104FE0000020A06101B030BD000000009001002051
:104FF000F0B5044681B00D46A16916468E4224D113
:10500000002C18BF00290CD0DFF8AC79D7F8540178
:10501000FFF759FBD7F854010021FFF737FB0020B9
:10502000A0614FF6FF70A083A07D00281EBF206AFC
:10503000D0F8900000281ED0FEF73AFE216A00202A
:10504000C1F89000356001B0F0BDA07D00281CBF04
:10505000206A00280FD090F8970002280BDBDFF8B9
:105060005809D0F854013146FFF74BFBFEF71BFC03
:10507000214601F034FF356001B0F0BD70B5DFF8B6
:105080003859044695F89500E8B195F826000026B1
:1050900058B195F84800C208214605F11000FEF706
:1050A0007FFB10B9A819103070BD95F86600402636
:1050B00048B195F88800C208214605F15000FEF776
:1050C0006FFB0028EED0002070BDDFF8EC0890F8F0
:1050D000951000291DBFC068817D00290020704700
:1050E000DFF8D41891F895202AB191F894208242E3
:1050F00001D1084670470020704700000D480008A5
:105100002DE9F0430C4681B08046607D012800F017
:10511000BA80DFF80893218AB9F82000884240F06D
:10512000B280207E2146FFF7E0FC050000F0AB8056
:105130002E6A42462146FFF748FD070005D10020B0
:1051400086F8950001B0BDE8F083607EB87194F8F0
:105150005100400604D504F13C010020FFF71BFC80
:105160000120A875A07D2875207DE874E07DA874D5
:10517000C6F80890607D86F8970094F85400307067
:1051800094F85500707094F85600B07094F8570079
:10519000F070F560F02086F89600208CA6F8A2004A
:1051A000608CA6F8A400A07E86F89800E17E86F8C0
:1051B0009910401886F89C00207F86F89A00607F3E
:1051C00086F89B00E08BA6F8A6000FCC0FC5103C1C
:1051D00004F13C00B0E80C10103D05F12401A1E8F9
:1051E0000C10B0E80C10A1E80C10A969B9420BD062
:1051F000DFF8C447D4F85401FFF765FAD4F8540136
:105200003946FFF743FAAF613046B168C96988474C
:10521000386800281CBF006A002807D0806828B1C1
:105220000169080002D03846884701E04FF6FF7058
:10523000A883DFF88447A88B2882D4F8580108B9DE
:10524000C4F85861304600F084FDD6F8900020B1D3
:10525000FEF72EFD0020C6F89000B8F1000F05D033
:1052600000214046FEF7D6FCC6F8900096F897005D
:1052700010B1304600F0F7FDB1680968284601B06A
:10528000BDE8F043084701B0BDE8F0832DE9F043E5
:105290000C4681B00746207EFFF727FC050008BFBB
:1052A000002000F0B8802E6ADFF80C973846FEF731
:1052B000E0FAFEF7D9FA0146D9F85401FFF771F97F
:1052C00000281CBFD0F80080B8F1000F0AD13A4680
:1052D00021462846FFF779FC070019D1687501B00F
:1052E000BDE8F0833846FEF7C4FAFEF7BDFA014682
:1052F000D9F85401FFF755F9070008D03868404540
:1053000005D13A4629464046FFF772FE00E00027E5
:10531000608AB880DFF8A406228A018C9142B168C5
:1053200018BF0020884202BF96F89700617D88422E
:1053300022D1B6F8A200218C884202BFB6F8A400A0
:10534000618C884218D196F89800A17E884202BFED
:1053500096F89900E17E88420ED196F89A00217F56
:10536000884202BF96F89B00617F884202BFB6F870
:10537000A600E18B88420CD03846FFF7FDFDD9F836
:1053800054013946FFF750F90020687501B0BDE8B7
:10539000F08301206875207DE874A07D2875E07D8C
:1053A000A8740FCC0FC5103C04F13C00B0E80C1001
:1053B000103D05F12401A1E80C10B0E80C10A1E8A3
:1053C0000C10A969B94209D0D9F85401FFF77BF94B
:1053D000D9F854013946FFF759F9AF61002F1CBFC6
:1053E000386800280BD0006A00281CBF806800289D
:1053F00005D00169080002D03846884701E04FF621
:10540000FF70A8833946A88B2882304600F007F940
:10541000607EB871284601B0BDE8F0831C0300200F
:105420002DE9F041DFF890750546D7F854010C4698
:105430001646FEF792FF5FEA000813D0D8F8000086
:10544000844207D14046FFF797FDD7F85401414603
:10545000FFF7EAF8D7F854014146FEF7EFFF5FEA9D
:105460000008EBD1F07D216AA0744FF6FF77B07E83
:1054700081F89800216AF07E81F89900216A307FD6
:1054800081F89A00216A707F81F89B00216AF08B75
:10549000A1F8A6002046896809688847206A278203
:1054A00090F896104A1C8029AEBF80F8962002F032
:1054B0007F0180F896102A4631462046FFF785FB8B
:1054C000050008BFA78315D0286800281CBF006A04
:1054D000002807D0806828B10169080002D028465A
:1054E00088470746A7832946A08B2082206ABDE80B
:1054F000F04194E0BDE8F0812DE9F0475FEA000A51
:1055000065D000250AF110064FF6FF77DFF8A88472
:10551000707D002843D0B783D8F85401FEF71DFFF3
:105520005FEA000900F03B80D9F80040A6422ED186
:10553000A069814518BF002829D1A783A07D30B379
:10554000206AD0F8900028B1FEF7B2FB216A002053
:10555000C1F89000A069814519D1206A38B190F84E
:105560009700022803DB0021484601F0B6F9002C21
:105570001CBFA16900290AD0D8F85401FFF7A3F88D
:10558000D8F854010021FFF781F80020A0614946B6
:10559000D8F85401FEF752FF5FEA0009C4D16D1C30
:1055A0004036022DB4DB00208AF8A100504600F0FE
:1055B000D0FB9AF89700022809DB9AF89600802819
:1055C000AEBF401C401C00F07F008AF89600BDE88A
:1055D000F0870000805C002030B5DFF8DC43D4F8B1
:1055E000540181B0FEF7B9FE050016D028680028E6
:1055F0001CBF016A002909D0E979CA0706D501F064
:10560000FE01E9712946006A00F009F8D4F8540156
:105610002946FEF713FF0500E8D101B030BD2DE9A2
:10562000F04104460D46E0688669012704B394F80A
:10563000970002281CDBDFF88083D8F85401FFF7BD
:1056400060F8FEF730F9FEF7A6F988B12846FFF7B3
:1056500037F968B994F89700022809DBD8F85401A3
:105660002946FFF74EF8FEF71EF9296801F037FCCE
:10567000A9882868FFF74BF938B92846FFF77CFC62
:10568000E0688069854209D1002729462046FFF756
:10569000E2FA30B92EB12046FFF72EFF0020BDE818
:1056A000F0813846BDE8F0812DE9F0430D4681B028
:1056B0008046687D022840F07B81DFF8FC922C7EDA
:1056C00099F89560DEB199F89410A14217D199F834
:1056D000250009F1100730B11022294609F1100008
:1056E000FEF75EF860B199F8650009F1500730B136
:1056F0001022294609F15000FEF752F800B10027A8
:10570000002E64D099F89400A04260D1A7B1E97D41
:10571000BA7C084680281BDB802A19DA02F58073E0
:105720001B1A112B1FDA802A3DDB80283BDA00F59B
:105730008070801A112841DAD9F80C00B9F8A42039
:10574000818B914251D1B8424FD001B0BDE8F08376
:10575000824203DA831A102B05DBE4E79042E2DA97
:10576000131A712BDFDBBA8BB9F8A4309A4206D139
:10577000491C8028B8BF01F07F01B97421E095F879
:105780005020100008D095F85100400604D505F1CE
:105790003C013846FFF74CF92A463946404601B0ED
:1057A000BDE8F0433CE6904203DA101A102805DB0E
:1057B000C2E78242C0DA801A7128BDDBB87D0028BA
:1057C000BAD0484601B0BDE8F04300F0C2BA2A465C
:1057D0000121404600F061FC002800F0E9802946E4
:1057E000404601B0BDE8F0438AE477B92A4601217A
:1057F000404600F052FC002800F0DA80294640467E
:10580000FFF744FD070000F0D380688AB9F8A410C0
:105810008842C0F0CD8095F85020100008D095F84F
:105820005100400604D505F13C013846FFF700F968
:105830002A460121404600F030FC002800F0B880E4
:10584000B88BB9F8A41088420DD1688A4FF6FF7161
:10585000884200F0AD8099F89E00401C89F89E00B7
:1058600001B0BDE8F08399F8991099F898200120CB
:105870005118884000EB4000514AA0FB0221480A21
:10588000F8634046FDF7F5FFFDF7EEFF0146D9F856
:105890005401FEF786FE040002D02068B84200D012
:1058A00000247CBB4046FDF7E4FFFDF7DDFF014629
:1058B000D9F85401FEF775FE00281CBF0668002EBB
:1058C00009D1424629463846FFF77FF9040024D122
:1058D00001B0BDE8F0834046FDF7CBFFFDF7C4FF04
:1058E0000146D9F85401FEF75CFE040002D020689E
:1058F000B04200D0002484B1224639463046FFF73A
:1059000077FB0AE0A088698A884206D1B87D20B179
:1059100099F89E00401C89F89E004FF6FF71688A36
:10592000A080688A884201BFB8698442484600F076
:1059300010FAE07940F00100E07121464846FFF797
:105940006EFEA8B3B87D88B3B86984422ED199F8A9
:10595000970038B3D9F80C008069844222D1697E5F
:10596000A079802907DB802805DA00F58070401ACD
:10597000112817DB0AE0884203DA081A102805DB31
:1059800010E081420EDA401A71280BDB99F896007C
:10599000411C8028B8BF01F07F0189F89610484665
:1059A00000F061FA00214046FEF734F9687EA071EC
:1059B00001B0BDE8F0830000900100201C0300202E
:1059C000986E128330B5854C854D0020A080608094
:1059D000207081B01E2104F10800FEF7FFF929466E
:1059E00004F1A80001F0F6FB294604F1B00001B073
:1059F000BDE8304001F0EEBBF0B50446774E784F7D
:105A00000020B080708030700D4681B01E2106F1FC
:105A10000800FEF7E3F9394606F1A80001F0DAFBC9
:105A2000394606F1B00001F0D5FB812DA8BF8025D5
:105A30002A46214606F12800FDF73EFA75802846E1
:105A400001B0F0BD2DE9F041644F7C883D786619C6
:105A50008046812EA8BF002010DA2A4607F12801CF
:105A6000FDF72AFAB8882818C0B2384400F1280196
:105A7000224608EB0500FDF71FFA3046BDE8F0812D
:105A800030B456490A788B884C88D318DBB2E318B7
:105A90009BB21C18812CA8BF002032DA5B1E1BB2FF
:105AA000002B2BD4CC18C5185B1E94F828400D444D
:105AB0001BB2002B85F8284020D4CC18C5185B1EDB
:105AC00094F828400D441BB2002B85F8284015D4CB
:105AD000CC18C5185B1E94F828400D441BB2002B4F
